:020000040800F2
:1000000000000220D12D0008CD2D0008614C000811
:10001000CD2D0008CD2D0008CD2D000800000000DA
:10002000000000000000000000000000CD2D0008CE
:10003000CD2D000800000000CD2D0008E54B000884
:10004000CD2D0008CD2D0008CD2D0008CD2D0008A8
:10005000CD2D0008CD2D0008CD2D0008CD2D000898
:10006000CD2D0008CD2D0008CD2D000899490008A0
:10007000A5490008CD2D0008B1490008BD49000878
:1000800081F00008C93E0008CD2D0008CD2D0008E4
:10009000CD2D0008CD2D0008CD2D0008CD2D000858
:1000A000CD2D0008CD2D0008CD2D0008CD2D000848
:1000B00099E40008A5E40008B1E40008FD3E00084A
:1000C000CD2D0008093F0008CD2D000809DD0008EE
:1000D00015DD0008B5EE0008E1EE000815EF000898
:1000E000CD2D0008CD2D000800000000CD2D00080A
:1000F000CD2D0008CD2D0008CD2D0008CD2D0008F8
:10010000CD2D0008CD2D0008BDE4000821DD00083C
:1001100049EF00087DEF0008CD2D0008CD2D000827
:10012000CD2D0008CD2D000845DD000879DD000843
:10013000B5F00008CD2D0008CD2D0008CD2D00080C
:1001400000000000000000000000000000000000AF
:10015000CD2D0008CD2D0008CD2D0008B1EF0008F1
:10016000153F0008CD2D0008F54B0008194C00087C
:10017000CD2D00083D4C0008CD2D0008CD2D0008E8
:10018000CD2D0008CD2D0008E5EF000819F000087E
:100190002DDD000839DD0008CD2D0008CD2D00082B
:1001A000CD2D0008CD2D0008CD2D0008CD2D000847
:1001B000B9460008CD2D0008CD2D0008CD2D000832
:1001C000CD2D0008CD2D00084D3800085938000805
:1001D000CD2D000865380008CD2D0008CD2D000874
:1001E000CD2D0008CD2D0008CD2D0008CD2D000807
:1001F000CD2D0008CD2D0008CD2D0008CD2D0008F7
:10020000CD2D0008CD2D0008CD2D0008CD2D0008E6
:10021000CD2D0008CD2D0008CD2D0008CD2D0008D6
:10022000CD2D0008CD2D0008CD2D000800000000C8
:10023000CD2D0008CD2D000800000000CD2D0008B8
:10024000CD2D0008CD2D0008CD2D0008CD2D0008A6
:10025000CD2D0008CD2D0008CD2D0008CD2D000896
:10026000CD2D0008CD2D0008CD2D0008CD2D000886
:10027000CD2D0008CD2D00084DF000080000000035
:10028000CD2D0008CD2D0008CD2D00080000000068
:0802900000000000CD2D000864
:1002A00010B5054C237833B9044B13B10448AFF3B0
:1002B00000800123237010BD2806002400000000E8
:1002C0005C34010808B5034B1BB103490348AFF385
:1002D000008008BD000000002C0600245C340108EA
:1002E000034613F8012B002AFBD1181A0138704776
:1002F00001F0FF01102A2BDB10F0070F08D010F8D7
:10030000013B013A8B422DD010F0070F42B3F6D1DA
:10031000F0B441EA012141EA014122F007047FF0F3
:1003200000070023F0E80256083C85EA010586EA4A
:10033000010685FA47F5A3FA87F586FA47F6A5FA86
:1003400087F68EB9EED1F0BC01F0FF0102F0070292
:1003500032B110F8013B013A83EA010313B1F8D13D
:100360000020704701387047002D06BF354603381E
:10037000073815F0010F07D1013015F4807F02BF57
:10038000013015F4C03F0130F0BC0138704700BFA8
:1003900053B94AB9002908BF00281CBF4FF0FF31EC
:1003A0004FF0FF3000F074B9ADF1080C6DE904CEE8
:1003B00000F006F8DDF804E0DDE9022304B0704740
:1003C0002DE9F047089D04468E46002B4DD18A4208
:1003D000944669D9B2FA82F252B101FA02F3C2F13B
:1003E000200120FA01F10CFA02FC41EA030E9440CC
:1003F0004FEA1C48210CBEFBF8F61FFA8CF708FBED
:1004000016E341EA034306FB07F199420AD91CEBC4
:10041000030306F1FF3080F01F81994240F21C81F6
:10042000023E63445B1AA4B2B3FBF8F008FB10333E
:1004300044EA034400FB07F7A7420AD91CEB040473
:1004400000F1FF3380F00A81A74240F20781644443
:10045000023840EA0640E41B00261DB1D4400023C8
:10046000C5E900433146BDE8F0878B4209D9002D2C
:1004700000F0EF800026C5E9000130463146BDE8B6
:10048000F087B3FA83F6002E4AD18B4202D3824220
:1004900000F2F980841A61EB030301209E46002DCF
:1004A000E0D0C5E9004EDDE702B9FFDEB2FA82F224
:1004B000002A40F09280A1EB0C014FEA1C471FFA82
:1004C0008CFE0126200CB1FBF7F307FB131140EA69
:1004D00001410EFB03F0884208D91CEB010103F136
:1004E000FF3802D2884200F2CB804346091AA4B2F8
:1004F000B1FBF7F007FB101144EA01440EFB00FECC
:10050000A64508D91CEB040400F1FF3102D2A64530
:1005100000F2BB800846A4EB0E0440EA03409CE7CF
:10052000C6F12007B34022FA07FC4CEA030C20FA7C
:1005300007F401FA06F31C43F9404FEA1C4900FA9C
:1005400006F3B1FBF9F8200C1FFA8CFE09FB181119
:1005500040EA014108FB0EF0884202FA06F20BD98C
:100560001CEB010108F1FF3A80F08880884240F2DC
:100570008580A8F102086144091AA4B2B1FBF9F020
:1005800009FB101144EA014100FB0EFE8E4508D91B
:100590001CEB010100F1FF346CD28E456AD90238A0
:1005A000614440EA0840A0FB0294A1EB0E01A14285
:1005B000C846A64656D353D05DB1B3EB080261EBF3
:1005C0000E0101FA07F722FA06F3F1401F43C5E9CD
:1005D000007100263146BDE8F087C2F12003D84003
:1005E0000CFA02FC21FA03F3914001434FEA1C4745
:1005F0001FFA8CFEB3FBF7F007FB10360B0C43EA37
:10060000064300FB0EF69E4204FA02F408D91CEBE6
:10061000030300F1FF382FD29E422DD902386344E4
:100620009B1B89B2B3FBF7F607FB163341EA034184
:1006300006FB0EF38B4208D91CEB010106F1FF38D3
:1006400016D28B4214D9023E6144C91A46EA0046CA
:1006500038E72E46284605E70646E3E61846F8E65C
:100660004B45A9D2B9EB020864EB0C0E0138A3E7A5
:100670004646EAE7204694E74046D1E7D0467BE786
:10068000023B614432E7304609E76444023842E7FE
:10069000704700BF00487047143101080048704798
:1006A000283101082DE9F04389B020B3032829D06F
:1006B000042856D82E4B53F820402046FFF710FE52
:1006C0002028024628BF202200284CD00023294F92
:1006D0001846591C205CCBB227F811009A421846E4
:1006E000F7D8531C5B0043F440739BB221483B8016
:1006F00009B0BDE8F0831F4F40F209424FF4417347
:100700007A80F3E71021684602F086FB10288646BF
:10071000184F28BF4FF0100EE0B1E8460026164CE7
:100720003D460DF1100C0136043594E80F008CE8BD
:100730000F0018F8012B08A9B64502F00F0301EBD2
:1007400012190B4413F8103C2B8019F8103C25F8B3
:10075000023CE8D84FEA8E03023343F440739BB265
:10076000C4E70020C4E740F20233024FBEE700BFF7
:100770007431010844060024D430010830B54478AF
:1007800083B06CB9856875B100290B46817814BFB8
:100790002A4600220078009400F0D2FD03B030BD5C
:1007A000002003B030BD0B4600F10C0281780078C8
:1007B000009501F039FAF4E7817829B138B543782A
:1007C00004461BB1002038BD00207047007800F0BF
:1007D0009BFD0028F6D0A28AE08A92B2238A80B2DA
:1007E000111A28D48AB2934218D99B1A99B2A388B5
:1007F0008B4217D85B42E288204603EA0104944208
:1008000028BF14462146FFF7B9FFC8B94FF0E023CF
:10081000D3F8F03DDB07D5D500BE38BD0021A38855
:100820008B42E7D96578002DCCD1A178207800F0F3
:1008300079FD284638BDC0EB4300024492B2D2E7AE
:10084000204638BD012808D80A7832B1012A10B5EF
:100850000E4C22540CD0012010BD4FF0E023D3F8F1
:10086000F03DDA0702D500BE002070470020704737
:1008700000F09EFC0028EED14FF0E023D3F8F03DCD
:10088000DB0701D500BE10BD002010BD8806002486
:100890000378024613F0050309D1017811F0050F22
:1008A00005D10378012043F0040313707047002042
:1008B000704700BF0278034602F00502042A0CBF0D
:1008C0000120002003D11A7802F0FB021A70704751
:1008D00030B5039CBDF810E0A644744515D22578C8
:1008E0002544AE4511D394F801C0BCF1050F0ED0DC
:1008F000BCF1040F16D094F800C06444A64504D996
:1009000094F800C0A444E645EDD2012030BD94F82F
:1009100002C00CF00F054FEADC1C01EB450505F8A1
:100920000C00E8E7E578002DE5D194F802C09C457D
:1009300002D202F80C00DEE74FF0E023D3F8F00D0E
:1009400010F00100E2D000BE284630BD38B5049D4D
:10095000BDF8142065B15AB10446084629466070B6
:1009600004F10C0000F0EAF8069B0120A36038BDFA
:10097000002038BD828A38B5C38A92B29BB29A42AF
:1009800000D109B9002038BD83880446013B0B42E1
:10099000F8D181780029F5D04578002DF2D1007882
:1009A00000F0B2FC0028EDD029462046FFF7E6FE15
:1009B0000028E8D14FF0E023D3F8F03DDB07E1D584
:1009C00000BE38BD38B5838A0446C28A9BB2018A0C
:1009D00092B2981A28D483B2994228BF194609B90D
:1009E000002038BDA1780029FAD06578002DF7D114
:1009F000207800F089FC0028F2D0A168C9B12B460C
:100A0000E28804F10C0000F0B5F90546F5B129467D
:100A10002046FFF7B3FE00BB4FF0E023D3F8F03DD4
:100A2000DB07DDD500BE38BDC2EB410213449BB2EB
:100A3000D2E7A38AE28A9BB2208A92B29D1A0ED490
:100A4000ADB2854228BF0546002DE0D16378002B6A
:100A5000C6D1A178207800F065FC284638BDC2EBED
:100A6000400213449DB2ECE738B50546104602B982
:100A700038BD002392B205F10C0000F097F9AB8A63
:100A8000E98A04469BB2288A8AB2991A0FD48BB29B
:100A90008342AA8828BF03469A4203D9824201D8DA
:100AA000204638BD2846FFF78DFF2046F9E7C2EB08
:100AB000400213449BB2EBE7838AC28A9BB2018A4D
:100AC00092B2B3EB020C10D41FFA8CF3994206D900
:100AD000C91A838889B28B4205D90020704700214A
:100AE00083888B42F9D8FFF767BEC2EB41021344FB
:100AF0009BB2EBE738B50446002392B20C3000F00D
:100B000039F9A38AE28A05469BB2218A92B2981AE1
:100B10000ED483B2994209D9C91A89B2A3888B42EB
:100B200002D82046FFF748FE284638BD0021F5E7E9
:100B3000C2EB410213449BB2ECE700BFB2F5004F99
:100B40000ED8844600B54FF0000E0160828001206F
:100B5000ACF80AE08CF80630ACF808E05DF804FB6D
:100B600000207047002343810381704783798B42C3
:100B700018BF8171704700BF30B5054683B0ABB177
:100B8000187883B204E0D21A0C68014492B22C6047
:100B90009342F8D90AB903B030BD002301A80193EC
:100BA00011F066FA019B2B6003B030BD0423184698
:100BB000EEE700BF2DE9F04F85B085880F468046EF
:100BC000BDF838400F991E1B48BF06EB4506B6B26C
:100BD00026B3B54226D3964228BF1646A54203D86F
:100BE000641BA4B2A542FBD9002900F082802B1B14
:100BF000D8F800B09BB20BEB04099E421AD80878D3
:100C00003246864283B207D3D21AD9F80010814403
:100C100092B239609A42F7D2002A78D1304605B0B4
:100C2000BDE8F08F9D422E4694BF5B1B5B199CB2C2
:100C30004481D0E791F800A0CAF100021FFA8AF8B7
:100C40001A4052450092C0F08E804946A2EB08023D
:100C50000868514492B238604245F7D2002A62D106
:100C60000AF1FF32751B13402C4413F0FF02A4B2AB
:100C70002CD0A8EB0205009B02A80092ADB24B4419
:100C80001FFA82F9A542194628BF254611F0F0F94E
:100C9000009AEDB22DB102AB594698182A4611F0D0
:100CA000E7F909EB050202A91FFA85F9424552D37B
:100CB000A2EB08020B68514492B23B604245F7D266
:100CC000002A48D1A4EB0904AB44A4B2002CA5D05F
:100CD00044450AD3A4EB0804DBF80030D344A4B2A3
:100CE0003B604445F6D2002C98D00023224659465A
:100CF0000FE0A5EB0409D8F800101FFA89F9214488
:100D00004E451AD83246384611F0B2F986E700232C
:100D1000494603A8039311F0ABF9039B30463B60AF
:100D200005B0BDE8F08F00200193039003A811F0F7
:100D30009FF9039A019B3A6092E74A46384611F0C0
:100D400097F9721B07EB0900D8F80010224492B201
:100D500011F08EF962E7002303A8039311F088F9DC
:100D6000039B3B60AEE7009A4946002A3FF478AF08
:100D7000D9E700BF30B583B00446019303894589A4
:100D80009BB2ADB20095FFF715FF6289A18892B2C0
:100D900013189BB29A424FEA410202D8B3EB410FBB
:100DA00001DB9B1A9BB2638103B030BD2DE9F04F8C
:100DB00089B00293002A53D0B0F808900F464389B7
:100DC000064681791FFA89F99BB2858800294DD1A1
:100DD000B9EB030167D48BB29D4241D9A5EB03085F
:100DE0001FFA88F8904528BF904608EB09039BB28C
:100DF00001932B464D454C4603D8641BA4B2AC422C
:100E0000FBD2029900297AD02A1B90B23268404561
:100E100002EB040A03904BD30C7842464445A1B23E
:100E200000F2A480521A386892B2CAF80000A244B4
:100E30008A42F7D2002A40F09980019A4A454FEA47
:100E4000430203D30199B1EB430F03DB019B9A1AD1
:100E500093B20193019B4046338109B0BDE8F08F06
:100E60004FF00008404609B0BDE8F08F9542A84613
:100E700012D9B9EB03014FEA450044BFC3EB45016A
:100E8000494489B21144814247DA02EB0903904692
:100E90009BB201932B46ADE70299002963D0002D48
:100EA000E0D09946A1E7C3EB45034B449BB293E7DF
:100EB000029B03991B785A421FFA83FB0A409A420D
:100EC0000492C0F0B9805046A2EB0B02396892B28E
:100ED000016018445A45F7D2002A40F08880A8EBF8
:100EE00005052C445D1E039BA4B21D4015F0FF05B3
:100EF00044D13068002C40F08280B3889DE7A5EB98
:100F0000040A30681FFA8AFA2044C2451DD33946C4
:100F1000424611F0ADF8B3888FE7E91889B2A1EB2A
:100F2000020901911FFA89F94B4504D8484502DDB1
:100F300090462B465EE7A9EB000990462B461FFA28
:100F400089F94A4492B2019254E75246394611F067
:100F50008FF8A8EB050207EB0A013068224492B231
:100F600011F086F8C9E7521B174498E73B685046D2
:100F700007A9079311F07CF8B3885EE7ABEB050B8C
:100F8000029B06A81FFA8BFB19780390A3451FFA52
:100F900081FC28BFA3465FFA8BF3EA189B460593B2
:100FA0008A4243D3A2EB0C023B6892B2036008442E
:100FB0009445F7D9002A39D1049B2A460399534412
:100FC000184611F055F8BBF1000F0AD0039B002220
:100FD0002B44316813F8010B88540132D1B28B4590
:100FE000F7D8059B3068E41A5844A4B282E7396800
:100FF0000593079107A911F03BF8059B6FE7029B4A
:101000001978A1428BB209D8E41A3A68A4B20260F6
:101010000844A342F8D9002C3FF46FAF3B68224646
:1010200007A9079311F024F8B38806E739680791F8
:1010300007A911F01DF8BFE7049A50464CE700BF1E
:101040000289438992B2B0F804C09BB230B4D41A7A
:1010500044BFC3EB4C04A418A4B2A44508D29445E1
:10106000644694BFA2EB0C030CEB02039BB24381DA
:101070001CB921E0A2EB0C0292B29445FAD99C452E
:1010800004D8A3EB0C039BB29C45FAD900689A42A2
:1010900000EB03054D6009D8A4EB0C04ACEB030294
:1010A000C86023440A8030BC0B81704700230C8049
:1010B0000B81CB6030BC70470C800C814C60CC60E5
:1010C00030BC7047002070472DE9F041204D297851
:1010D000FF2916D0002480461E4F23461E4E8B4209
:1010E00003EBC30229D2336813EB820327D0DB68FA
:1010F0004046013498472978E3B24A1CD2B29A425A
:10110000EDD8164B50220021184610F0BFFF4FF0CB
:10111000FF32C0F81B20C0F81F20C0F82320C0F801
:101120002720C0F82B20C0F82F20C0F83320C0F8AB
:101130003720A0F83B20BDE8F0813B46D8D04FF0E7
:10114000E023D3F8F03DDB07F5D500BEBDE8F08124
:1011500090060024791D00088C060024D406002483
:10116000034B10B1187801F0ADBA187801F0C2BA8B
:1011700018000024704700BF00207047002070470F
:1011800000207047704700BF704700BF704700BF26
:10119000704700BF0022034610461A70704700BF18
:1011A000024B187E003818BF01207047D406002477
:1011B0002DE9F047DFF8D88098F80030FF2B43D1B5
:1011C0000C46002951D0002150222C4D06462C48B7
:1011D0004FF0000A10F05AFF2A4B05F108002A4F81
:1011E00083F800A0FFF7BEFC284B3846DFF8A49038
:1011F0001D60FFF7CFFF3978C9F80000FF2929D01B
:101200005546DFF894A02B46994205F1010503EB02
:10121000C3021DD9D9F8003013EB82031AD05B68E2
:10122000C3B198473978EBB24A1CD2B29342EBD3A0
:101230002146304688F8006001F0B2F90446A0B1BA
:10124000304601F03FFA00E001242046BDE8F08777
:101250005346E6D04FF0E023D3F8F03DDA0700D54F
:1012600000BE00242046BDE8F0874FF0E023D3F80D
:10127000F03DDB07F5D500BEE7E700BF0400002422
:10128000D4060024E8070024900600242407002444
:10129000180000248C0600241D1D0008704700BFA4
:1012A00010B5054C636818B913B92368984763688B
:1012B0000133636010BD00BF1C000024054A536861
:1012C00023B1013B53600BB9012800D1704713686B
:1012D000012018471C0000248A7802F00F02082A17
:1012E00003D88B88C3F30A0343B94FF0E023D3F844
:1012F000F03DDB0700D500BE00207047014B187899
:1013000001F064BA180000240B4605480021DA09F0
:1013100003F00F033D3202EB43031844FFF7B8BA62
:10132000D40600240B4605480021DA0903F00F0318
:101330003D3202EB43031844FFF7BCBAD406002445
:101340001A4801F00F0C00EB4C0030B500EBD11443
:1013500083B094F83D009DF81850C0070AD54FF0AF
:10136000E023D3F8F03DDA0702D4002003B030BD0B
:1013700000BEFAE7009594F83D0040F0010084F8C3
:101380003D000B48007801F0A1FA0028EED194F856
:101390003D304FF0E02203F0FA0384F83D30D2F8FC
:1013A000F03DDB07E1D500BE03B030BDD40600241C
:1013B000180000240A4BDA8800B583B06AB193F9AB
:1013C0000030002BACBF8021002100231A4600937F
:1013D000FFF7B6FF03B05DF804FB8021F5E700BF1F
:1013E000D40600241A4AB2F80CC0D189ACEB010330
:1013F0009BB230B5402B044692F9000085B028BF5F
:10140000402300280EDB8C454FF0000108D0114A24
:10141000002520460095FFF793FF05B030BD8021E1
:101420000022F5E78C45FAD092680A4DAA420AD00C
:101430005AB1114628461A46039310F019FE80212E
:101440002A46039BE4E78021E2E71046E5E700BF78
:10145000D406002494060024174910B5CC8882B025
:101460008A60A34228BF23468B814CB1844602B9CF
:10147000BBB96046FFF7B6FF50B1012002B010BD06
:101480002346224680210094FFF75AFF0028F4D11A
:101490004FF0E023D3F8F03DDB0709D500BE02B0E2
:1014A00010BD4FF0E023D3F8F03DDA0700D500BEC1
:1014B000002002B010BD00BFD40600242DE9F04F7B
:1014C000DFF898928DB099F80030FF2B28D01024C7
:1014D0009C4DDFF88CA2DFF88CB22E6800203368B8
:1014E0009847B288002306F1080009A9FFF742FCDB
:1014F0000346326801201E4690478EB19DF8253084
:10150000013B072B00F2D280DFE803F09C958C8230
:101510007B350D040A9B0BB10B989847013CDCD13D
:101520000DB0BDE8F08F9DF82810874E01F00F0731
:1015300006EB470303EBD11393F83D2002F0FA02C8
:1015400083F83D20002F00F08980804A93F82B30EB
:10155000127893427FD203EBC303DAF8002012EB38
:10156000830300F0C3809E690B9B9DF829209DF8A2
:101570002400B047D2E7764B1A78002ACED01A78EA
:10158000013AD2B21A701B7803F0FF02002BC5D1CA
:101590000CAB6D4E4FF0010C9DF82480326186F843
:1015A00014C086F83D2086F83E2013E90300C6E902
:1015B000022286E80300337803F06007602F0DD025
:1015C000402F00F0CB8103F01F02012A00F0988128
:1015D000022A00F06981002A00F0C6804FF0E02363
:1015E000D3F8F03DD80702D500BE9DF824804046D0
:1015F000002101F0D5F980219DF8240001F0D0F9F7
:101600008CE7514B1B7D002B88D0FFF7C1FD85E790
:101610004D4B1A7D002A81D0D87DC0F34000FFF7E2
:10162000B5FD7BE7484B9B7EDA077FF577AF0A98DD
:10163000FFF7A0FD72E79DF82400FFF745FDFFF7D7
:10164000A3FD6BE79DF82400FFF73EFD3E4B9DF8A0
:1016500028205A7662E749D13E4E85E7F0889DF80A
:1016600024800B9A58B396F90030002B47DA0029F2
:1016700047D0B3681344B360F38913449BB29842D4
:10168000F38101D03F2A4DD833692BB12E4A022174
:101690004046984700284CD00023394640461A4619
:1016A0000093FFF74DFE00287FF438AF4FF0E023A2
:1016B000D3F8F03DDB077FF531AF00BE2EE7802980
:1016C0001FD096F90030002BC0F26E81B368002B5A
:1016D0003FF424AF20498B4222D018460392802742
:1016E00010F0C6FCB368F088039AC3E74FF0E0231C
:1016F000D3F8F03DD9077FF513AF00BE10E780297E
:10170000E4D1002AD2D110494046FFF7C7FD336922
:10171000002B3FF403AF40460B4A03219847FDE6F8
:101720008027A7E74046FFF75DFE00287FF4F6AE6E
:10173000BCE70146404601F033F94046802101F004
:101740002FF9EBE624070024D40600249006002499
:10175000E8070024D51F0008940600241800002480
:101760008C06002488310108202F00F02481002FEE
:101770007FF434AF7278092A3FF630AF01A151F8F7
:1017800022F000BF9318000879180008DD15000842
:101790005B180008DD1500084D180008FD1700084B
:1017A000DD150008E7170008AD170008B278337E92
:1017B0009A4208D0002B40F0E6813276002A40F0B1
:1017C0006D81FFF7E1FCF388002B60D096F90030C3
:1017D000002BA8BF80273946002340461A460093B5
:1017E000FFF7AEFD9AE6337E8DF8223040460123A6
:1017F0000DF12202A549FFF72FFE8FE67088030A3C
:10180000C0B25A1E0E2A3FF6F2AE01A151F822F0E4
:10181000EB1B0008D91B0008CB1B0008EF150008C4
:10182000EF150008B31B0008D91B0008EF150008CE
:10183000EF150008EF150008EF150008EF15000878
:10184000EF150008EF150008731A00084046B1783C
:1018500000F06CFF0123737560E67288012A7FF443
:10186000C6AEF27D42F00202F275F2887AB113F050
:10187000800F08BF8027AEE77288012A7FF4B7AED9
:10188000F27D6FF34102F275F288002AEFD18027D2
:10189000A1E7F37D40460DF122027C49ADF82230EC
:1018A0000223FFF7D9FD39E6317901F00F02082A4A
:1018B0003FF694AE06EB4203520003EBD1130492C1
:1018C000734A93F82B00CB09127890424ED200EB6A
:1018D000C002DAF8000000EB82020392002F4AD027
:1018E000039B002B3FF483AE5B694046674A0121AE
:1018F0003361984700287FF411AE9DF8248076E686
:1019000033790F2B3FF673AE3344614ADB7E127896
:1019100093424CD203EBC303DAF8002012EB8303AB
:101920003FF465AE5B69594A0121404633619847EF
:1019300000287FF4F3AD337813F06001DDD17278C5
:1019400031610A2A00F092800B2AD6D1F288002A4F
:101950007CD013F0800F08BF80213DE74D4B6146DE
:10196000404632463361FFF7ADFBC3E768D1002F35
:1019700036D1CDF80CB0727802F0FD00012831D0DC
:10198000002A7FF42BAE049A4046404916440DF1DC
:101990002202334493F83D30C3F34003ADF82230C4
:1019A0000223FFF759FDB9E5B368802762E67FF4AB
:1019B0001EAE394BB7E733790F2B3FF618AE3344E1
:1019C000334ADB7E1278934208D203EBC303DAF882
:1019D000002012EB83033FF40AAE85E77FF407AEE5
:1019E0002D4B82E7708888B9012A99F80000059389
:1019F0002ED000F0D5FF049B33441F46059B3B448B
:101A000093F83D2042F0030283F83D20039B002B16
:101A10003FF484AD5B6901211C4A4046336198471D
:101A200096F83E10002311F0010133617FF476AD8A
:101A3000F3885BB196F90030002BA8BF8021CBE67C
:101A4000002F7FF4D4AD0022039294E78021C3E6F7
:101A500000F0BEFF049B33441F46059B3B4493F8B4
:101A60003D2002F0FC0283F83D20CFE78DF82210E4
:101A7000BCE6FFF781FB024600283FF43EAF40463C
:101A800053880249FFF7E8FC34E700BFD40600247E
:101A900090060024C5100008211F0008501EC0B287
:101AA000FEF7FCFD00285DD04378022B5AD1C379A4
:101AB000F27D9B1163F30002F2754388CDF8148028
:101AC000C3180797069300F10903CDE903461E46A4
:101AD000069BB34203D934783444A34207D2DDF8DD
:101AE0001480079FDDE90346FFF74CFB6BE6737834
:101AF0000B2B5CD0042B33D1069B4FF000089B1BB3
:101B00009CB2464B5FFA88F7224608F1010893F829
:101B100000C0314605980CF10103DBB2BB421FD96E
:101B2000BC4541D9DAF800304FF0240C0CFB0733E8
:101B3000B3B11B6998470828E3D98442E1D3102345
:101B4000374A0446D118CDE900603846FEF7C0FE9A
:101B500030B1324B34441B780133DBB2BB4226D860
:101B6000DDE903464FF0E023D3F8F03DDB0700D575
:101B700000BE002333764FF0E023D3F8F03DDF07BB
:101B80003FF532ADB9E600214046049200F000FE78
:101B9000404600F03DFE737E40460393FFF794FA03
:101BA000039B049A737608E6DAD15B46C1E72646C2
:101BB0008EE7FFF7E3FA024600283FF49EAE404668
:101BC00013781849FFF748FC94E6B188FEF76AFDE0
:101BD00002460028F3D190E6022B10D0FFF7D0FA8E
:101BE000024600287FF44BAF87E6FEF753FD02461E
:101BF00058B1404612230B49FFF72EFC7AE6FEF758
:101C00004DFD024600287FF43AAF4FF0E023D3F8B1
:101C1000F03DDE073FF5E8AC6FE600BF900600241C
:101C2000EF060024D40600241A4801F00F0C00EB44
:101C30004C0030B500EBD11483B094F83D009DF812
:101C40001850C0070AD54FF0E023D3F8F03DDA076B
:101C500002D4002003B030BD00BEFAE7009594F82E
:101C60003D0040F0010084F83D000B48007800F092
:101C700061FE0028EED194F83D304FF0E02203F0F1
:101C8000FA0384F83D30D2F8F03DDB07E1D500BE21
:101C900003B030BDD406002418000024704700BFF4
:101CA000704700BF704700BF704700BF704700BF5C
:101CB000704700BF704700BFA0B90B490B8F4A8F18
:101CC0009BB2888E92B2991A04D48BB2984228BFE4
:101CD00018467047C2EB400213449BB2984228BF9B
:101CE0001846704700207047EC07002408B1002018
:101CF00070470148FEF7FEBE1008002408B100201E
:101D000070470148FEF7B0BEF807002408B1002074
:101D100070470148FEF756BEF807002470B5144C12
:101D2000002184B0BC2220460D4610F0AFF94FF4DC
:101D3000E132402604F17C0362604FF608722946C6
:101D4000009362812B462A4604F12400CDE9016507
:101D5000FEF7FCFD04F13C020123294604F10C00CE
:101D60000295CDE900261A46FEF7F0FD04B070BDDD
:101D7000EC0700240120704738B5064C00250121EE
:101D8000204640F8185BFEF7F1FE84F82650A57354
:101D900038BD00BFEC0700242DE9F84F4B79022B2A
:101DA00012D18B790E46022B0ED1DFF86CB10746AB
:101DB0009BF826305BB19BF80E3043B14FF0E02327
:101DC000D3F8F03DD90774D40020BDE8F88FB3787C
:101DD000B5188BF800708BF801303378F418A542F1
:101DE0000ED9F35C23449D420AD36378242B08D197
:101DF00023781C44A54203D9237823449D42F4D27E
:101E00006378052B6BD0042B03D0A01B80B2BDE8F8
:101E1000F88F63790A2BF8D12379002B74D0AC4268
:101E200072D2237823449D423BD39A46DFF8EC904C
:101E30004FF000089AF801305146052BBED19AF8B0
:101E4000033003F00303022BB8D13846FFF744FAFE
:101E5000034648463BB39AF80210CB092ED1BAF894
:101E600004308BF82610C3F30A038BF82470ABF808
:101E70002830ABF82A30FEF775FE2548FEF71CFE29
:101E8000002838D008F1010823795FFA88F8434523
:101E90009AF800300FD955450DD99A445545534607
:101EA000C8D21C46B1E74FF0E022D2F8F02DD2079D
:101EB0008AD500BE88E753441C46A6E78BF80C7011
:101EC0008BF80E10BAF804301248C3F30A03ABF8CB
:101ED00010304023ABF81230FEF744FED2E7214623
:101EE0003846FFF7F9F930B1A3788BF80230237840
:101EF0001C44637887E74FF0E023D3F8F03DDB071D
:101F00007FF562AF00BE60E7237823441C467CE780
:101F10001008002404080024EC0700241C080024F6
:101F200038B5137803F06003202B07D19446264A76
:101F3000BCF8043092F801E09E4501D0002038BD85
:101F40009CF80130203B032BF8D8DFE803F027236F
:101F50000D02012933D003291ED1BCF80210002044
:101F6000FFF7A8FE012038BD012928D0032913D18D
:101F7000BCF80240154804F00105D47085F0010159
:101F8000FEF7F4FDC4F3400229460020FFF78EFE61
:101F9000012038BD01290BD0012038BD012907D00F
:101FA0000329F9D10A490020FFF782FE012038BD3C
:101FB0000723074A6146FFF74FFA012038BD614603
:101FC000FFF7F8F9012038BDEC07002404080024CD
:101FD000F0070024F0B5464D85B00C461E4695F836
:101FE00026208A4216D0AA7B8A4261D0A87800298E
:101FF000A0EB0100B0FA80F04FEA501008BF0020BB
:10200000F8B94FF0E023D3F8F03DDB0700D500BE70
:1020100005B0F0BDE96A29B10023B2B205F1300084
:10202000FEF7C4FEEB7AFF2B11D12A8F6B8F92B291
:102030009BB29A4233D12F48FEF73EFDAB7BA342C1
:1020400036D0AB78A34240D0012005B0F0BD694640
:102050002948FEF7F5FFBDF80830002B3BD0013BC7
:10206000039A1A44002AE0D0002EDED0BDF800E02A
:102070000023DDF804C00EF1FF3EE97A039FE64439
:1020800006E0944502F1FF32CFD001339E42CCD01E
:102090001078884227D09742F3D17246F5E70020A6
:1020A000FFF7FCFD1348FEF707FDAB7BA342C8D149
:1020B0000020FFF7F7FD1148FEF784FC0028C0D18F
:1020C00031460E48FEF756FCBBE70020FFF7ECFD5B
:1020D000012005B0F0BDBDF80030002BA5D0013BBC
:1020E000019A1A44BEE70020FFF7DAFD9DE700BF22
:1020F000EC070024100800241C080024F807002422
:10210000012870B43BD9374D4FEA400C364C60443F
:1021100001F00F0604EB8004207AB04224D9033288
:10212000C9094FEA920C624611D1CCF30D026C6AD8
:1021300002F1080303445B009BB29C4227D22B4A66
:1021400092889A4210D301206B6270BC7047617A0A
:102150002648F9B9264909883141C90720D4696A56
:10216000838861448B4233D24FF0E023D3F8F03DB3
:10217000DB0702D4002070BC704700BEFAE71A4C9F
:1021800000EB40054FEA400C54F82550BFE7012012
:1021900070BC70478479A142E6D901348471D9E7D3
:1021A000002EDCD0002BDAD0696A4FEA420C83881B
:1021B00001EB42018B42D7D3A3EB0C0292B2828097
:1021C0003F3642EA0C42012005EB86056A60D2E701
:1021D0009A1A92B28280002EF2D142EA0C42012079
:1021E000AA62C8E700000840AC310108A808002432
:1021F000B0080024012810B417D90F4942000F4B32
:1022000002440F4C03EB82031A7A5B891832A380D5
:1022100043EA034352005DF8044B4A628A6C402251
:10222000CB6500238021FFF76BBF044B00EB40011F
:10223000420053F82110E3E700000840AC310108E8
:10224000A808002401282DE9F04143D9284C91F831
:1022500002C08B880CF00F00D4F80888254DC3F31A
:102260000A03470018F0060F4FEADC16864607EB14
:10227000DC1205EB0212538191F8068007D108F1B8
:10228000FF324FF0010808FA02F85FFA88F8CA78BE
:1022900043F40043374402F0030105EB07154A1EDF
:1022A00043EA814385F80C8018BF012243EA027398
:1022B0001A46AEB900F1580200F1100E5201A350B7
:1022C000D4F81C28012303FA0EF31343C4F81C3876
:1022D000BDE8F081084B00EB400053F82040B6E722
:1022E00048306CF3995240012250D4F81C28E9E799
:1022F00000000840B4080024AC310108012830B5C2
:1023000028D9454BC809002A01F00F0180F0010CC3
:1023100014BF4FF40015002510BB01EB0C104FEA61
:102320000C1C03EB4010D0F80049002C00DA81BBF4
:10233000D0F800492C43C0F80049012A09D041B126
:102340008C4403EB4C13D3F8002922F40042C3F869
:10235000002930BD314B00EB400053F82030D1E76D
:1023600001EB0C1E4FEA0C1C03EB4E1EDEF80009BD
:10237000002832DBDEF800492C4344F00064CEF83C
:102380000049880140F02000186118698506FCD4D6
:10239000D3E7D3F8044844F40074C3F804485C69F4
:1023A0002406FCD5D0F800492C4344F08044C0F802
:1023B00000490CEB010003EB4010D0F8084900F68F
:1023C000081EA407F9D50220CEF80000D3F80408AF
:1023D00040F48060C3F80408AFE7DEF8000940F07D
:1023E0000060CEF80009DEF808094006FBD5DEF8EB
:1023F00000490CEB01002C4303EB401044F08044F7
:10240000CEF80049D0F8084900F6081EA407F9D50F
:102410000220CEF80000B4E700000840AC3101080B
:102420002DE9F04F00EB411883B0D8F81039C3F311
:10243000C94ABAF1000F3FD04A01002701311F4EAF
:102440003D46DFF87CB000EB013916440BE0013764
:102450008DF800E0CDF804C0FEF78CFCBBB225443B
:102460009A45ADB224D9D8F810294FF0040E748BD8
:102470004FF0000C92B2D8F818096B4649469442C6
:102480000BEA800028BF14468442224610D87069A7
:102490000028DCD10346316948460137FEF76CFB62
:1024A000336925442344ADB23361BBB29A45DAD8CF
:1024B000284603B0BDE8F08F5546F9E7B40800247C
:1024C000FCFF03000128F8B50D465AD9304C501EC8
:1024D00018BF012075BB2F4F012337F81260402E23
:1024E000314628BF4021761A27F8126005EB00100C
:1024F00041EAC34304EB4010C0F81039D0F800693A
:10250000C6F30743C6F3076C03F00C036CF07B0CB7
:10251000042B6CF31F6607D1D4F80838DB054CBFD9
:1025200046F0805646F00056012AC0F8006900D1F6
:1025300091B9F8BD02EB4503174901EB03114E8930
:1025400009898B19013BB3FBF6F39BB2012B38BF12
:102550000123C3F30903C9E729462046FFF760FFBB
:10256000002DE6D00C4B03EB45131B8B181A0028EB
:10257000DFDD0123D4F83418AB400B43C4F8343802
:10258000F8BD064B00EB400053F820409FE700BF2A
:1025900000000840A8080024B4080024AC31010859
:1025A00038B50022424B01280546C3E9002252D922
:1025B000404C0021204600F04FFA014600222846F8
:1025C000A36C0D4600F056FA00284AD0D4F8003823
:1025D00023F00303002D36D143F0030343F004033B
:1025E000354AC4F80038D4F80438927843F002032E
:1025F000C4F80438E36823F0C04343F08043E36049
:10260000236823F01003002A33D143F0C003236072
:10261000A36BE26BB2F5005F3AD3E26BB2F5A04F69
:1026200040D223F40013A363244BA2691343A36194
:10263000A36843F00103A360D4F8043823F0020335
:10264000C4F8043838BDA26C02F0C002802AC5D19B
:1026500043F48043C2E71A4B00EB400253F8224098
:10266000A7E74FF0E023D3F8F03DDB07EAD500BE43
:1026700038BD2360A36BE26BB2F5005F0DD3E26B54
:10268000B2F5A04F01D323F0607343F40013CAE7FF
:1026900023F4402343F40013C5E723F4001343F469
:1026A0000023C0E723F0087343F0C073BBE700BF0B
:1026B000A808002400000840B0080024043000806E
:1026C000AC310108094B00EB400003EB800042688D
:1026D00013B2002B08DB02F01F0201215B09044842
:1026E00001FA02F240F82320704700BFAC31010824
:1026F00000E100E00B4B00EB400003EB8000426880
:1027000013B2002B0DDB01215B0902F01F0206480A
:10271000203301FA02F240F82320BFF34F8FBFF3BA
:102720006F8F7047AC31010800E100E0012838B537
:1027300004461FD9124AD2F80038002023F4FE6361
:1027400043EA0111C2F80018FEF7AAFD0D4B5A8B9F
:102750005AB100211A7F0C4D20465A770122198365
:102760006980C3E90411FFF7ADFE0020BDE83840E1
:10277000FEF7A4BD054B00EB400253F82220DAE738
:1027800000000840B4080024A8080024AC31010867
:1027900001280FD90A4B0B4AD17131B108225A6175
:1027A0009A6942F008029A6170479A6922F0080219
:1027B0009A617047044B00EB400053F82030EAE781
:1027C00000000840A8080024AC310108CB7803F0D1
:1027D0000303A3F1020370B5B3FA83F38A880C46AE
:1027E0008978C2F30A025B090646FFF789FC0546B1
:1027F00040B94FF0E023D3F8F03DDB0700D500BE31
:10280000284670BD30462146FFF71CFD284670BDA6
:1028100001282DE9F041074649D9284D4200284BAF
:102820003A440020002403EB820393F80880FEF76B
:1028300037FD244BB8F1010F9C714FF00113C5F81F
:102840001C3820D92049012205EB42130132D3F86C
:1028500000095FFA82FC002805DAD3F8000940F08D
:102860009040C3F80009D3F8006B4C87002E05DABE
:10287000D3F8000B40F09040C3F8000BC4454C85E2
:1028800001F12001E0D34FF484632B612B699B0697
:10289000FCD410232B612C6914F01004FBD13846B2
:1028A000FFF7A8FC2046BDE8F041FEF707BD044B4A
:1028B00000EB4001420053F82150B1E7000008400E
:1028C000AC310108A8080024B40800242DE9F04721
:1028D0009DF8207001F00F0ACC09804638469146D9
:1028E00004EB4A051E46FEF7DBFC10492B0101EB09
:1028F000051255897DB141F803900023168153607C
:10290000137B5373BAF1000F0BD022465146404659
:102910000125FFF7D7FD3846FEF7D0FC2846BDE875
:10292000F087034B23F81460EFE700BFB4080024DE
:10293000A80800242DE9F0479DF8207001F00F0A47
:10294000CC0906463846984604EB4A059146FEF700
:10295000A7FCDFF848E02B010EEB051CBCF80A5081
:102960002DB93846FEF7AAFC2846BDE8F087224676
:102970009CF80C40514630468CF80D400024CCF8B1
:1029800004900125ACF808804EF80340FFF79AFD4B
:102990003846FEF793FC2846BDE8F087B4080024CB
:1029A000012838B50C4608D9074D01222146FFF70A
:1029B000A5FC230700D1AB6C38BD044B00EB4002F3
:1029C00053F82250F1E700BF00000840AC31010885
:1029D000012816D90E4BCA0901F00F0182F001023D
:1029E00001EB021103EB4111D1F8003923F400137C
:1029F000C1F80039D1F8003943F08053C1F80039EB
:102A00007047044B00EB400053F82030E3E700BF71
:102A100000000840AC3101080369002BFCDA036CAC
:102A200044F2092102699BB242F001028B42026129
:102A300006D80369DA07FCD40369002BFCDA704777
:102A400003699B00FCD50269024B134043F000531D
:102A50000361F1E7FEFFFFDF836C13F0C00F14BFCB
:102A60000120002029B913F4407F00F0010018BFB5
:102A70000020704701282DE9F041154640F2D3802F
:102A8000B64C2046226CB64BB64E1340B64AB34203
:102A900018BF934204D002F58032934240F0B180D7
:102AA000A36823F00103A360002949D1E66846F03A
:102AB0004002E260A26B42F48032A263A74A9042D5
:102AC00000F01081A94A904200F0FE802046FFF7F6
:102AD000A3FFA74A26F47053A649126843F4A253F1
:102AE0008A42E360C0F0AD804FF4C052E36823F443
:102AF00070531343E360E3684FF4846243F00703C9
:102B0000E360D4F8003E23F00F03C4F8003E2261D6
:102B100023699B06FCD410232361236913F010035F
:102B2000FBD14FF0FF3262616260A361002D00F0C3
:102B30008180A368284643F02603A360BDE8F081A6
:102B4000E768A26C236DC3F3072313F0C00F02F0F4
:102B5000C00300F09E80802B00F0DB8027F0500641
:102B600012F0C00F46F00806E66040F0C3804FF058
:102B70001008A36B43F48033A363784B984200F0B2
:102B8000E4807A4B984200F0CE80204626F47056BE
:102B9000FFF742FFB8F1100F00F002814FF410531D
:102BA0001E43E660724B734A1B6893429CD2724A82
:102BB000934200F29180714A934280F09080704A73
:102BC000934200F2F180A2F5DB12A2F5BA529342D1
:102BD00000F2F080A2F5B712A2F55872934200F20B
:102BE000EC80684A934280F0EB80674A934280F021
:102BF000EA80664A93422CBF4FF460524FF4705201
:102C000074E74FF0E023D3F8F03DDA0700D500BEBB
:102C10004FF0E023D3F8F00D10F001008ED000BE8D
:102C20000020BDE8F0815A4A00EB400352F823002F
:102C3000044627E7A369012043F01003A361BDE820
:102C4000F0814D4B9A4247D84C4B9A4247D24C4B5D
:102C50009A4200F2A980A3F5DB13A3F5BA539A4276
:102C600000F2A880A3F5B713A3F558739A4200F2B7
:102C7000A480444B9A4280F0A380434B9A4280F058
:102C8000A280424B9A422CBF4FF460524FF47052D4
:102C90002CE7802B44D027F058064FF0080812F09C
:102CA000C00FE6603FF465AFA36B204626F4705674
:102CB00023F48033A363FFF7AFFEB8F1100F24D0E5
:102CC00046F41056E66016E7324AD2F8003123F097
:102CD0008063C2F80031F9E64FF4E05206E74FF4A2
:102CE000005203E72B4AD2F8003123F08053C2F898
:102CF0000031EBE6284E2046A36B3E4023F48033A0
:102D000046F00806A363FFF787FE46F4A056E66088
:102D1000F1E64FF01008214E3E4046F01006BEE7A7
:102D20004FF00808F7E71B4A26F47056D2F8003136
:102D300023F08063C2F80031FFF76EFEB8F1100F88
:102D400035D046F41056C6602CE7124AD2F800314E
:102D500023F08053C2F8003117E700BF000008409D
:102D60000000FFFF0000544F0000315500000440F8
:102D70006C0000240048E801DF9DA30100366E01CD
:102D80003FA44C01807306010024F400C0E1E4007C
:102D9000C431010800440258AFC3FFFF37FFC5FF2D
:102DA00046F4A056E660FDE64FF410529EE64FF45E
:102DB000A053F5E64FF4205298E64FF4305295E6D2
:102DC0004FF4405292E64FF450528FE6FEE700BFB8
:102DD0000B480C4A904203D0121A0B490FF048F9E5
:102DE0000A480B4A904203D0121A00210FF04EF904
:102DF00002F08EF90FF010F900F02AF8FEE700BF9C
:102E000000000024280600248C3401082806002431
:102E100058600024704700BF0D29844613D8084627
:102E200099B10CF1FF33442110B4084C01E014F8BF
:102E3000011F9A1C59700133A2EB0C029042F6D884
:102E40005DF8044B70470E20EBE77047DC3101085A
:102E500080B5234892B000F05DF80021204800F0D2
:102E60001BF901211F4800F06BFC1F4B01A900203A
:102E70001B881E4D1E4EADF80430FDF7E3FC00210B
:102E80004FF0FF30FEF71AFBFEF78AF9002814BF57
:102E90004FF47A74FA2401F053FF2A68034610486D
:102EA00017199B1AA34207D331782F6000F034F82A
:102EB000337883F0010333700020FEF7FDFE002815
:102EC000DDD002A940220020FEF710FF02A9024631
:102ED0000020FEF713FF0020FEF718FFCFE700BF2A
:102EE000DC090024000A00249C300108D4090024D5
:102EF000D809002404480023044A054903604361BB
:102F00000362C3630FF06CB8DC09002400000024E6
:102F1000152E0008704700BF253000F081BE00BFAD
:102F200010B540F203338EB000244FF60B7240F21E
:102F30000341ADF8083009A80123ADF81020ADF821
:102F400024202246ADF80C100094029907940C94AA
:102F5000CDE90544CDE90A4400F08AFC04A8012328
:102F600022460399009400F083FC09A800F066FD56
:102F700010B901200EB010BD04A800F05FFDA04202
:102F80000CBF022020460EB010BD00BF2DE9F0415D
:102F900003239AB0012700240646CDE914373B4BA2
:102FA000CDE9104340F20453CDE91647ADF848305F
:102FB000FFF7B6FFB842054625D0022845D040F6B7
:102FC0000132334B0DF12C081894ADF82C200B98DE
:102FD0001997CDF84A3000F0E3F810A906F13C004B
:102FE00001F0F2FC302003224FF07E5341460D9356
:102FF0000E93CDE90B02F26B06F1140000F04CFBCE
:103000001AB0BDE8F0811023214A06A906908DF878
:1030100028300DF12C081F4BCDF84A20079302945D
:10302000CDE91804CDE9080402A800F079FF0823CF
:10303000029A03A94046ADF80C508DF80E40049555
:1030400005930B9400F0ECF8C7E700200121104B2A
:103050000DF12C083A460094CDF84A304FF60B7328
:103060000C94ADF82C302346CDE9180140F601311F
:103070004046ADF818100699CDE90D4400F0F8FB74
:103080002146404600F0E6FCA7E700BF0402040426
:10309000040604030704010B2DE9F04704462DED57
:1030A000028B82B000294DD0012140F20112002391
:1030B0000091ADF804208DF80630364A0127364BD2
:1030C00004F10409354904F12908626040F20272F2
:1030D000A36040F60663E16004F1250AA4F8252008
:1030E000A4F82930278284F8277084F82B7001F027
:1030F000C5FF054601F028FE6946064650BB4DB3A4
:1031000004F130008DF8067001F040FF072D3CD12E
:1031100004F114052046FFF739FF284600F0F8FABD
:103120002846B0EE408A00F0EFFAD0ED007AF8EED3
:10313000677A88EE277A84ED0E7A02B0BDEC028BB6
:10314000BDE8F08740F2011300918DF80610ADF84C
:103150000430B2E704F1300001F018FF072D11D060
:103160004946204601F024F90EB9002DD0D1504631
:1031700000F07AFC404600F077FC04F1120000F009
:1031800079F9C5E7002EF2D1C2E74946204601F0A1
:103190000FF9BDE70508050905070506050A060636
:1031A00010B584B003460124ADF8040003A8ADF8BF
:1031B0000C30ADF80E4000F057FC214603A800F09B
:1031C0002FFD204601F0BEFD002103A800F028FDE0
:1031D000204601F0B7FD214603A800F021FD04B010
:1031E00010BD00BF10B5C2F3002384B00C46017CB3
:1031F0008DF80D2043EA4402FA2402238DF80C20B6
:1032000003AA009400F022FF18B10124204604B064
:1032100010BD04460A2001F095FD204604B010BD03
:10322000034670B543F8042B044684B007C983E80D
:103230000700A37983B91A210B461E22FA252374AD
:103240002046ADF80C20022303AA009500F0FEFEF4
:1032500028B1012004B070BD1B210B46EDE70A2008
:1032600001F070FD4FF4B85200950223ADF80C2028
:10327000204603AA217C00F0E9FE0028E9D10A20BB
:1032800001F060FD41F2027200950223ADF80C20BE
:10329000204603AA217C00F0D9FE0028D9D10A20BB
:1032A00001F050FD042200950223ADF80C202046C9
:1032B00003AA217C00F0CAFE0028CAD10A2001F02E
:1032C00041FD062200950223ADF80C20204603AAFA
:1032D000217C00F0BBFE0028BBD10A2001F032FDAA
:1032E00041F2082200950223ADF80C20204603AAE3
:1032F000217C00F0ABFE0028ABD10A20064601F08D
:1033000021FD0095022303AA217C2046ADF80C6024
:1033100000F09CFE00289CD1304601F013FD009582
:1033200022790C232046002A8DF80C3003AA4FF096
:10333000020314BF622142218DF80D10217C00F0A0
:1033400085FE002885D1304601F0FCFC2279D4E9C5
:1033500002310B43DBB20AB943F0400362790AB190
:1033600043F020030E22FA258DF80D3020460095FB
:1033700002238DF80C2003AA217C00F067FE0028B0
:103380007FF467AF0A2001F0DDFC102200950223D4
:10339000ADF80C20204603AA217C00F057FE00283F
:1033A0007FF457AF0A2001F0CDFC122100950223D3
:1033B000ADF80C1003AA217C204600F047FE00283F
:1033C0007FF447AF0A2001F0BDFC0122092120460D
:1033D000FFF708FF003818BF01203BE7F0B51023C6
:1033E00087B0234C012200250126002702A9204690
:1033F0000195CDE902234FF48052CDE9046708F02E
:1034000031F9642002F062FC02A94FF48052204698
:10341000CDE9046702261027CDE9026708F022F9FA
:103420000322102302A92046CDE90223002304220F
:10343000CDE904234FF4805208F014F940F232230E
:10344000042202A9019310232046CDE90223019A08
:10345000012305924FF48052049308F003F940F6DB
:103460000601204608F01EF9284607B0F0BD00BF4F
:10347000240A00241C4B00221C494FF0400C30B59C
:10348000054689B00220596007219A601A6201241A
:10349000DA620A224FF4006EDC6006922022CDE947
:1034A000000104200821CDE9020103201021CDE90B
:1034B000040108206946C3E904024FF4C072181DD4
:1034C000C3E906C24FF48052C3E909E208F0A0F84C
:1034D00038B92846FFF782FF003818BF012009B02D
:1034E00030BD204609B030BD200A002440410052C2
:1034F000614A0021D0B513688EB00A91002B40F0CC
:10350000B9805E4B01214FF683700C2411600221BB
:10351000D3F8D4200026032742F48052C3F8D420E5
:10352000D3F8D42002F480520092009AD3F8E0201D
:1035300042F01002C3F8E020D3F8E02002F01002BD
:103540000192019AD3F8E02042F04002C3F8E02053
:10355000D3F8E02002F040020292029AD3F8E02071
:1035600042F00802C3F8E020D3F8E02002F008029D
:103570000392039AD3F8E02042F48072C3F8E0206B
:10358000D3F8E02002F480720492049AD3F8E02089
:1035900042F08002C3F8E020D3F8E02002F080027D
:1035A0000592059AD3F8E02042F02002C3F8E0200B
:1035B000D3F8E02002F020020692069AD3F8E02029
:1035C00042F00402C3F8E020D3F8E0300C9403F09A
:1035D000040307930323079A0B93CDE9080108A975
:1035E000274803F019FC48F23712022308A925489E
:1035F0000C94CDE90823CDE90A6703F00DFC4CF2E9
:103600000372022308A920480C94CDE90823CDE9D0
:103610000A6703F001FC40F2FF62022308A91B487D
:103620000C94CDE90823CDE90A6703F0F5FB4FF6CA
:103630000C72022308A916480C94CDE90823CDE9A1
:103640000A6703F0E9FB4FF63F02022308A911487D
:103650000C94CDE90823CDE90A6703F0DDFB2022B5
:10366000022308A90A480C94CDE90A67CDE908238A
:1036700003F0D2FB0EB0D0BD1C0A00240044025857
:103680000010025800180258000C0258002002587E
:10369000001C02580014025830B5184C154685B06D
:1036A000046004F1080EEC460FC98EE80F00D4ED5B
:1036B000047AF5EEC07A8CE80F00F1EE10FA1ADD0C
:1036C000B7EE006A94ED057A27EE277AC6EE276AF0
:1036D00084ED0D7AC4ED0C6A6DB1204640F8185F98
:1036E00001F06AFA064903690020064A2162A262D3
:1036F000E36005B030BD012005B030BD580A00249C
:10370000002000300000003000680830704700BF23
:103710000068183001F052BA10B4074B4FF07E51D8
:1037200030240022032019619C60D8605DF8044BAE
:103730005961C3E906227047580A0024704700BF48
:10374000012910B506D0022915D051B1BDE81040AD
:1037500005F044BA0A463448344909F019FAE8B188
:10376000FEE7334B0A46334C334934481C6009F0BA
:103770000FFA68B1FEE701222C492B4809F008FA3C
:1037800000B1FEE72E49284809F024FAC0B1FEE74F
:103790002B492A4809F01EFA60B1FEE72849224861
:1037A00009F018FA00B1FEE726491F4809F0BAF9F6
:1037B00008B3FEE72449214809F0B4F9A8B1FEE7AF
:1037C0002049194809F0AEF900B1FEE7164809F0A2
:1037D00017FA024640B9164B164C174917481C6099
:1037E00009F0D6F968B1FEE7FEE7144809F008FAD7
:1037F0000028ABD0FEE70C4809F002FA0028A5D05B
:10380000FEE70F490D4809F0E5F900B1FEE70E4962
:103810000A4809F087F900B1FEE7084809F0F0F915
:10382000002893D0FEE700BF2C0D0024C000002428
:10383000C80F00243D370008A4000024900A00248B
:10384000280100248400002474000024014804F0AE
:10385000A3BC00BF70380024014804F09DBC00BF29
:1038600070380024014804F097BC00BF7038002471
:1038700010B592B0ADF804100180C9B2149C0B29A8
:10388000C460C0E901233FD090F801C0BCF10F0F24
:103890003AD8022A3FD0032A02D0012A00D00022BF
:1038A0000E92012B02D0022B18BF0023022C0F9383
:1038B0002CD0032C2AD0012C28D000230A291093C5
:1038C00027D85C4A02EB812202610A2914D8DFE87A
:1038D00001F0A39587796B5D4F4133250600564B68
:1038E000D3F8E01041F48061C3F8E010D3F8E03081
:1038F00003F480630C930C9B01230DA9104603FA7B
:103900000CF30D9303F088FA12B010BD0A2910943D
:10391000D7D90022D8E711220E92C2E7464BD3F83E
:10392000E01041F40071C3F8E010D3F8E03003F484
:1039300000730B930B9BDFE73F4BD3F8E01041F490
:103940008071C3F8E010D3F8E03003F480730A9379
:103950000A9BD1E7384BD3F8E01041F08001C3F85F
:10396000E010D3F8E03003F080030993099BC3E72C
:10397000314BD3F8E01041F04001C3F8E010D3F828
:10398000E03003F040030893089BB5E72A4BD3F8D7
:10399000E01041F02001C3F8E010D3F8E03003F06C
:1039A00020030793079BA7E7234BD3F8E01041F0D0
:1039B0001001C3F8E010D3F8E03003F010030693D1
:1039C000069B99E71C4BD3F8E01041F00801C3F8BF
:1039D000E010D3F8E03003F008030593059B8BE774
:1039E000154BD3F8E01041F00401C3F8E010D3F810
:1039F000E03003F004030493049B7DE70E4BD3F8FF
:103A0000E01041F00201C3F8E010D3F8E03003F019
:103A100002030393039B6FE7074BD3F8E01041F0D9
:103A20000101C3F8E010D3F8E03003F00103029382
:103A3000029B61E7000002580044025808B50121CA
:103A400043780069994089B203F0EEFB003818BF53
:103A5000012008BD01230A464178006903FA01F1FB
:103A600089B203F0E7BB00BF8378022B30B5044670
:103A70008FB037D0032B33D0012B31D000230A93E2
:103A8000E378012B2AD0022B28D000230B930023AC
:103A900020460C9301F0F8FF0546204601F0FCFF9C
:103AA00023780990082B13D8DFE803F01F3245581C
:103AB0006B7E91A40500594BD3F8E02042F480724C
:103AC000C3F8E020D3F8E03003F480730893089B38
:103AD00009A9284603F0A0F90FB030BD0B93D6E733
:103AE0000A93CDE711230A93CAE74C4B09A928464C
:103AF000D3F8E02042F00102C3F8E020D3F8E03030
:103B000003F001030093009B03F086F90FB030BD72
:103B1000424B09A92846D3F8E02042F00202C3F83C
:103B2000E020D3F8E03003F002030193019B03F09F
:103B300073F90FB030BD394B09A92846D3F8E020FE
:103B400042F00402C3F8E020D3F8E03003F00403AD
:103B50000293029B03F060F90FB030BD2F4B09A90F
:103B60002846D3F8E02042F00802C3F8E020D3F85A
:103B7000E03003F008030393039B03F04DF90FB00B
:103B800030BD264B09A92846D3F8E02042F01002A8
:103B9000C3F8E020D3F8E03003F010030493049B53
:103BA00003F03AF90FB030BD1C4B09A92846D3F8F1
:103BB000E02042F02002C3F8E020D3F8E03003F028
:103BC00020030593059B03F027F90FB030BD134B7D
:103BD00009A92846D3F8E02042F04002C3F8E020CB
:103BE000D3F8E03003F040030693069B03F014F98A
:103BF0000FB030BD094B09A92846D3F8E02042F0A8
:103C00008002C3F8E020D3F8E03003F0800307938C
:103C1000079B03F001F90FB030BD00BF004402580C
:103C200070B506460D4601F02FFF0446304601F000
:103C300033FF2A1E0146204618BF0122BDE870400E
:103C400003F0F8BA0023122270B586B0CDE9022342
:103C500004930368032B01D804230593061D841DD8
:103C6000304601F011FF0546304601F015FF0346CE
:103C700001A92846019303F0CFF8204601F004FF84
:103C8000034620461C4601F007FF01A903462046D3
:103C9000019303F0C1F806B070BD00BF634A03682A
:103CA000934210B58CB028D0614A934258D0614AF3
:103CB000934200F09480604A934201D00CB010BD52
:103CC0005E4C5F48D4F8E03043F00203C4F8E030C3
:103CD000D4F8E03003F002030A930A9BFFF7B2FF27
:103CE000D4F8F43043F08003C4F8F430D4F8F4305E
:103CF00003F080030B930B9BE0E7504C5148D4F842
:103D0000E03043F00203C4F8E030D4F8E03003F0D0
:103D100002030193019BFFF795FFD4F8E8300022DE
:103D20001F2043F400131146C4F8E830D4F8E830FB
:103D300003F400130293029BD4F8D83043F001033C
:103D4000C4F8D830D4F8D83003F001030393039BB0
:103D500001F0E6FF1F200CB0BDE8104002F01EB8D5
:103D6000364C3948D4F8E03043F08003C4F8E030F2
:103D7000D4F8E03003F080030493049BD4F8E030DF
:103D800043F00203C4F8E030D4F8E03003F002035B
:103D90000593059BFFF756FFD4F8E8300022212059
:103DA00043F480031146C4F8E830D4F8E83003F453
:103DB00080030693069BD4F8D83043F00103C4F87F
:103DC000D830D4F8D83003F001030793079B01F0F3
:103DD000A7FF21200CB0BDE8104001F0DFBF1B4859
:103DE000FFF730FF154B00224820D3F8E84011467A
:103DF00044F40004C3F8E840D3F8E84004F40004B5
:103E00000894089CD3F8D84044F00104C3F8D84083
:103E1000D3F8D83003F001030993099B01F080FF28
:103E200048200CB0BDE8104001F0B8BF005400407D
:103E300000580040005C0040001C0058004402583C
:103E400058120024D00F0024A81000248011002450
:103E50002DE9F0431A4B87B000254FF010099E461C
:103E6000EC46184BFF22E04667461A700EF1180622
:103E70000EF13004CDE90055CDE90255ADF80090C2
:103E8000BCE80F00CDE90455AEE80F009CE8030044
:103E90000095ADF800908EE80300B8E80F000FC65B
:103EA0009CE803000095ADF8009086E803000FCF72
:103EB0000FC49CE8030084E8030007B0BDE8F0836A
:103EC00024000024CD0F002410B5EFF3108472B647
:103ED000084B1A78120602D504B962B610BD1B78D9
:103EE000D82205485BB202FB0300143002F042FC0A
:103EF000F2E700BFCD0F0024D00F0024014804F0EA
:103F000031B800BF5C100024014804F02BB800BF9A
:103F100034110024014804F025B800BF0C1200241D
:103F20002DE9F0430F68D8243F4D85B007FB04F41A
:103F3000032F05EB0403036040DCCB680E46012B26
:103F40003CD84DD04FF0D808B646DFF8FC9008FBBF
:103F50000758BEE80F00C446ACE80F00DEF800309A
:103F60000DF1100ECCF80030D8F808C099E80F0019
:103F70000EE90F000EEB8703BCF1010F53F8103C64
:103F8000C8F88C3031D0BCF1020F42D0BCF1000F28
:103F900035D0317C8C34D823002201202C4403FB03
:103FA00007534900C3E92602C3F894102046C3E929
:103FB0002822C3E92A2203F0C7FD18B1012005B069
:103FC000BDE8F0830146204603F0D8FF0028F5D174
:103FD0000146204603F0FCFF003818BF0120EEE741
:103FE0000B7C103B672BADD9E8E701F045F80F4B90
:103FF00098420CBF0E4B0F4BC8F89030C9E701F048
:104000003BF80A4B98420CBF0B4B0C4BC8F8903056
:10401000BFE701F031F8054B98420CBF084B094B44
:10402000C8F89030B5E700BFD00F0024000E270776
:104030002D0FB0303211D0205F4390608A62E030A3
:10404000200BA0101A098010A03001082DE9F041C2
:10405000D0F8008082B00D4617461E4608F18C0449
:10406000204603F087FF2028FAD1D8F80C3073B926
:104070006D002046089C33463A46A9B2009403F0EE
:10408000B9FD003818BF012002B0BDE8F081089BDF
:1040900032463946204603F081FEF2E7044B1022F7
:1040A0001A7483F8E82083F8C02183F898227047B7
:1040B000D00F002430B5002395B04FF48071062254
:1040C00004460B9306921393CDE90C13CDE90E33FE
:1040D000CDE9113300F0D2FF07282BD004F11005F1
:1040E00041F2883206A9284604F0C4FE28B1012313
:1040F000184684F85C3015B030BD0222022306A9B0
:104100002846CDE9002310220123CDE90223002215
:104110004FF48003CDE9042305224FF0807306920B
:104120006A460F9341F2883305F010F80028DED17B
:1041300015B030BD0323012084F85C3015B030BDCC
:1041400070B50023A4B04FF080724FF48075044620
:10415000ADF806300D93CDE910320122CDE90E53B2
:10416000CDE91223CDE91433002943D0F02300F127
:10417000100508AEADF80630C02341F28832314652
:104180002846089304F076FE28B10123184684F8E7
:104190005C3024B070BD41F288320DF10601284632
:1041A00004F0D2FE03460028EFD105224FF48071BF
:1041B0001E93284616924FF080721B9321931F92F4
:1041C00002AA9FED1F7BCDE91C13CDE922338DEDB3
:1041D000027B9FED1D7B41F2883316A98DED047B98
:1041E0009FED1B7B8DED067B04F0B0FF0028CCD14A
:1041F00024B070BD00F1100508AE612341F2883291
:1042000031462846089304F035FE0028BDD141F21E
:1042100088320DF10601284604F014FF0028B4D1BD
:10422000BDF80630204623F0780343F04003ADF894
:104230000630FFF73FFF00289ED0A6E7AFF30080CF
:10424000000000000100000010000000010000005C
:1042500000000000000040002DE9F04F00234FF463
:10426000807501264FF0807804462DED028BABB0AF
:104270008DF8073013932193299314950E96CDF85A
:104280005C80CDE91533CDE91863CDE91A33CDE96A
:104290002253CDE92433CDE9273306231C9300F0C4
:1042A000EDFE072808D004F1100741F288321CA95E
:1042B000384604F0DFFD40B10123184684F85C3035
:1042C0002BB0BDEC028BBDE8F08F4FF0020A4FF02F
:1042D000020B4FF0050941F2883308AA1CA93846A1
:1042E000CDF89480CDF870909FED2D8BCDE908AB83
:1042F0004FF0000A4FF4800B8DED0A8BCDE90CAB2B
:1043000004F024FF0028D7D141F2883238460EA9A4
:1043100004F0B0FD0028CFD1402341F288320DF1E6
:10432000070138468DF8073004F00EFE0028C3D18F
:1043300041F288330EA902AA3846CDF83890CDF85C
:104340005C809FED197B8DED048BCDE906AB8DED87
:10435000027B04F0FBFE03460028ADD1CDF870903F
:104360004FF00109CDF894804FF00008219308AA7E
:1043700029931CA938462295CDE92333CDE927336B
:1043800041F288338DED0A8BCDE90CABCDE908897C
:1043900004F0DCFE002893D0304684F85C608FE7A0
:1043A000100000000100000040000000400000007C
:1043B0002DE9F043624CA3B00D46046000F05EFEB0
:1043C000072800F0A980286823466968AA6807C3FF
:1043D0001E46AB8926F8043B3046257B677B04F0FC
:1043E0002BFDE0B9574B012D4FF00108E06123612F
:1043F00014BF4FF480134FF40003C4E9058893FA07
:10440000A3F3B3FA83F34FF48079013BC4F824900B
:10441000C4E90B003046236204F0A2FC38B101224B
:10442000134684F85C20184623B0BDE8F083662369
:104430000B90139041F2883206A90693CDE90C90B7
:10444000CDE90E00CDE91100304604F013FD00283F
:10445000E5D1992341F2883206A93046069304F04B
:1044600009FD0028DBD105231C9019906A4614939E
:104470004FF08073219014A91D9341F288339FED72
:104480002A7BCDE91A90CDE91F008DED007B9FEDD1
:10449000287B30468DED027B9FED277B8DED047BE5
:1044A00004F054FE0028BAD129462046FFF748FE02
:1044B0000028B4D12046FFF7CFFE03460028AED136
:1044C000002FB0D1189330460027002606AA14A961
:1044D000CDF86890CDE91F33EB2314934FF440637C
:1044E0001B934FF4005317934FF440431C93A023A6
:1044F0001693062319934FF0805321934FF0407386
:10450000CDE906671D9304F099FE034600288AD082
:10451000434684F85C8086E701230322184684F82A
:104520005C2023B0BDE8F083000000000100000023
:10453000100000000100000000000000000040002A
:1045400030130024005000522DE9F04F8FB0414B42
:104550000024026800AF9A427C63C7E90944C7E9B6
:104560000B4403D03C37BD46BDE8F08F3A4B40F6D4
:1045700009213A48EB46D3F8D42007F11C0607F18D
:10458000220A4FF0020942F480424FF00308C3F8B8
:10459000D420D3F8D42002F48042BA60BA68D3F8A9
:1045A000E02042F04002C3F8E020D3F8E02002F01F
:1045B0004002FA60FA68D3F8E02042F02002C3F823
:1045C000E020D3F8E02002F020023A613A69D3F803
:1045D000E02042F01002C3F8E020D3F8E02002F01F
:1045E00010027A617A69D3F8E02042F00202C3F83F
:1045F000E020D3F8E030F86103F002033984BB61B6
:10460000174B7B60BB697B6853F8040F7B6001F03C
:104610003BFA7B680546186801F03EFA16F8013B44
:10462000786207F124012846C7F830807B63C7E928
:104630000A9402F0F1FB5645E5D100225C201146B8
:1046400001F06EFB5C2001F0A9FB3C37DD46BD4666
:10465000BDE8F08F00500052004402580A0A0909D0
:104660008C130024114B02689A4200D07047104A04
:1046700070B5D2F8D4300F4C23F4804304F11806FF
:10468000C2F8D43054F8040F01F0FEF90546206852
:1046900001F002FA0146284602F0FEFCB442F1D1D4
:1046A0005C20BDE8704001F087BB00BF00500052A5
:1046B000004402588C130024014804F04BBE00BF94
:1046C00040130024084B1A1D981D03F1080110B473
:1046D0009C1C9A6603F10A02C3E91834C3E91B0162
:1046E0005DF8044B5A6770473013002438B50368EF
:1046F00071B9026A00F1280500F5AC74012A0CBFFB
:10470000002140218BBB1D4B5722C0F858310DE0D2
:10471000426A00F1C00500F5E874012A0CBF0021CF
:104720004021EBB1164B5A22C0F8D031002320466D
:10473000C4E901214FF480524FF4806163626261E9
:104740004FF48042C4E903314FF48073C4E9062377
:104750004FF40033236201F095FC58B1FFBEFEE731
:10476000084B5822C0F8D031E0E7074B5922C0F877
:104770005831DBE7C5E92044A56338BD100002408D
:104780007000024028000240580002402DE9F0432A
:10479000821D05468BB0031D05F10A010830CDE9E5
:1047A000052305F10C02AB69CDE907010992002B45
:1047B0003DD0EB69B3FA83F84FEA5818012302227F
:1047C00005AE0AAF4FF006090393CDE9012356F871
:1047D000044B2B792278934216D02B68F3B1012B2E
:1047E00002D1F2B10A230493204601F055F90346A1
:1047F0002046009301F048F9694602F00DFBBE42E5
:10480000E5D10BB0BDE8F083697963789942E4D1D2
:10481000B8F1000FF3D02B68002BE0D1CDF8109049
:10482000E2E76378022B14BF0A230823DBE74FF08B
:104830000108C3E7534A0368934230B505468BB07D
:1048400055D02032934252D04F4A934204D0203266
:10485000934201D00BB030BD4C4C4D48D4F8E03001
:1048600043F00103C4F8E030D4F8E03003F0010372
:104870000593059BD4F8E03043F00803C4F8E0301A
:10488000D4F8E03003F008030693069BD4F8E03038
:1048900043F04003C4F8E030D4F8E03003F04003C4
:1048A0000793079BD4F8F03043F40003C4F8F030CA
:1048B000D4F8F03003F400030893089BFFF766FF79
:1048C000D4F8D830296843F001032F4A3048C4F89F
:1048D000D830891AD4F8D83018BF012103F0010369
:1048E0000993099B0BB0BDE83040FFF7FFBE274C92
:1048F0002848D4F8E03043F00103C4F8E030D4F89D
:10490000E03003F001030093009BD4F8E03043F063
:104910001003C4F8E030D4F8E03003F01003019342
:10492000019BD4F8E03043F04003C4F8E030D4F801
:10493000E03003F040030293029BD4F8F03043F4DC
:104940008003C4F8F030D4F8F03003F4800303930C
:10495000039BFFF71BFFD4F8D830296843F001030D
:10496000084A0C48C4F8D830891AD4F8D83018BF8F
:10497000012103F001030493049B0BB0BDE8304018
:10498000FFF7B4BE04580140045C014000440258E3
:1049900004160024A8130024014801F0EBBE00BF58
:1049A00000150024014801F0E5BE00BF7815002481
:1049B000014801F0DFBE00BF5C170024014801F090
:1049C000D9BE00BFD41700242DE9F04F0C684FF476
:1049D0001776754F87B004FB06F6012C07EB060A25
:1049E000C0F800A000F3A0800D468E464FF00008EE
:1049F000D44669A3D3E9002369A1D1E90001CDE937
:104A0000022306ABCAF8508203EB8403CDE904010C
:104A100053F810BC53F8083CCAE992880193BEE8E9
:104A20000F00ACE80F00BEE80F00ACE80F00019BE0
:104A30009EE80300CAF828B0CAF8C0308CE803002A
:104A40002B69042B0CD8DFE803F0737D87910300FA
:104A50004FF41773554A03FB04739A64C3F8E020BC
:104A6000AA692B6A002A43D0002B4FF4177308BFA2
:104A7000022203FB047318BF0322DA6201221A63C5
:104A8000EA696B6A002A40D1191E4FF4177318BFE8
:104A9000012103FB0473C3E931126B69022B05D8B2
:104AA000434A12F80380434A52F823904FF4177395
:104AB00006F128004246494603FB047400233844AB
:104AC00063646363E365C4F8DC30C4F8CC30C4F8D5
:104AD000F430C4E90F33C4E91533C4E93533C4E90C
:104AE0003B33022306F0D8FC002849D0FFBEFEE786
:104AF000191E4FF4177318BF012103FB0473C3E998
:104B00000B12EA696B6A002ABED0002B4FF41773B0
:104B100008BF022203FB047318BF0322C3F8C4209A
:104B20000122C3F8C820B8E7012007B0BDE8F08F24
:104B30004FF417734FF4FA5203FB04739A64C3F8EB
:104B4000E0208DE74FF417734FF47A5203FB0473A0
:104B50009A64C3F8E02083E74FF417734FF4FA42E6
:104B600003FB04739A64C3F8E02079E74FF41773EA
:104B70004BF6803203FB04739A64C3F8E0206FE7BE
:104B800006F1C000022342464946384406F084FC40
:104B90000028CAD0FFBEFEE704580140045C014073
:104BA00024580140245C0140A81300240077010030
:104BB000EC310108F03101080068704703681B6997
:104BC000042B05D8044A02EB830393ED000A7047D7
:104BD0009FED020A704700BFFC31010800803B478F
:104BE000704700BF08B501F05FF8BDE8084001F06C
:104BF0005FB900BF064808B503680BB102F01EFBA1
:104C0000044803681BB1BDE8084003F0C5BA08BDFD
:104C100080420024783C0024064808B503680BB1A4
:104C200002F00CFB044803681BB1BDE8084003F028
:104C3000B3BA08BD80420024783C0024064808B579
:104C400003680BB102F0FAFA044803681BB1BDE82F
:104C5000084003F0A1BA08BD80420024783C00243B
:104C6000364BDA6A520062D59A6A9A6A9A6A9B6AE5
:104C7000180600D500BE314B9B6A990600D500BED0
:104C80002E4B9B6ADA0600D500BE2C4B9B6A1B0795
:104C900000D500BE294B9B6A980700D500BE274B64
:104CA0009B6AD90700D500BE244B9B6A1A0400D525
:104CB00000BE224B9B6A9B0400D500BE1F4B9B6A23
:104CC000D80400D500BE1D4B9B6A190500D500BE57
:104CD0001A4B9B6A5A0500D500BE184B9B6A9B0570
:104CE00000D500BE154B9B6AD80500D500BE134BFE
:104CF0009B6A990100D500BE104B9B6ADA0100D572
:104D000000BE0E4B9B6A1B0300D500BE0B4B9B6A7B
:104D1000580300D500BE094B9B6A990300D500BE1D
:104D2000064B9B6ADA0306D400BE00BEFEE7DB6AD0
:104D30009B07FAD5F8E700BEF6E700BF00ED00E0FC
:104D400000F0BEBF00F0C2BF0A4B9B6803F178437E
:104D5000B3F5003F0BD3084B986848B19868012819
:104D600006D09868022803D09B6803207047012072
:104D7000704700BF00ED00E0000080382DE9F041F1
:104D8000CEB004464C2200210AA80DF07FF9202263
:104D9000002102A80DF07AF9BC2200211EA80DF016
:104DA00075F9022003F0F4FE2368012B4FF0000395
:104DB00054D0534A02250193C820D16A514B21F0A7
:104DC0000101D162D26A02F0010201929A6942F4B1
:104DD00040429A619B6903F440430193019B494A15
:104DE00093699B04FCD548490224002201268B6A62
:104DF00004274FF0080823F0030323438B620523A5
:104E000016900AA818934FF48033109617941994AB
:104E10001597CDF86880CDE91B222122CDE91344F6
:104E2000CDE90A2304F09EFB00B1FEE73F220323F5
:104E3000294602A8CDE9022300220823CDE9042354
:104E400040224023CDE9062340234FF48062CDE980
:104E5000082304F0B5FE0346B8B1FEE7294A04254D
:104E60000093F0209169264B41F440419161926991
:104E700002F440420092DA6A42F00102DA62DB6A2E
:104E800003F001030093009BA9E720224FF4805117
:104E900025934FF440152B9280222D931EA830931A
:104EA000269135914FF48071249234920C223394E0
:104EB000439140F2271120921022CDF884802A9746
:104EC0001F96CDE92E34CDE93B334FF48033CDE945
:104ED00022463193002446930623CDE93E4527938D
:104EE0004FF48063094C2C931E94CDE9281205F0F1
:104EF000C3F800B1FEE703F071FE4EB0BDE8F081EB
:104F00000004005800480258004402580F130F03D1
:104F100070B584B0012400F079FF4FF480764FF033
:104F20004052194B68460025ADF800400396CDE984
:104F3000012300F089FF19224FF0404368468DF8A5
:104F4000082001938DF80F40ADF80D608DF80140F9
:104F50008DF80A5000F078FF02230B2268468DF886
:104F60000F508DF801304FF062538DF808200193F7
:104F7000ADF80D408DF80A4000F066FF042000F007
:104F800053FF04B070BD00BF0E00010330B50D46E5
:104F9000044685B0D1E9000184E8030000F054FE26
:104FA000AB79A3B30AF006FAFEF752FF08F06CFEE5
:104FB00009F0F8FE2B798BBB6B799BB1BFF34F8F58
:104FC000BFF36F8F2A4B0022C3F85022BFF34F8FDD
:104FD000BFF36F8F5A6942F400325A61BFF34F8FAB
:104FE000BFF36F8F4FF0FF32002300240025694686
:104FF000204802928DF80C30CDE9004509F064FAA2
:105000001C4809F0C9FA08F06FFA05B030BD204617
:10501000FFF7B4FE2046FFF77BFFC3E7144C0023E5
:10502000C4F88430BFF34F8FD4F8801043F6E07E8D
:10503000C1F34E3CC1F3C9014FEA4C1C0CEA0E000F
:105040000B4640EA8372013BC4F860225A1CF8D137
:10505000ACF1200C1CF1200FF0D1BFF34F8F63692E
:1050600043F480336361BFF34F8FBFF36F8FA3E7C8
:1050700000ED00E06018002404F0D2BE1C4B9B68D9
:1050800003F17842B2F5003F25D3B3F5803F20D33A
:1050900003F16042B2F5003F1FD303F15C42B2F569
:1050A000002F1CD303F17042B2F5902F19D303F1F6
:1050B0004842B2F5803F16D303F18042B2F1806FCF
:1050C00013D303F1E043B3F5000F2CBF08200720F2
:1050D000704701207047002070470220704703206E
:1050E000704704207047052070470620704700BFB6
:1050F00000ED00E003480023034A044903600CF07C
:105100006FBF00BF6018002400000024E14B0008BE
:1051100010B4204C0022204B83B0D4F888101F48D4
:1051200041F47001C4F8881019681D4C41F0010168
:1051300019601A61196808401A4918609A61DA61A1
:105140001A629A62DA621A635A639A63DA631A64B9
:105150005A64186820F4802018601A66D3F8DC209E
:1051600042F06042C3F8DC20D3F8DC300193019BAD
:1051700023681940B1F1005F03D20B4B0122C3F841
:105180000821044B4FF000629A6003B05DF8044BB5
:10519000704700BF00ED00E0004402587FEDF6EAE2
:1051A0000010005C0000FFFF00800051704700BF4E
:1051B0000020704770B50446074E0D463046214624
:1051C00007F0C2FC304607F0C7FC044B20462946D6
:1051D0001B689847002070BD900A002464380024A2
:1051E00070B50446074E0D463046214607F0ACFC2C
:1051F000304607F0B1FC044B204629461B6898470F
:10520000002070BD2C0D00246838002400220949BC
:10521000094808B507F08EFC0849074807F094FCD8
:10522000074B1A680AB1002008BD064A00201A6020
:1052300008BD00BF64280024900A002464180024DC
:1052400064380024AD51000800220949094808B516
:1052500007F070FC0849074807F076FC074B1A680E
:105260000AB1002008BD064A00201A6008BD00BF30
:10527000643000242C0D00246420002468380024AD
:10528000AD51000820280AD0212806D1094B186802
:105290009A889B7908608A808B7100207047054B43
:1052A0000868B1F804C08A7918600020A3F804C027
:1052B0009A7170479400002420280AD0212806D132
:1052C000094B18689A889B7908608A808B71002046
:1052D0007047054B0868B1F804C08A79186000204F
:1052E000A3F804C09A7170479C0000240020704706
:1052F0004B4A036830B593428BB04FF00004CDE9C0
:105300000444CDE90644089404D0464A934249D067
:105310000BB030BD444D4FF4C0524448D5F8E03096
:1053200043F00103C5F8E030D5F8E03003F00103A5
:1053300000930223009904A9CDE904230A230893CA
:1053400001F06AFD4FF40072002304A93748069467
:10535000CDE9042301F060FDD5F8D830224621467E
:1053600043F000636220C5F8D830D5F8D83003F098
:1053700000630193019B00F0D3FC622000F00EFD5E
:1053800022462146632000F0CBFC632000F006FD9E
:1053900022462146652000F0C3FC652000F0FEFC9B
:1053A0000BB030BD204D4FF4404204A9D5F8E03099
:1053B00043F00203C5F8E030D5F8E03003F0020313
:1053C0000293022302981A48CDE904230C23089380
:1053D00001F022FDD5F8D830224621464A2043F07C
:1053E0000073C5F8D830D5F8D83003F000730393B4
:1053F000039B00F095FC4A2000F0D0FC2246214699
:105400004B2000F08DFC4B2000F0C8FC22462146CA
:105410004D2000F085FC4D2000F0C0FC0BB030BDED
:1054200000000840000004400044025800000258F8
:105430000004025800F57171D0F8040407F0F8BBBD
:10544000C1EBC10300EB8303D0F80404D3F80822B6
:1054500007F01CBCC1EBC10300EB8303D0F80404CC
:105460009A6C07F051BC00BFD0F8040407F0F0BC00
:10547000C16810B5044619B1022900D0FEE7012128
:10548000D4F8040407F0CEFCD4F80404BDE81040BE
:1054900007F0A0BC10B50446D0F8040407F0C6FC21
:1054A0002268D2F8003E43F00103C2F8003E236AAE
:1054B00023B1034A136943F00603136110BD00BF13
:1054C00000ED00E0D0F8040407F0BABCD0F8040402
:1054D00007F0CEBCD0F8040407F0C8BCD0F8040430
:1054E00007F0C8BCD0F8040407F0C6BC70B5067855
:1054F00004461EB1012E30D0002070BD304D09236E
:10550000304AC5F80404C0F8985228462E612E632C
:10551000C5E9002302230222EB600023C5E906232C
:1055200000220023C5E9082301220123C5E90A233B
:1055300002F07AFD00B1FEE78021284603F008FB67
:1055400031464022284603F0D9FA8022012128461C
:1055500003F0D4FA2678012ECED11B4D09221B4B25
:1055600000216A6002222B600223C5F80444284609
:10557000EB600023C4F898522961C5E90623002294
:105580000023C5E90823C5E90C2301220023C5E94E
:105590000A2302F049FD044600B1FEE74FF4007112
:1055A000284603F0D5FA21468022284603F0A6FAC1
:1055B0004FF4BA723146284603F0A0FA9CE700BFC8
:1055C0007038002400000840783C002400000440AB
:1055D000D0F8980208B502F0BDFD032802D8024BAE
:1055E000185C08BD022008BD203201089446D0F89E
:1055F00098021A4608B5634603F032F9032802D828
:10560000024B185C08BD022008BD00BF2032010813
:10561000D0F8980208B503F061F9032802D8024BCC
:10562000185C08BD022008BD20320108D0F898029D
:1056300008B503F0E3F9032802D8024B185C08BD53
:10564000022008BD20320108D0F8980208B503F006
:1056500019FA032802D8024B185C08BD022008BDC5
:10566000203201080A06D0F8983206D4C1EBC101F5
:1056700003EB810191F8FE01704701F07F01C1EB5E
:10568000C10103EB810191F83E007047D0F8980208
:1056900008B503F0CFF8032802D8024B185C08BD08
:1056A000022008BD20320108D0F8980208B503F0A6
:1056B0007DF9032802D8024B185C08BD022008BD02
:1056C00020320108D0F8980208B503F03DF903280C
:1056D00002D8024B185C08BD022008BD2032010828
:1056E000D0F8980203F058B9122301480B80704794
:1056F000F0000024122301480B807047DC000024D6
:10570000042301480B8070470401002410B5044CA9
:105710000A460448214607F02FFE204610BD00BF70
:10572000804000242432010810B5044C0A46044885
:10573000214607F021FE204610BD00BF8040002416
:105740003432010810B5044C0A460448214607F0DB
:1057500013FE204610BD00BF8040002448320108DF
:1057600010B5044C0A460448214607F005FE2046C1
:1057700010BD00BF804000245432010810B5044C15
:105780000A460448214607F0F7FD204610BD00BF39
:105790008040002464320108042301480B807047D4
:1057A0000401002410B5044C0A460448214607F0C1
:1057B000E3FD204610BD00BF8040002424320108D4
:1057C000464A4FF01A0CD2F80008D2F80838A1F86F
:1057D00000C0C31801D142487047180FB3F1204FE1
:1057E000D2F804184FF0000C3D4A2CBF373030304F
:1057F00082F803C04FF0000C9070C3F3036082F88E
:1058000005C04FF0000C092882F807C04FF0000CCB
:105810008CBF3730303082F809C04FF0000C107167
:10582000C3F3035082F80BC04FF0000C092882F834
:105830000DC08CBF373030309071C3F3034009285E
:105840008CBF373030301072C3F3033009288CBF5F
:10585000373030309072C3F3032009288CBF3730C3
:1058600030301073C3F3031003F00F0309288CBF0B
:1058700037303030092B90734FF0000094BF303335
:105880003733B1F1204FD07313744FEA11734FF0D7
:1058900000002CBF37333033507400209374C1F3B1
:1058A0000363D0740020092B50754FF000008CBFAB
:1058B00037333033D0751375C1F303530848092BC0
:1058C0008CBF373330339375C1F30343092B94BF37
:1058D00030333733137600235376704700E0F11FDF
:1058E00008010024464A4FF01A0CD2F80008D2F8FA
:1058F0000838A1F800C0C31801D142487047180FFA
:10590000B3F1204FD2F804184FF0000C3D4A2CBFE1
:105910003730303082F803C04FF0000C9070C3F382
:10592000036082F805C04FF0000C092882F807C018
:105930004FF0000C8CBF3730303082F809C04FF088
:10594000000C1071C3F3035082F80BC04FF0000C31
:10595000092882F80DC08CBF373030309071C3F306
:10596000034009288CBF373030301072C3F3033046
:1059700009288CBF373030309072C3F303200928D8
:105980008CBF373030301073C3F3031003F00F03B4
:1059900009288CBF37303030092B90734FF000004E
:1059A00094BF30333733B1F1204FD07313744FEAC3
:1059B00011734FF000002CBF373330335074002088
:1059C0009374C1F30363D0740020092B50754FF01A
:1059D00000008CBF37333033D0751375C1F30353D8
:1059E0000848092B8CBF373330339375C1F3034319
:1059F000092B94BF30333733137600235376704727
:105A000000E0F11F0801002410B5044C0A460448C8
:105A1000214607F0B1FC204610BD00BF80400024A5
:105A20005432010810B5044C0A460448214607F0D8
:105A3000A3FC204610BD00BF80400024483201086E
:105A4000D0F8C00207F00ABDD0F8C00207F01EBDB2
:105A5000D0F8C00207F026BD704700BFD0F8C002E2
:105A600007F00CBDD0F8C00207F00CBDD0F8D00391
:105A700008B501F0A3FF032802D8024B185C08BD4B
:105A8000022008BD78320108024B027853F8220048
:105A9000704700BF9C320108024B427833F8120075
:105AA000704700BF7C3201088CB00A2814D8DFE8A8
:105AB00000F01523313F4D5B6977859306004D4B10
:105AC000D3F8E02042F48062C3F8E020D3F8E0305D
:105AD00003F480630B930B9B0CB07047454BD3F8DA
