:020000040800F2
:10000000000002201914000815140008E5880008F3
:10001000151400081514000815140008000000004D
:10002000000000000000000000000000151400089F
:100030001514000800000000151400086988000865
:1000400015140008151400081514000815140008EC
:1000500015140008151400081514000815140008DC
:100060001514000815140008151400087184000800
:100070007D84000815140008898400089584000810
:1000800051DD0008A17900081514000815140008B6
:10009000151400081514000815140008151400089C
:1000A000151400081514000815140008151400088C
:1000B00069D1000875D1000881D10008D579000800
:1000C00015140008E179000815140008D9C90008C2
:1000D000E5C9000885DB0008B1DB0008E5DB0008A6
:1000E000151400081514000800000000151400087D
:1000F000151400081514000815140008151400083C
:1001000015140008151400088DD10008F1C9000865
:1001100019DC00084DDC000815140008151400084F
:10012000151400081514000815CA000849CA00086B
:1001300085DD0008151400081514000815140008C2
:1001400000000000000000000000000000000000AF
:1001500015140008151400081514000881DC0008A7
:10016000ED79000815140008798800089D880008BA
:1001700015140008C188000815140008151400089B
:100180001514000815140008B5DC0008E9DC0008A7
:10019000FDC9000809CA0008151400081514000854
:1001A000151400081514000815140008151400088B
:1001B0009181000815140008151400081514000892
:1001C0001514000815140008257300083173000881
:1001D000151400083D7300081514000815140008D4
:1001E000151400081514000815140008151400084B
:1001F000151400081514000815140008151400083B
:10020000151400081514000815140008151400082A
:10021000151400081514000815140008151400081A
:10022000151400081514000815140008000000003B
:10023000151400081514000800000000151400082B
:1002400015140008151400081514000815140008EA
:1002500015140008151400081514000815140008DA
:1002600015140008151400081514000815140008CA
:1002700015140008151400081DDD0008000000001A
:1002800015140008151400081514000800000000DB
:08029000000000001514000835
:1002A00010B5054C237833B9044B13B10448AFF3B0
:1002B00000800123237010BD000500240000000011
:1002C000F826010808B5034B1BB103490348AFF3F7
:1002D000008008BD0000000004050024F826010885
:1002E00001F0FF01102A2BDB10F0070F08D010F8E7
:1002F000013B013A8B422DD010F0070F42B3F6D1EB
:10030000F0B441EA012141EA014122F007047FF003
:1003100000070023F0E80256083C85EA010586EA5A
:10032000010685FA47F5A3FA87F586FA47F6A5FA96
:1003300087F68EB9EED1F0BC01F0FF0102F00702A2
:1003400032B110F8013B013A83EA010313B1F8D14D
:100350000020704701387047002D06BF354603382E
:10036000073815F0010F07D1013015F4807F02BF67
:10037000013015F4C03F0130F0BC0138704700BFB8
:1003800081F0004102E000BF83F0004330B54FEA46
:1003900041044FEA430594EA050F08BF90EA020FB3
:1003A0001FBF54EA000C55EA020C7FEA645C7FEA46
:1003B000655C00F0E2804FEA5454D4EB5555B8BF69
:1003C0006D420CDD2C4480EA020281EA030382EADA
:1003D000000083EA010180EA020281EA0303362D6C
:1003E00088BF30BD11F0004F4FEA01314FF4801C3F
:1003F0004CEA113102D0404261EB410113F0004F51
:100400004FEA03334CEA133302D0524263EB430307
:1004100094EA050F00F0A780A4F10104D5F1200EA5
:100420000DDB02FA0EFC22FA05F2801841F1000100
:1004300003FA0EF2801843FA05F359410EE0A5F1D4
:1004400020050EF1200E012A03FA0EFC28BF4CF005
:10045000020C43FA05F3C01851EBE37101F00045BB
:1004600007D54FF0000EDCF1000C7EEB00006EEBC8
:100470000101B1F5801F1BD3B1F5001F0CD3490852
:100480005FEA30004FEA3C0C04F101044FEA4452A9
:1004900012F5800F80F09A80BCF1004F08BF5FEA30
:1004A000500C50F1000041EB045141EA050130BD10
:1004B0005FEA4C0C404141EB0101013C28BFB1F522
:1004C000801FE9D291F0000F04BF01460020B1FA6D
:1004D00081F308BF2033A3F10B03B3F120020CDA40
:1004E0000C3208DD02F1140CC2F10C0201FA0CF01E
:1004F00021FA02F10CE002F11402D8BFC2F1200C83
:1005000001FA02F120FA0CFCDCBF41EA0C01904038
:10051000E41AA2BF01EB0451294330BD6FEA040481
:100520001F3C1CDA0C340EDC04F11404C4F120026C
:1005300020FA04F001FA02F340EA030021FA04F37E
:1005400045EA030130BDC4F10C04C4F1200220FAD5
:1005500002F001FA04F340EA0300294630BD21FA13
:1005600004F0294630BD94F0000F83F4801306BFD9
:1005700081F480110134013D4EE77FEA645C18BFCD
:100580007FEA655C29D094EA050F08BF90EA020F64
:1005900005D054EA000C04BF1946104630BD91EA5C
:1005A000030F1EBF0021002030BD5FEA545C05D15F
:1005B0004000494128BF41F0004130BD14F580049E
:1005C0003CBF01F5801130BD01F0004545F0FE4112
:1005D00041F470014FF0000030BD7FEA645C1ABF47
:1005E000194610467FEA655C1CBF0B46024650EA7E
:1005F000013406BF52EA033591EA030F41F40021AA
:1006000030BD00BF90F0000F04BF0021704730B52F
:100610004FF4806404F132044FF000054FF0000104
:1006200050E700BF90F0000F04BF0021704730B5C5
:100630004FF4806404F1320410F0004548BF40429A
:100640004FF000013EE700BF42004FEAE2014FEAEF
:1006500031014FEA02701FBF12F07F4393F07F4FCA
:1006600081F06051704732F07F4208BF704793F0CD
:100670007F4F04BF41F40021704730B54FF46074E0
:1006800001F0004521F000411CE700BF50EA0102E3
:1006900008BF704730B54FF000050AE050EA01028C
:1006A00008BF704730B511F0004502D5404261EBFC
:1006B00041014FF4806404F132045FEA915C3FF43D
:1006C000D8AE4FF003025FEADC0C18BF03325FEADA
:1006D000DC0C18BF033202EBDC02C2F1200300FA8B
:1006E00003FC20FA02F001FA03FE40EA0E0021FAB0
:1006F00002F11444BDE600BF53B94AB9002908BF4E
:1007000000281CBF4FF0FF314FF0FF3000F074B9EC
:10071000ADF1080C6DE904CE00F006F8DDF804E058
:10072000DDE9022304B070472DE9F047089D044637
:100730008E46002B4DD18A42944669D9B2FA82F294
:1007400052B101FA02F3C2F1200120FA01F10CFAD0
:1007500002FC41EA030E94404FEA1C48210CBEFB08
:10076000F8F61FFA8CF708FB16E341EA034306FB91
:1007700007F199420AD91CEB030306F1FF3080F020
:100780001F81994240F21C81023E63445B1AA4B26D
:10079000B3FBF8F008FB103344EA034400FB07F70F
:1007A000A7420AD91CEB040400F1FF3380F00A8150
:1007B000A74240F207816444023840EA0640E41B45
:1007C00000261DB1D4400023C5E900433146BDE8F1
:1007D000F0878B4209D9002D00F0EF800026C5E993
:1007E000000130463146BDE8F087B3FA83F6002EAB
:1007F0004AD18B4202D3824200F2F980841A61EB23
:10080000030301209E46002DE0D0C5E9004EDDE740
:1008100002B9FFDEB2FA82F2002A40F09280A1EB28
:100820000C014FEA1C471FFA8CFE0126200CB1FB7D
:10083000F7F307FB131140EA01410EFB03F0884276
:1008400008D91CEB010103F1FF3802D2884200F203
:10085000CB804346091AA4B2B1FBF7F007FB101195
:1008600044EA01440EFB00FEA64508D91CEB040433
:1008700000F1FF3102D2A64500F2BB800846A4EB8E
:100880000E0440EA03409CE7C6F12007B34022FA79
:1008900007FC4CEA030C20FA07F401FA06F31C43A8
:1008A000F9404FEA1C4900FA06F3B1FBF9F8200CB5
:1008B0001FFA8CFE09FB181140EA014108FB0EF0FB
:1008C000884202FA06F20BD91CEB010108F1FF3A4B
:1008D00080F08880884240F28580A8F10208614457
:1008E000091AA4B2B1FBF9F009FB101144EA014165
:1008F00000FB0EFE8E4508D91CEB010100F1FF3410
:100900006CD28E456AD90238614440EA0840A0FBA7
:100910000294A1EB0E01A142C846A64656D353D07D
:100920005DB1B3EB080261EB0E0101FA07F722FAA1
:1009300006F3F1401F43C5E9007100263146BDE8CA
:10094000F087C2F12003D8400CFA02FC21FA03F32D
:10095000914001434FEA1C471FFA8CFEB3FBF7F0AE
:1009600007FB10360B0C43EA064300FB0EF69E42D3
:1009700004FA02F408D91CEB030300F1FF382FD26C
:100980009E422DD9023863449B1B89B2B3FBF7F614
:1009900007FB163341EA034106FB0EF38B4208D9ED
:1009A0001CEB010106F1FF3816D28B4214D9023E2E
:1009B0006144C91A46EA004638E72E46284605E74C
:1009C0000646E3E61846F8E64B45A9D2B9EB02081D
:1009D00064EB0C0E0138A3E74646EAE7204694E7AD
:1009E0004046D1E7D0467BE7023B614432E73046E0
:1009F00009E76444023842E7704700BF00207047AF
:100A00000020704703466D2201481A80704700BFDE
:100A10004000002403460A2201481A80704700BFA4
:100A2000B000002410B5D0F8904294B194F89231FF
:100A3000012B01D0002010BDD0F8943294F893011E
:100A40001B6998470023184684F8923184F8D33103
:100A500010BD022010BD00BF38B5D0F8905215B1BE
:100A60000A4B1B780BB9002038BD8121044600F0E9
:100A7000E3FBB5F89021064B8121043220461B8808
:100A80002A4400F025FC002038BD00BF1C050024CE
:100A9000BA00002470B5D0F89042002C39D01E4B1B
:100AA0001B78002B35D0B4F890110546D0F894325D
:100AB00002220029194E5B690BBFC4210021C82006
:100AC0000420A4F89011C42120449847B4F8902140
:100AD000308004322244BFF34F8F68B1411E02F1CF
:100AE00020030F4821F01F0119448B42C0F86822EF
:100AF0001A4603F12003F8D1BFF34F8FBFF36F8F76
:100B0000B4F890218121338828460432224400F031
:100B1000DFFB002070BD00BF1C050024BA000024CC
:100B200000ED00E0F0B5D0F8903283B00025ADF8CC
:100B30000650002B00F085800C7806460F4614F016
:100B400060041FD0202C07D039463046022405F01F
:100B5000CFF8204603B0F0BD4978012930D0812973
:100B6000F2D103F29313294640222C46184610F086
:100B7000DFFBFA8801463046402A28BF402205F0B4
:100B8000EDF8E6E74D780B2DDED801A252F825F0FE
:100B90002D0C0008490B0008490B0008490B000800
:100BA000490B0008490B0008150C0008490B000808
:100BB000490B0008490B0008030C0008EB0B000868
:100BC000FA88002A41D03F2A83F892113FD8D1B247
:100BD00083F8D3113046BC8803F29311240A83F8BA
:100BE000D441002405F0D2F8B3E790F87422032A28
:100BF000AAD18A78012A1A602CD0214B00221A70BF
:100C0000A7E790F87422032A9ED10122194605F025
:100C1000A5F89EE74B881B0A212B9AD1CA8819494F
:100C2000092A28BF092205F099F892E790F8743252
:100C3000032B89D102220DF106012C4605F08EF816
:100C400087E70224204603B0F0BD144681E7402127
:100C50000A46BDE70A491D1DC0270A7000210A4A3D
:100C60002846A3F8901117804FF4C47210F060FB6F
:100C70003B462A468121304600F02AFB69E700BF47
:100C80001C05002452000024BA00002438B5044694
:100C9000812100F0C3FA0025094AD4F89032E562B8
:100CA000157053B1D4F8943228465B689847D4F84D
:100CB000900210F027FBC4F89052002038BD00BF0E
:100CC0001C050024F8B505464FF4EC7010F012FB3B
:100CD000044670B3C42301228121C5F8900228463E
:100CE000C02700F089FA0022144B0121C4F88C219E
:100CF0004BF680301A70124BE96246211F80D5F8FE
:100D0000943222601B68A4F890219847064670B977
:100D1000043401464FF4C472204610F009FB3B46F0
:100D200022468121284600F0D3FA3046F8BD022041
:100D3000F8BD0220C5F89042F8BD00BF1C05002494
:100D4000BA0000240020704700207047034619B104
:100D50000020C3F8941270470220704700207047AB
:100D600000207047002070470020704710B50A4AE5
:100D700000240A4B14600A480A490B4A1C700B4BAA
:100D800004600C60214614604FF4006208481C6047
:100D900010F0CEFA204610BD2C05002430050024AA
:100DA00028050024240500242005002434050024FF
:100DB00038390024022A2DE9F84352D1354A034636
:100DC000354E1168354C32682578891AC1F308020E
:100DD00025B911F4807157D0012121702F2A47D9EC
:100DE000B2F5A07F1BD92E49C42731240A680132ED
:100DF0000A603568C5F30805C5F5007294421DD830
:100E000028491846A20001EB850110F083FA3368E7
:100E10001C44C4F3080434603846BDE8F883BF2A94
:100E200023D821492F24BC270A6801320A6035687B
:100E3000C5F30805C5F500729442E1D94FEA82086E
:100E4000DFF860901846424609EB850110F062FA1F
:100E5000A5F50072404449462244920010F05AFA27
:100E6000D5E7C0273846BDE8F883C0273024C0E75F
:100E70000E4D18460021C0222B6817462170013301
:100E80002B6010F055FAC7E7C022174610F050FA51
:100E9000C2E700BF2C0500242805002430050024EB
:100EA00024050024383900242005002434050024BA
:100EB0000020704749B34FF0000C2DE9F041134C6E
:100EC00000F1020E124E134D10E030F92C80236811
:100ED00025F8128001333EF92C200CF1010CC3F3EC
:100EE000080325F81720614523600CD02368326879
:100EF000C3F30803C2F308085F1C5A00C7F30803D2
:100F0000571C9845E1D1BDE8F08170472C050024BD
:100F100028050024383900244A4A036870B59342F2
:100F20008AB04FF00004CDE90544CDE907440994A7
:100F300004D0454A934248D00AB070BD434D0226C2
:100F40004FF4C05205A9D5F8E030414843F0010301
:100F5000C5F8E030D5F8E03003F001030193019BC0
:100F60000A23CDE90526099300F0DAFC4FF400735B
:100F700005A937480794CDE9053400F0D1FCD5F830
:100F8000D8302246314643F000636220C5F8D8309D
:100F9000D5F8D83003F000630293029B00F0F4FB15
:100FA000622000F02FFC22463146632000F0ECFB6B
:100FB000632000F027FC22463146652000F0E4FB68
:100FC000652000F01FFC0AB070BD204D02264FF4D2
:100FD000404205A9D5F8E0301E483343C5F8E0305B
:100FE000D5F8E03033400393039B0C23CDE905266D
:100FF000099300F095FCD5F8D830224631464A20B6
:1010000043F00073C5F8D830D5F8D83003F000733A
:101010000493049B00F0B8FB4A2000F0F3FB224647
:1010200031464B2000F0B0FB4B2000F0EBFB22469A
:1010300031464D2000F0A8FB4D2000F0E3FB0AB044
:1010400070BD00BF0000084000000440004402588A
:10105000000002580004025800F57171D0F8040431
:1010600004F0AEBAC1EBC10300EB8303D0F8040473
:10107000D3F8082204F0D2BAC1EBC10300EB83031A
:10108000D0F804049A6C04F007BB00BFD0F8040445
:1010900004F0A6BBC16810B5044619B1022900D0FE
:1010A000FEE70121D4F8040404F084FBD4F804041E
:1010B000BDE8104004F056BB10B50446D0F8040457
:1010C00004F07CFB2268D2F8003E43F00103C2F832
:1010D000003E236A23B1034A136943F006031361F8
:1010E00010BD00BF00ED00E0D0F8040404F070BBB8
:1010F000D0F8040404F084BBD0F8040404F07EBBF0
:10110000D0F8040404F07EBBD0F8040404F07CBBE7
:10111000F8B5067804461EB1012E2BD00020F8BD8C
:101120002A4D022301272A4AEB60AB610923C5F847
:101130000404C0F8985228462A602E616B60C5E905
:101140000776C5E90967C5E90B7600F0FBFD00B13C
:10115000FEE78021284601F09FFB314640222846C9
:1011600001F070FBC0223946284601F06BFB26785F
:10117000012ED3D1174D0023022217492B61284697
:101180006B63C5F80444C4F898522960EA60AA6108
:10119000C5E90763C5E90936C5E90B3309236B6067
:1011A00000F0D0FD044600B1FEE74FF40071284680
:1011B00001F072FB21468022284601F043FB4FF4E8
:1011C000BA723146284601F03DFBA7E738050024F6
:1011D000000008404009002400000440D0F89802B4
:1011E00008B500F045FE032802D8024B185C08BD84
:1011F000022008BD542301089446D0F898021A46EC
:1012000008B5634601F0BAF9032802D8024B185C0E
:1012100008BD022008BD00BF54230108D0F8980281
:1012200008B501F0E9F9032802D8024B185C08BDA3
:10123000022008BD54230108D0F8980208B501F037
:10124000E1FA032802D8024B185C08BD022008BD51
:1012500054230108D0F8980208B501F053FA032886
:1012600002D8024B185C08BD022008BD54230108B7
:10127000D0F8980208B501F089FA032802D8024B89
:10128000185C08BD022008BD542301080A06D0F8E6
:10129000983206D4C1EBC10103EB810191F8FE0144
:1012A000704701F07F01C1EBC10103EB810191F8AF
:1012B0003E007047D0F8980208B501F049F90328BC
:1012C00002D8024B185C08BD022008BD5423010857
:1012D000D0F8980208B501F0EDF9032802D8024BC6
:1012E000185C08BD022008BD54230108D0F89802FC
:1012F00008B501F0B7F9032802D8024B185C08BD05
:10130000022008BD54230108122301480B807047B6
:10131000F400002410B5044C0A460448214604F0A9
:10132000F3FC204610BD00BF480D002488230108AF
:10133000042301480B8070470801002410B5044CB9
:101340000A460448214604F0DFFC204610BD00BFD9
:10135000480D00245823010810B5044C0A460448DF
:10136000214604F0D1FC204610BD00BF480D0024EA
:101370006823010810B5044C0A460448214604F0CD
:10138000C3FC204610BD00BF480D0024782301088F
:101390001D48D0F80038D0F8082830B59B184FF019
:1013A0001A040C8001D1194830BD184A0024D0F825
:1013B000040802F1100511464FEA137EB3F1204FE5
:1013C000CC7001F102010EF1370C38BF0EF1300C78
:1013D000A9424FEA031381F800C0EDD10C4C4FF045
:1013E000000C010FB0F1204F82F813C002F102028D
:1013F00001F1370338BF01F1300394424FEA001086
:101400001374EED1014830BD00E0F11F0C0100243F
:1014100014010024FEE700BF0B480C4A904203D0A1
:10142000121A0B490FF076FF0A480B4A904203D07C
:10143000121A00210FF07CFF07F0AAFC0FF036FF14
:1014400000F092F8FEE700BF000000240005002431
:10145000282701080005002438390024704700BF00
:10146000704700BF9300073323F007032DE9F047CF
:1014700000AFADEB030D15466E46002A52D08246F2
:101480008946002406F102081FE0F0EE477A47F68D
:10149000FF70B7EE007AB4EEC70AF1EE10FA36DD4F
:1014A000B0EE470A47F6FF7226F82400D9F8043058
:1014B00028F824200134D9F800200B44A5420A441E
:1014C000C2ED007A83ED000A2CD024480FF0F0FB27
:1014D000DAF80020B7EE007AA10002EB8402D2ED28
:1014E000007AF4EEC77AF1EE10FACEDCBFEE007AA5
:1014F000F4EEC77AF1EE10FA1BD5F0EE477A1848F1
:10150000B7EE007AB4EEC70AF1EE10FAC8DCBFEE0F
:10151000007AB4EEC70AF1EE10FA14D5B0EE470A1D
:101520000F4AC1E729463046FFF7C4FCBD46BDE877
:10153000F0879FED0C7A27EE877ABDEEC77A17EE1B
:10154000103A18B2A5E79FED077A20EE077ABDEEB4
:10155000C77A17EE103A1AB2A6E700BF880F002428
:101560000180FFFF00FEFF4608B50021224804F07D
:1015700035FD0321204804F03DFC30211E481F4C5E
:1015800004F054FC1E484FF07C531E4900229FED8E
:101590001E0A2061204661616360E360A26184ED00
:1015A000020A0FF03FFDF0EE407A002240F20113F4
:1015B0009FED160A20462270C4ED077A238584ED3C
:1015C000020A0FF02FFD124B01221249124884ED3E
:1015D000070A636003F0A4FF10490F4803F0C2FF3D
:1015E0000F490D48FFF7B2FB0B4803F0D1FF0D493F
:1015F000014804F0FBFBFEE7480F0024880F00249D
:1016000000803B473EC3AE370000C8420000DC43C9
:10161000CDCCCC3DD80000243010002404000024A0
:10162000BC0000246514000808B508480023084AD7
:101630000849036043610362C3630FF0F9FC044A85
:1016400005490648BDE808400FF0F2BC480F0024E9
:10165000000000245D14000861140008880F0024B5
:10166000704700BF0F4B1B780BB90120704710B5B6
:1016700004464FF47A700C4AB0FBF3F31068B0FBE9
:10168000F3F000F0E1F80F2C00D808B1012010BDF4
:10169000002221464FF0FF3000F076F8034B002087
:1016A0001C6010BD260100247401002428010024C0
:1016B00038B50320124D00F055F8124C01F09AFB9A
:1016C000114A12499369C3F30323CB5C03F01F0350
:1016D00020FA03F30E202B60926902F00F028A5C5D
:1016E00002F01F02D3402360FFF7BCFF10B10124BA
:1016F000204638BD0446FFF7B3FF204638BD00BF83
:10170000740100247801002400440258F8230108E1
:10171000034A044B11681B780B441360704700BFE9
:10172000B40F002426010024014B1868704700BF45
:10173000B40F002438B50446FFF7F6FF0546631CD6
:1017400002D0044B1B781C44FFF7EEFF431BA3425F
:10175000FAD338BD26010024014B1868000C7047ED
:101760000010005C06494FF6FF0C0002054BCA68EA
:1017700000F4E06002EA0C0210430343CB607047C0
:1017800000ED00E00000FA051B4BDB68C3F3022309
:1017900000B5C3F1070E03F1040CBEF1040F28BF1E
:1017A0004FF0040EBCF1060F1AD9033B4FF0FF3C7B
:1017B0000CFA03FC22EA0C024FF0FF3C00280CFA62
:1017C0000EFC21EA0C0101FA03F141EA02010ADBF5
:1017D00009010A4BC9B2034483F800135DF804FB06
:1017E00000221346E8E700F00F000901044BC9B2DC
:1017F000034419765DF804FB00ED00E000E100E031
:10180000FCEC00E0002807DB00F01F010123400989
:10181000024A8B4042F82030704700BF00E100E0F0
:1018200000280DDB4309012200F01F000549203389
:1018300002FA00F041F82300BFF34F8FBFF36F8F20
:10184000704700BF00E100E0431EB3F1807F0CD27F
:101850004FF0E022002006494FF0F00C53610723BF
:1018600081F823C09061136170470120704700BF69
:1018700000ED00E0BFF35F8F044B00215A6A22F4B1
:1018800080325A62C3F89410704700BF00ED00E048
:10189000064B40F00100C3F894005A6A42F48032CB
:1018A0005A62BFF34F8FBFF36F8F704700ED00E0B8
:1018B000174A4378C2F89830017821B3436800B5DD
:1018C000C2F89C30C37A90F80CC01B0690F80FE069
:1018D00043EA0C7390F80AC00B43817B43EACC4384
:1018E00090F80DC043EA8C4390F809C043EA4143A5
:1018F000017A43EA0E4343EA0C2343EA4103C2F868
:10190000A0305DF804FBC2F89C10C2F8A01070472C
:1019100000ED00E0704700BF08B5FFF7FBFF08BD12
:101920002DE9F04F0D6883B0002D00F0D580002325
:10193000DFF8688201229A4012EA050C00F0C780A5
:101940004E6826F01009B9F1020F40F0C88003F08C
:1019500007044FEAD30E4FF00F0A4FEA840900EB59
:101960008E0E0AFA09FADEF8204024EA0A0A0C6907
:1019700004FA09F406F0030944EA0A04CEF8204008
:101980004FEA430E0324D0F800A009FA0EF904FA36
:101990000EF42AEA040AE44349EA0A09C0F800906E
:1019A000D0F808A0CF6804EA0A0A07FA0EF949EA53
:1019B0000A09C0F80890C6F30019D0F804A009FA83
:1019C00003F92AEA020249EA02024260C268F70009
:1019D00004EA02048A6802FA0EF242EA0402C260D1
:1019E00075D5644C23F0030E03F00309D4F8F420FA
:1019F000C6444FEA890942F00202C4F8F420D4F840
:101A0000F42002F002020192019A0F22DEF808404F
:101A100002FA09F224EA0202574CA04225D004F54A
:101A20008064A0427BD0554CA0427ED0544CA04252
:101A30006FD0544CA04200F08480534CA04200F080
:101A40008680524CA04276D0514CA04200F0858056
:101A5000504CA04200F087804F4CA0420CBF09249C
:101A60000A2404FA09F942EA0902CEF808204FF0E4
:101A7000B0426FEA0C0EF403D2F880204FF0B0446D
:101A800054BF0EEA02024CEA0202C4F88020B203FC
:101A9000D4F884404FF0B04254BF0EEA04044CEA3C
:101AA0000404F702C2F8844014684FF0B04254BFF7
:101AB0000EEA04044CEA04041460B40252684FF0C5
:101AC000B04454BF0EEA02024CEA020262600133E3
:101AD00035FA03F27FF42EAF03B0BDE8F08F4FEA82
:101AE000430E0324D0F800B006F0030A04FA0EF403
:101AF00009F1FF390AFA0EFA2BEA040BB9F1010FCA
:101B00006FEA04044AEA0B0AC0F800A03FF65EAF91
:101B100046E7032404FA09F942EA0902A5E7012489
:101B200004FA09F942EA09029FE7022404FA09F9D2
:101B300042EA090299E7062404FA09F942EA09028D
:101B400093E7042404FA09F942EA09028DE705241F
:101B500004FA09F942EA090287E7072404FA09F9B5
:101B600042EA090281E7082404FA09F942EA090273
:101B70007BE700BF004402580000025800080258EA
:101B8000000C0258001002580014025800180258A5
:101B9000001C02580020025800240258000400587B
:101BA000002900F0A88000232DE9F04FDFF86891AC
:101BB00083B0DFF86881DFF868A1DFF868B14FF023
:101BC000010E0EFA03F212EA010C6FD023F00305A6
:101BD00003F003040F2640454D444FEAC404AF68A8
:101BE00006FA04F607EA0607019721D0504566D0A9
:101BF000584567D0434FB8426ED0434FB84270D07B
:101C0000424FB84263D0424FB84256D0414FB842DB
:101C100072D0DFF814E1704568D0DFF810E170454C
:101C200014BF4FF00A0E4FF0090E0EFA04F400E054
:101C30000024019FA74219D1AC6824EA06064FF0A0
:101C4000B044AE60D4F8805025EA0C05C4F880504A
:101C5000D4F8845025EA0C05C4F88450256825EA98
:101C60000C052560656825EA0C05656003255C00A8
:101C700003F007070F2605FA04F40568BF002543A3
:101C800006FA07F70560DD0800EB85052E6A26EAEF
:101C900007062E62856825EA04058560456825EA01
:101CA00002024260C26822EA0404C460013331FACD
:101CB00003F284D103B0BDE8F08F4FF0060E0EFAA8
:101CC00004F4B6E74FF0020E0EFA04F4B1E74FF059
:101CD000050E0EFA04F4ACE74FF0030E0EFA04F40E
:101CE000A7E74FF0040E0EFA04F4A2E74FF0080E37
:101CF0000EFA04F49DE770474FF0070E0EFA04F455
:101D000097E700BF000C0258001002580014025858
:101D100000180258001C0258000400580000025825
:101D200000040258000802580020025800240258FB
:101D30000369194214BF01200020704702B9090449
:101D400081617047F0B58BB0002800F0888090F872
:101D5000BD330546046803F0FF02002B79D020460E
:101D600003232E462F1D85F8BD33E36B6C4613F419
:101D7000807308BF2B6102F0C1FC56F810EBB4462B
:101D8000BCE80F000FC4BCE80F000FC49CE80300C0
:101D900084E80300704697E80E0002F093FB0446C7
:101DA00030B101240223204685F8BD330BB0F0BDCD
:101DB0000146286802F0AAFC686858B322464FF032
:101DC000010E2146C2EBC20302F1010C05EB8303B5
:101DD00083F83C20A3F842205FFA8CF283F83DE0C0
:101DE000824283F83F101965C3E91111EAD300223A
:101DF000C4EBC403611C05EB830383F8FC41CCB244
:101E000083F8FD21844283F8FF21C3F81022C3E93F
:101E10008122EDD36C460FCE0FC40FCE0FC496E8CF
:101E2000030084E8030097E80E00286802F086FCAF
:101E300004460028B5D101226B6A85F83800934228
:101E400085F8BD230FD0286803F0C4F820460BB0F6
:101E5000F0BD80F8BC23FFF75FF8286880E7012415
:101E600020460BB0F0BD284600F01CFDEBE700BF9C
:101E700010B590F8BC3304460068012B17D001223E
:101E8000A36A934284F8BC2309D003F095F8206834
:101E900002F02CFC0023184684F8BC3310BDA36963
:101EA0009342F2D0836B43F480338363EDE70220E7
:101EB00010BD00BF2DE9F04F076889B004463846D1
:101EC00003F0E6F810B109B0BDE8F08F8246206853
:101ED00003F08EF80028F6D0206803F089F810F09F
:101EE000020F206803D0436903F00203436103F04B
:101EF0007FF810F4002B206840F0508103F078F850
:101F000010F4802F206840F0EB8003F071F8002877
:101F100074DB206803F06CF8000564D4206803F0DB
:101F200067F8020114D52268536903F00063536116
:101F300094F8F433002B40F095810121204684F879
:101F4000F413536DC3F38303C4F8F83300F0C2FCF9
:101F5000206803F04DF8C3047BD4206803F048F8F0
:101F600010F4005F20685DD103F042F810F0100F0C
:101F7000206812D0836923F0100383613D6AC5F3A2
:101F8000434305F00F06022B00F03182062B00F0D0
:101F90007F81836943F01003836103F029F8070709
:101FA00000F15781206803F023F8C60200F1468152
:101FB000206803F01DF8850200F13581206803F0E8
:101FC00017F8400000F12681206803F011F841075E
:101FD0007FF579AF23685D686A0700F129825A6846
:101FE0002A435A606FE7D7F80838D90700F11C82F6
:101FF0002068436903F40063436190E7D7F804382D
:1020000023F00103C7F8043894F8F433012B00F0EF
:1020100038812046FFF768F82068436903F00043E1
:10202000436177E703F038F8206802F0BFFC2568C9
:10203000E06001F099F8227B0146284602F0D4FACC
:102040002046FFF727F82068436903F400534361F3
:102050008AE7D7F804381021206807F5006523F0D7
:1020600001036B6002F070FC6068B0B107F51063AB
:102070004FF67F3199600AF1010A1A6820338245D0
:1020800022F4001243F8202CC3F8E811D3F8E02121
:1020900022F40012C3F8E021ECD1EB6943F0011304
:1020A000EB61236B002B40F0E1806A6942F22B0365
:1020B00013436B612B6943F00B032B61D7F8003896
:1020C00004F57172217C23F4FE632068C7F80038A0
:1020D00002F0FEFF2068436903F4805343613DE74B
:1020E00002F09EFF80462068B8F1000F00F0E58006
:1020F000264607F510694FF0000BCDE9037A09E099
:102100005FEA58080BF1010B06F11C0609F12009E2
:1021100000F0D58018F0010FF2D05FFA8BF7394646
:1021200002F09AFFC30705461FD50BF00F03039972
:1021300001229A40D1F8343823EA0203C1F8343836
:102140000123C9F808302369012B03D1D6E91123F3
:102150001344B36439462046FEF78EFF2369012BF2
:1021600003D1BBF1000F00F0AC81280702D5082392
:10217000C9F80830E90602D51023C9F808306A0604
:1021800002D54023C9F80830AB0702D50223C9F8AD
:1021900008302D0600F1C6802068B1E702F032FF5A
:1021A00005462068002D00F0868007F53066A146C0
:1021B0004FF0000B049707E06D080BF1010B06F1DF
:1021C000200609F11C097DD0EB07F5D55FFA8BF1EC
:1021D000039102F033FF10F0010F8046039973D191
:1021E00018F0080F40F0F280206818F0100F01D0AE
:1021F0001023B36018F0200F05D02169012900F0E9
:102200005A812023B36018F4005FD5D04FF40053F7
:10221000B360D1E72046FEF773FF2068436903F0FF
:1022200080434361D1E620465FFA8BF1FEF760FF01
:102230002068436903F400134361C0E620465FFA57
:102240008BF1FEF759FF2068436903F48013436163
:10225000AFE62046FEF71AFF2068436903F0080343
:102260004361A0E62046FEF727FF71E6D5F88430EB
:1022700043F00B03C5F884306B6C43F00B036B64C5
:102280001CE70021204684F8F41300F023FBC3E68A
:10229000C6EBC606082204F57171384602F00AFE44
:1022A000C5F30A1304EB86022068D2F814120B441B
:1022B000C2F814326DE6AB4620E6C34625E6DDE9FA
:1022C000037A22E6049F19E6206801232769B36098
:1022D00000F53063012FD0F840E003EB4B139A6810
:1022E00000F0C580984FBE4540F0BD80170440F116
:1022F000B6804FF4004218F0080F9A603FF475AFB3
:10230000026C986890498A4200F0978020460392B8
:10231000FEF7A2FE8D4B039A9A4200F296800823A4
:10232000B36061E7D6E91453D4F800A0AB4250463D
:102330003FF6E6AE0AF51062716CCDF81CA002EB18
:102340004B120592EA1A8A4228BF0A460599896902
:10235000033289B2B1EB920FC0F0A980CDF818908A
:10236000C146A046059C1AE0736C3A46B16C5046D3
:102370009D4228BF1D4698F810300093ABB202F082
:1023800083FDB36CA1692B4489B2B364736D2B4494
:102390000335B1EB950F7365C0F08180356D9D42BB
:1023A000A5EB0305E0D84446C846DDF81890D4F8FC
:1023B00000A0079B0122504603F500610BF00F03BC
:1023C0009A404B6B23EA02034B6399E6226821692A
:1023D00002F53063126C012903EB4B13986891D11D
:1023E0005A498A4229D82046FEF736FE97E747F633
:1023F000F0731D423FF4CDADC6EBC606C5F30A121D
:10240000384604EB86061546D6F8081202F052FD4F
:10241000D6F8083220682B44C6F80832D6F81432B1
:102420002B44C6F81432B4E52046FEF745FEDFE53E
:102430002046FEF769FE2368D1E5020402D54FF479
:1024400000429A602046FEF707FE216901297FF4C9
:1024500066AF04F57172206802F03AFE5FE79006FD
:1024600001D520229A602046FEF7FCFDB8E617074A
:1024700032D536498E4504D9120402D54FF40042B4
:102480009A6020460393FEF7E7FD04F5717201217F
:10249000206802F01DFE0822039B9A60A0E64446D5
:1024A000356DC846DDF81890D4F800A050469D421E
:1024B0003FF626AE7DE704F5717202F009FE206852
:1024C0009FE6236D002B7FF450AE04F5717201215D
:1024D000206802F0FDFD48E6970608D520229A60A4
:1024E00018F0080F3FF481AE026C986878E712F09C
:1024F000280FF5D1154FBE4505D9120403D54FF469
:1025000000429A60ECE71B692046D9F80422C3F325
:102510001203D31AC9F81432D9F808321344C9F88F
:102520000832FEF79FFDBBF1000F7FF459AED4F8DF
:102530001032002B7FF454AE04F571720121206833
:1025400002F0C6FD4CE600BF0A31544F0A30544F2A
:1025500090F8BC23012A0ED0012210B50446006871
:1025600084F8381084F8BC2302F014FD00231846C8
:1025700084F8BC3310BD0220704700BF10B501F0D5
:102580000F0E0906044627D44FF01C0C0CFB0E0C52
:102590000CF5FE71CEEBCE0C00EB8C0C00208CF811
:1025A000FD018A604A7881F800E0CB700AB1A1F899
:1025B00006E0022B01D100230B7194F8BC33012BF0
:1025C00018D00123206884F8BC3302F001FA0023FC
:1025D000184684F8BC3310BD1C204FF0010C00FBE2
:1025E0000E4000F13C01CEEBCE0004EB800080F801
:1025F0003DC0D6E7022010BD11F0800F01F00F039F
:102600004FF01C0110B504461AD101FB0341C3EB86
:10261000C302002001F5FE7104EB820282F8FD0185
:102620000B7094F8BC33012B19D00123206884F877
:10263000BC3302F015FA0023184684F8BC3310BDF1
:1026400001FB0341C3EBC302012004EB82023C31D6
:1026500082F83D000B7094F8BC33012BE5D10220C9
:1026600010BD00BF10B501F00F041C21C4EBC40C59
:1026700001FB040100EB8C0C01F5FE71CCF810326B
:102680000023CCF808228CF8FC41CCF814328CF8EA
:10269000FD3103690068012B08BFCCF80C22DAB2C7
:1026A0001CB902F037FB002010BD02F01BFA00201D
:1026B00010BD00BF10B501F00F041C21C4EBC40C09
:1026C00001FB040100EB8C0C3C31CCF850300023B2
:1026D000CCF84820CCF8543001238CF83C408CF8DE
:1026E0003D3003690068012B08BFCCF84C20DAB2FA
:1026F0001CB902F00FFB002010BD02F0F3F900201E
:1027000010BD00BF38B5436801F00F059D4234D8B5
:102710000B0604461DD41C22C1EBC10302FB0101C0
:1027200000EB8303002201F5FE7183F8FD210123F4
:102730000D708B7094F8BC239A421CD0206884F8EA
:10274000BC3302F0C7FBD5B10023184684F8BC3374
:1027500038BD1C21C5EBC503012201FB050100EBBF
:1027600083033C3183F83D2001230D708B7094F876
:10277000BC239A42E2D1022038BD012038BD04F5C5
:102780007172217C206802F0A3FCDDE7426838B555
:1027900001F00F03934232D811F0800F04464FF03E
:1027A0001C01C3EBC30219D101FB0341002004EB60
:1027B0008202002501F5FE7182F8FD010B708D701B
:1027C00094F8BC33012B18D00123206884F8BC3363
:1027D00002F0B4FB284684F8BC5338BD01FB03412A
:1027E000012004EB820200253C3182F83D000B7091
:1027F0008D7094F8BC33012BE6D1022038BD012046
:1028000038BD00BF90F8BC33012B18D0012310B5A0
:1028100080F8BC330B06044607D4006802F0AEF81B
:102820000023184684F8BC3310BD01F00F01006886
:1028300002F08AF80023184684F8BC3310BD022049
:10284000704700BF10B40468606A31B940EA0240C2
:10285000A06200205DF8044B7047A36AB1F1010C3F
:1028600000EB13400BD0002303F14001013304EBD4
:102870008101DBB24968634500EB1140F4D30CF1F0
:10288000400C40EA024004EB8C0C5DF8044BCCF8A1
:1028900004000020704700BF034600201B685962F7
:1028A000704700BF03464FF0000C09491A686046A4
:1028B00010B4012483F8F4C3C3F8FC4393695DF8B2
:1028C000044B43F000639361536D194351657047A6
:1028D00003000010704700BF002800F0DE81F8B54B
:1028E00003680446D80730D59F490A69896A02F00F
:1028F0003802102A00F00081182A00F0F88063687E
:10290000B3F5803F00F02081002B00F05E81B3F52D
:10291000A02F954B1A6800F02F8222F480321A60A3
:102920001A6822F480221A60FEF7FEFE8E4E41F2F3
:102930008837054605E0FEF7F7FE401BB84200F277
:10294000428133689A03F6D523689D0700F185809C
:10295000D9062FD5844A1369926A03F03803082BED
:1029600000F0DA80182B00F0D280E3697E4D002B56
:1029700000F065812B6843F080032B60FEF7D4FEE6
:10298000064605E0FEF7D0FE801B022800F21B8100
:102990002B68DB05F6D5FEF7DFFE41F20303984214
:1029A00000F20B826B68226A23F0F84343EA8263E9
:1029B0006B6023681D0716D563696B4D002B00F013
:1029C0001C816B6F43F001036B67FEF7ADFE06469B
:1029D00005E0FEF7A9FE801B022800F2F4806B6F71
:1029E0009807F6D523689A0616D5A3695E4D002B85
:1029F00000F014812B6843F480532B60FEF794FEA3
:102A0000064605E0FEF790FE801B022800F2DB8000
:102A10002B689F04F6D52368590700F19B80636AF1
:102A2000CBB1514D2A6902F03802182A6DD0022B21
:102A30002B6823F080732B6000F03981FEF774FE61
:102A4000044605E0FEF770FE001B022800F2BB8082
:102A50002B689B01F6D40020F8BD434A1369926AA3
:102A600013F0380329D1404BE2681B68590701D5A0
:102A7000002A4AD03C4D2B6823F0190313432B60E6
:102A8000FEF752FE064605E0FEF74EFE801B0228CA
:102A900000F299802B685B07F6D5FEF75DFE41F2E8
:102AA0000303226998426B6800F2F08023F47C33C0
:102AB00043EA02336B6023684AE7182B00F0E28098
:102AC000294DE2682B68002A00F0CB8023F019031F
:102AD00013432B60FEF728FE064604E0FEF724FEB3
:102AE000801B02286FD82B685F07F7D5D5E701F068
:102AF000030102297FF403AF1B4A126891037FF59B
:102B000024AF6268002A7FF420AF0120F8BD02F0F4
:102B10000302012A7FF429AF134B1B68DA0502D5A3
:102B2000E369802BF1D1FEF717FE41F203030E4A51
:102B30009842216A00F2B380536823F0F84343EAD5
:102B400081635360236835E7074A136843F4803391
:102B50001360E9E6054D2B6843F480732B60FEF7A4
:102B6000E3FD064609E000BF004402580048025851
:102B7000FEF7DAFD801B642825D82B68DA05F7D527
:102B8000A368012B00F02281002B00F0FD80052BB3
:102B9000954B1A6F00F0208122F001021A671A6F1C
:102BA00022F004021A67FEF7BFFD8F4E41F288370C
:102BB000054604E0FEF7B8FD401BB84203D8336F6A
:102BC0009B07F7D52BE70320F8BD874D41F28837E7
:102BD0002B6823F480332B602B6823F480232B6035
:102BE000FEF7A2FD064604E0FEF79EFD801BB842FC
:102BF000E9D82B689B03F7D4A6E66B6F23F001039B
:102C00006B67FEF791FD064604E0FEF78DFD801B25
:102C10000228D8D86B6F9907F7D4E3E62B6823F422
:102C200080532B60FEF780FD064604E0FEF77CFD36
:102C3000801B0228C7D82B689804F7D4EBE62B68D2
:102C400023F080032B60FEF76FFD064604E0FEF7DD
:102C50006BFD801B0228B6D82B68DF05F7D42368EC
:102C6000A8E623F001032B60FEF75EFD064604E0B4
:102C7000FEF75AFD801B0228A5D82B685807F7D409
:102C8000236865E690077FF41BAFECE623F0FE4374
:102C900043EA02636B6023685AE601207047D368F9
:102CA00023F07C5343EA0163D360236882E6FEF796
:102CB0003BFD064604E0FEF737FD801B022882D864
:102CC0002B689901F7D4A96A484BA26A0B4048497E
:102CD000454E1343E26A43EA0213AB62D4E90D3274
:102CE000013B013A5B0212049BB202F4FE02134361
:102CF000226B013AC2F308021343E26B013A120657
:102D000002F0FE4213432B63EB6A23F00103EB62F4
:102D10006A6BA36C114041EAC3016963EB6A226CE0
:102D200023F00C031343EB62EB6A626C23F00203A3
:102D30001343EB62EB6A43F48033EB62EB6A43F4D8
:102D40000033EB62EB6A43F48023EB62EB6A43F0FF
:102D50000103EB622B6843F080732B60FEF7E4FC09
:102D6000044605E0FEF7E0FC001B02283FF62BAF0F
:102D700033689A01F6D56EE642F480221A601A682A
:102D800042F480321A60CFE5174D41F288372B6F3D
:102D900023F001032B672B6F23F004032B67FEF74F
:102DA000C3FC064605E0FEF7BFFC801BB8423FF6B9
:102DB0000AAF2B6F9807F6D431E6EB68226A23F04E
:102DC0007C5343EA0263EB602368F3E5064A136F22
:102DD00043F001031367E6E642F004021A671A6F34
:102DE00042F001021A67DEE6004402580CFCFFFFC5
:102DF0000700FFFF474A136903F03803102B04D084
:102E0000182B0DD01BB144487047444870471368D5
:102E100099064AD513684248C3F3C103D8407047A6
:102E2000936A30B4946AD56A14F47C7F516BC4F30E
:102E3000051038D0C1F3CC0105F0010503F0030300
:102E400005FB01F1012B07EE901AB8EEE77A02D0EC
:102E5000022B2CD093B307EE900A9FED325AF8EE76
:102E6000E77A136BC5EE276ADFED2F5AC3F3080329
:102E700007EE903AB7EE006AF8EEE77AE7EE257AC9
:102E800077EE867A66EEA76A224B1B6BC3F3462366
:102E9000013307EE903AB8EEE77AC6EE877AFCEE99
:102EA000E77A17EE900A30BC70471D48704707EE6E
:102EB000900A9FED1E5AF8EEE77AD2E713689B0658
:102EC00020D5146807EE900A1549F7EE005A136BE7
:102ED000C4F3C104F8EEE77A9FED135AC3F3080375
:102EE000E14006EE903A06EE101AF8EEE66AB8EE09
:102EF000C66AE7EE056A86EE277A76EEA56A66EE82
:102F0000876AC1E707EE900A9FED095AF8EEE77A63
:102F1000A7E700BF0044025800093D000024F40068
:102F20000090D0030024744A000000390024744B40
:102F30000024744C002800F00281874A136803F0D3
:102F40000F038B422DE9F04104460D460CD2136865
:102F500023F00F030B431360136803F00F038B423E
:102F600002D00120BDE8F08123685F070BD57B49C3
:102F700020698A6902F07002904204D98A6922F0BD
:102F8000700202438A611E070BD574496069CA69E1
:102F900002F07002904204D9CA6922F07002024322
:102FA000CA61D8060BD56D49A069CA6902F4E0620E
:102FB000904204D9CA6922F4E0620243CA619906C8
:102FC0000BD56649E0690A6A02F07002904204D9A2
:102FD0000A6A22F0700202430A629A0740F1A18055
:102FE0005E48E168826902F00F02914204D9826969
:102FF00022F00F020A438261D80730D5574AA168F0
:10300000936923F470630B43936161681368022929
:1030100000F09780032900F08E80012900F097804E
:1030200058079ED54D4E41F28838336923F0070387
:103030000B433361FEF778FB074605E0FEF774FBB0
:10304000C01B404500F281803369626803F0380399
:10305000B3EBC20FF2D12368990706D5E1683F4868
:10306000826902F00F028A425FD83B490A6802F087
:103070000F02AA420AD90A6822F00F022A430A6004
:103080000A6802F00F02AA427FF46BAF5A070BD511
:10309000324920698A6902F07002904204D28A693A
:1030A00022F0700202438A611F070BD52B49606929
:1030B000CA6902F07002904204D2CA6922F070021A
:1030C0000243CA61DE060BD52449A069CA6902F42D
:1030D000E062904204D2CA6922F4E0620243CA610B
:1030E0009D060BD51D4AE169136A03F070039942EE
:1030F00004D2136A23F070030B431362FFF77AFEC6
:10310000164A0346164892691649C2F30322825CA6
:103110000E2002F01F02D340BDE8F0410B60FEF725
:10312000A1BADA073FF56AAF9FE7826922F00F0282
:103130001143816199E79F013FF574AF11E70120C9
:1031400070479B033FF56EAF0BE703200AE7DE05F0
:103150003FF568AF05E700BF002000520044025869
:10316000F82301087401002408B501F095F9064B15
:1031700006499B69064A03F00F03CB5C03F01F036B
:10318000D840106008BD00BF00440258F823010871
:103190007801002410B501F07FF90949094A8B69CB
:1031A000094C03F00F03D35C03F01F03D8402060E9
:1031B000CB69C3F30213D35C03F01F03D84010BDE7
:1031C00000440258F82301087801002410B501F0EA
:1031D00063F90949094A8B69094C03F00F03D35C71
:1031E00003F01F03D8402060CB69C3F30223D35CF4
:1031F00003F01F03D84010BD00440258F823010813
:1032000078010024F8B53A4CA36A03F00303032BBA
:1032100067D0236806460F4623F080632360FEF7DD
:1032200083FA054604E0FEF77FFA431B022B56D8CB
:1032300023681A01F7D4A36A326823F47C3343EA83
:103240000233A362D6E90232013B013A5B02120467
:103250009BB202F4FE0213437268013AC2F3080201
:1032600013433269013A120602F0FE421343A3638C
:10327000E36A726923F0C0031343E362E26AB3694D
:1032800022F020021A431B4BE262E26A22F0100293
:10329000E262E16BF2690B4043EAC203E363E36A73
:1032A00043F01003E362E36AEFB1012F0CBF43F474
:1032B000801343F40013E3620D4C236843F08063F2
:1032C0002360FEF731FA054604E0FEF72DFA401BB5
:1032D000022804D823681B01F7D50020F8BD03207D
:1032E000F8BD0120F8BD43F40023E362E4E700BF2A
:1032F000004402580700FFFFF8B53A4CA36A03F0F8
:103300000303032B67D0236806460F4623F0805340
:103310002360FEF709FA054604E0FEF705FA431BB1
:10332000022B56D823689A00F7D4A36A326823F098
:103330007C7343EA0253A362D6E90232013B013AAD
:103340005B0212049BB202F4FE0213437268013A5C
:10335000C2F3080213433269013A120602F0FE4238
:1033600013432364E36A726923F440631343E36203
:10337000E26AB36922F400721A431B4BE262E26A0A
:1033800022F48072E262616CF2690B4043EAC2038C
:103390006364E36A43F48073E362E36AEFB1012F8D
:1033A0000CBF43F4000343F08073E3620D4C2368C9
:1033B00043F080532360FEF7B7F9054604E0FEF7BB
:1033C000B3F9401B022804D823689B00F7D50020DE
:1033D000F8BD0320F8BD0120F8BD43F48003E3628B
:1033E000E4E700BF004402580700FFFF2DE9F8435F
:1033F0000368044613F0006622D0426EB2F5001F47
:1034000000F0CE8411D8002A00F0F884B2F5801FB5
:1034100040F0F18402210430FFF7F4FE0646002E4E
:1034200040F08684626E236803E0B2F5401F40F0EE
:10343000E284A8480026016D21F440110A43026588
:10344000DD050AD5626D042A06D8DFE812F0A20471
:1034500093049A04DF02DF020126354698051BD546
:10346000A26D802A00F05B8400F2EC80002A00F05C
:103470008B83402A40F0ED800021201DFFF7C2FE23
:1034800023680546002D40F067839249A06D0A6DC0
:1034900022F4E07202430A6559051FD5D4F8A4202E
:1034A000B2F5800F00F0478400F2D680002A00F0C9
:1034B0007183B2F5001F40F0D7800021201DFFF777
:1034C000A1FE23680546002D40F044838149D4F8CD
:1034D000A4008A6D22F4600202438A651A051FD592
:1034E000D4F8A820B2F1007F00F02E8400F2BF8053
:1034F000002A00F05583B2F1807F40F0C0800021A7
:10350000201DFFF77FFE23680546002D40F02A832B
:103510007049D4F8A8008A6D22F0E06202438A65FF
:103520009F0118D5A26C202A00F0DA8300F2AA804D
:103530003AB1102A40F0A9806649CA6A42F40032C2
:10354000CA62002D40F059836249A06CCA6C22F017
:1035500030020243CA64D8041DD5E26DB2F5005FA3
:1035600000F0FB8300F29480002A00F01F83B2F584
:10357000805F40F095800021201DFFF743FE236807
:103580000546002D40F0EC825249E06D0A6D22F4B0
:10359000E04202430A6599041AD5226EB2F5003F53
:1035A00000F074837FD84AB1B2F5803F40F0838049
:1035B0000121201DFFF726FE23680546002D40F05F
:1035C0001E834449206E0A6D22F4E02202430A65FC
:1035D0005A041BD5D4F8AC20B2F1005F00F0608330
:1035E0006CD842B1B2F1805F70D10121201DFFF78C
:1035F00009FE23680546002D40F003833549D4F8C1
:10360000AC008A6D22F0E04202438A651F040DD5AA
:10361000E26EB2F1805F00F03183B2F1005F00F042
:103620000182002A00F0048201263546D8015DD5CA
:10363000626C032A00F20A84DFE812F054001703D8
:103640004E005400C02A3FF41DAFB2F5807F3FF416
:1036500019AF012635461FE7B2F5C00F3FF433AF6F
:10366000B2F5000F3FF42FAF0126354636E7B2F131
:10367000407F3FF44AAFB2F1806F3FF446AF01267E
:1036800035464DE7302A3FF45CAF0126354662E708
:10369000B2F5405F3FF475AFB2F5804F3FF471AFC4
:1036A0000126354677E722F48031B1F5802F85D0A9
:1036B000B2F5403F82D00126354689E722F080519D
:1036C000B1F1804F97D0B2F1405F94D001263546DA
:1036D0009CE700BF004402580221201DFFF792FD25
:1036E00023680546002D00F06B822E46590200F13A
:1036F000F081DF072FD5A26F282A2AD8DFE812F041
:10370000D3012900290029002900290029002900C6
:103710006D0329002900290029002900290029001A
:10372000CC012900290029002900290029002900AD
:10373000D301290029002900290029002900290096
:10374000D301290029002900290029002900290086
:10375000D30101263546980716D5626F052A00F277
:103760007883DFE812F00D00300306000D000D0035
:103770000D00012104F12400FFF7BEFD236805467A
:10378000002D00F025822E46590717D5D4F8902039
:10379000052A00F26183DFE812F00D000C03060039
:1037A0000D000D000D00012104F12400FFF7A4FD20
:1037B00023680546002D00F013822E469A061DD57B
:1037C000D4F88C20B2F1005F00F0458200F2DC807A
:1037D0004AB1B2F1805F40F0E1800021201DFFF787
:1037E00011FD23680546002D40F00582A949D4F853
:1037F0008C004A6D22F0E04202434A655F061DD507
:10380000D4F89820B2F5006F00F0548200F2C9801D
:103810004AB1B2F5806F40F0CE800021201DFFF745
:10382000F1FC23680546002D40F0C8819949D4F881
:1038300098008A6D22F4E05202438A6518061DD56D
:10384000D4F89C20B2F5804F00F03F8200F2B680A1
:103850004AB1B2F5005F40F0BB800021201DFFF7A8
:10386000D1FC23680546002D40F0A6818949D4F893
:103870009C008A6D22F4604202438A6519070BD5C9
:10388000D4F88010B1F5805F00F03E828148426D2F
:1038900022F440520A434265DA060BD5D4F894105C
:1038A000B1F5807F00F025827A48826D22F4407263
:1038B0000A4382651F030ED5D4F8A010B1F5803FEE
:1038C00000F0D480B1F5003F00F0D780002900F06F
:1038D000BA810126354658030FD5D4F88420B2F5B5
:1038E000001F00F0B080B2F5401F00F0B380B2F5C9
:1038F000801F00F0A08101263546D90309D5E26C6E
:10390000002A00F08681B2F5803F00F02D8101266B
:1039100035469A0000F1D2809F035CD4301E18BF58
:103920000120DE0206D55B49256F0A6D22F00042B8
:103930002A430A65DD0007D55649D4F8B4500A6910
:1039400022F480422A430A61990206D55149A56EA4
:103950000A6D22F080722A430A655A0009D54D4A41
:10396000116921F4004111611169D4F8B85029435B
:103970001161002B06DA474A216DD36C23F04053C6
:103980000B43D364BDE8F88322F08051B1F1804F3E
:103990003FF429AFB2F1405F3FF425AF0126354631
:1039A0002CE722F48061B1F5805F3FF43CAFB2F5C3
:1039B000406F3FF438AF012635463FE722F400510F
:1039C000B1F5004F3FF44FAFB2F5C04F3FF44BAFEE
:1039D0000126354652E7E26FB2F5807F00F0228182
:1039E00006D922F48071B1F5007F03D0012098E759
:1039F000002AFBD1002DF9D1264D301E696D18BF6C
:103A0000012021F440710A436A658AE73546002D9A
:103A100040F0A4801F49606D0A6D22F00702024346
:103A20000A651BE50121201DFFF7ECFB2368054615
:103A3000002D40F0DE801749E06E0A6D22F0405202
:103A400002430A65F2E5012104F12400FFF754FC6A
:103A500023680546002D40F0DA800E49D4F8840032
:103A60004A6D22F4401202434A6546E7022104F1FE
:103A70002400FFF741FC23680546002D40F0C58077
:103A80000449D4F8A0008A6D22F4403202438A65CA
:103A900021E700BF00440258012104F12400FFF790
:103AA0002BFC23680546002D40F0AD80AF49A06F88
:103AB0004A6D22F0380202434A654CE6022104F1C5
:103AC0002400FFF719FC236800283FF425AF0126E6
:103AD00022E7A74F3B6843F480733B60FDF724FE69
:103AE000804606E0FDF720FEA0EB0800642800F207
:103AF0007E813B68DA05F5D5002D40F0A4819B4A14
:103B0000D4F8B030116F594011F4407F0BD0116FD1
:103B1000106F21F4407140F480301067106F20F472
:103B2000803010671167B3F5807F00F06E8103F479
:103B30004072B2F5407F00F07C818C490A6922F422
:103B40007C520A61894AC3F30B03116F0B4313675D
:103B50002368CEE52E46C1E42E469DE42E467DE444
:103B60002E4618E52E46DBE40221201DFFF74AFB16
:103B700005462368002D53D17C49E06CCA6C22F4C1
:103B800080320243CA64C4E67849CA6A42F4003209
:103B9000CA6277E47549CA6A42F40032CA6292E4A2
:103BA0007249CA6A42F40032CA62AEE46F49CA6A14
:103BB00042F40032CA62E4E42E465FE62E463DE659
:103BC0006A49606CCA6C22F003020243CA648DE544
:103BD0006649606F4A6D22F0070202434A65D3E5E9
:103BE0006249D4F890008A6D22F0070202438A6588
:103BF000E4E52E461AE52E4600E62E46ABE42E46B8
:103C0000E6E42E4602E52E46A5E52E4663E62E4660
:103C100073E65649CA6A42F40032CA62002DABD03C
:103C20002E4676E65148C16A41F40031C162002D4A
:103C30007FF4DCAEE0E64D49CA6A42F40032CA6263
:103C4000002DE4D109E7201DFFF7DCFA05462368C3
:103C5000002DDAD114E7022104F12400FFF74CFB18
:103C600005462368002DC6D1C0E54049CA6A42F422
:103C70000032CA62002D7FF438ADA1E73B49CA6A21
:103C800042F40032CA62002DB3D1D4E6012104F11E
:103C90002400FFF731FB05462368002DAFD190E4E7
:103CA000012104F12400FFF727FB05462368002DBE
:103CB000A7D1A3E4022104F12400FFF71DFB054670
:103CC0002368002D7FF47AAFB0E5022104F12400CF
:103CD000FFF712FB05462368002D7FF46DAFC5E5A5
:103CE0000221201DFFF78EFA05462368002D84D19E
:103CF0002AE4022104F12400FFF7FEFA23680028D9
:103D00003FF4D8AD0126D5E5022104F12400FFF7E8
:103D1000F3FA236800283FF4BFAD0126BCE500217B
:103D200004F12400FFF7E8FA23680546FFF7AABB71
:103D30002368FFF785BB002104F12400FFF7DCFABC
:103D400023680546FFF7BFBB002104F12400FFF7FD
:103D5000D3FA23680546FFF7D8BB002104F12400FD
:103D6000FFF7CAFA236805460BE400BF0044025877
:103D7000004802580021201DFFF744FA2368054639
:103D800045E6002104F12400FFF7B6FA2368054652
:103D90003DE633493546CA6A42F40032CA6236E625
:103DA00002212430FFF7A8FA0646002E3FF43AAB72
:103DB000BEE70121201DFFF725FA05462368002DE7
:103DC0007FF4FBAC0CE70121201DFFF71BFA054631
:103DD0002368002D7FF4D7ACFAE60121201DFFF700
:103DE00011FA05462368002D7FF40DAF5EE6032629
:103DF000236835467DE40126FFF722BB1848C16AD7
:103E000041F40031C162FFF714BBFDF78DFCDFF810
:103E10005080074641F2883904E0FDF785FCC01B5D
:103E20004845E4D8D8F870309B07F6D5D4F8B030C0
:103E30007DE60B480B4A016902EA131221F47C511A
:103E40000A4302617EE623682E4652E40126354687
:103E50004CE40126354697E401263546AEE400BF22
:103E600000440258CFFFFF0008B5FFF77DF9054B6E
:103E7000054A1B6AC3F30213D35C03F01F03D84047
:103E800008BD00BF00440258F8230108584B70B425
:103E9000996A9D6ADE6A15F47C3FC5F30532DC6BD6
:103EA0005CD0C4F3CC0406F0100601F0030106FB5D
:103EB00004F4012907EE904AB8EEE77A03D002290C
:103EC00075D000294FD007EE902ADFED4A6AF8EE50
:103ED000E77A9B6B86EEA76A9FED475AC3F3080308
:103EE00006EE903AF7EE005AF8EEE66AE7EE056A5B
:103EF00076EEA56A66EE266A3D4AB7EE006A936BD7
:103F0000C3F3462307EE103AB8EEC77A70BC37EE1B
:103F1000067AC6EE877AFCEEE77AC0ED007A936BFC
:103F2000C3F3064307EE103AB8EEC77A37EE067AC7
:103F3000C6EE877AFCEEE77AC0ED017A936BC3F3A5
:103F4000066307EE903AF8EEE77A77EE867A86EE29
:103F5000A77ABCEEC77A80ED027A704770BCC0E9E0
:103F60000022826070471968890627D51C6807EE11
:103F7000902A2249F7EE005A9B6BC4F3C102F8EE77
:103F8000E77A9FED1D5AC3F30803D14006EE903A3D
:103F900006EE101AF8EEE66AB8EEC66AE7EE056AB3
:103FA00086EE277A76EEA56A66EE876AA4E707EEC4
:103FB000902ADFED136AF8EEE77A8AE707EE902A97
:103FC0009FED105A9B6BB7EE006AF8EEE77ADFEDD3
:103FD0000A5AC3F30803C5EE276A07EE903AF8EED3
:103FE000E77AE7EE257A77EE867A66EEA76A83E7C8
:103FF000004402580024744A000000390090D003A5
:104000000024744B0024744C584B70B4996A9D6A18
:10401000DE6A15F07C7FC5F305525C6C5CD0C4F39E
:10402000CC0406F4807601F0030106FB04F40129B8
:1040300007EE904AB8EEE77A03D0022975D000293E
:104040004FD007EE902ADFED4A6AF8EEE77A1B6C54
:1040500086EEA76A9FED475AC3F3080306EE903A2F
:10406000F7EE005AF8EEE66AE7EE056A76EEA56A24
:1040700066EE266A3D4AB7EE006A136CC3F3462328
:1040800007EE103AB8EEC77A70BC37EE067AC6EE85
:10409000877AFCEEE77AC0ED007A136CC3F306432F
:1040A00007EE103AB8EEC77A37EE067AC6EE877A90
:1040B000FCEEE77AC0ED017A136CC3F3066307EEFA
:1040C000903AF8EEE77A77EE867A86EEA77ABCEE3B
:1040D000C77A80ED027A704770BCC0E90022826026
:1040E00070471968890627D51C6807EE902A22496F
:1040F000F7EE005A1B6CC4F3C102F8EEE77A9FEDAD
:104100001D5AC3F30803D14006EE903A06EE101A8A
:10411000F8EEE66AB8EEC66AE7EE056A86EE277A3A
:1041200076EEA56A66EE876AA4E707EE902ADFEDD1
:10413000136AF8EEE77A8AE707EE902A9FED105AA5
:104140001B6CB7EE006AF8EEE77ADFED0A5AC3F3AC
:104150000803C5EE276A07EE903AF8EEE77AE7EE35
:10416000257A77EE867A66EEA76A83E700440258DE
:104170000024744A000000390090D0030024744BDE
:104180000024744C584B70B4996A9D6ADE6A15F429
:104190007C7FC5F305125C6B5CD0C4F3CC0406F0E5
:1041A000010601F0030106FB04F4012907EE904A21
:1041B000B8EEE77A03D0022975D000294FD007EE78
:1041C000902ADFED4A6AF8EEE77A1B6B86EEA76A63
:1041D0009FED475AC3F3080306EE903AF7EE005AF4
:1041E000F8EEE66AE7EE056A76EEA56A66EE266AFE
:1041F0003D4AB7EE006A136BC3F3462307EE103A4D
:10420000B8EEC77A70BC37EE067AC6EE877AFCEE57
:10421000E77AC0ED007A136BC3F3064307EE103A5A
:10422000B8EEC77A37EE067AC6EE877AFCEEE77A02
:10423000C0ED017A136BC3F3066307EE903AF8EE14
:10424000E77A77EE867A86EEA77ABCEEC77A80EDBB
:10425000027A704770BCC0E900228260704719681A
:10426000890627D51C6807EE902A2249F7EE005AE6
:104270001B6BC4F3C102F8EEE77A9FED1D5AC3F33E
:104280000803D14006EE903A06EE101AF8EEE66A00
:10429000B8EEC66AE7EE056A86EE277A76EEA56A7C
:1042A00066EE876AA4E707EE902ADFED136AF8EE60
:1042B000E77A8AE707EE902A9FED105A1B6BB7EE5C
:1042C000006AF8EEE77ADFED0A5AC3F30803C5EE99
:1042D000276A07EE903AF8EEE77AE7EE257A77EE6E
:1042E000867A66EEA76A83E7004402580024744A7F
:1042F000000000390090D0030024744B0024744C5B
:10430000B0F5807F00B585B048D0B0F5007F11D002
:10431000B0F5806F00F08280B0F5006F52D0B0F53C
:10432000805F2CD0B0F5002F00F09680002005B003
:104330005DF804FB534A136D03F4E073802B59D0EE
:1043400012D9C02B26D0B3F5807FEFD1D36C13F0F8
:1043500040535BD0B3F1805F00F08D80B3F1005F1C
:10436000494818BF0020E2E7002B3CD0402BDDD1AC
:1043700001A8FFF78BFD019805B05DF804FB414AE9
:10438000136D03F4E043B3F5005F33D029D9B3F5DF
:10439000405F58D13D4805B05DF804FB394B1B6DBB
:1043A00003F00703042BC1D801A252F823F000BF89
:1043B000E743000871430008F543000895430008EF
:1043C000034400082F4A936D03F0E063B3F1007FCC
:1043D00010D01DD9B3F1407FDCD0B3F1806FB5D0E0
:1043E000A4E7002B34D101A8FFF7CCFE029805B05A
:1043F0005DF804FB01A8FFF707FE019805B05DF822
:1044000004FB204BDB6C13F04053A3D120488EE714
:10441000002BE8D0B3F1807FAAD087E7194A936DCB
:1044200003F46003B3F5800FE4D005D8002BDAD095
:10443000B3F5001F9CD079E7B3F5C00FAAD0B3F550
:10444000000F83D072E7B3F5804F3FF47FAF6DE785
:10445000B3F5805F8CD069E70A4A936D03F440336B
:10446000B3F5803F09D0B3F5003F3FF46FAF002BA9
:104470007FF45CAF7CE7074859E701A8FFF7C4FD6C
:10448000039854E7004402580024F4000080BB0065
:104490000090D00300093D0008B5FEF7ABFC064BC9
:1044A00006499B69064AC3F30323CB5C03F01F0351
:1044B000D840106008BD00BF00440258F82301082E
:1044C0007401002484B0844600B583B00DF1140E4D
:1044D0008EE80E000A9B012B32D1826BA3F14213AE
:1044E000119922F4803201298263C26803EA02032F
:1044F000C360C36823F44013C3606DD00023394AFE
:10450000009303E0DCF81030002B34DB009B013318
:1045100093420093F6D90320089B012B0BD1DCF8C2
:10452000083043F00803CCF80830DCF8083043F0DA
:104530002003CCF8083003B05DF804EB04B07047FA
:10454000C3680021274A43F04003C360019103E0A0
:10455000DCF81030002B2ADB019B013393420193DE
:10456000F6D903200E9BDBB9DCF8383043F48033F6
:10457000CCF83830D0E700231A4A0093DCF810302A
:1045800043F00103CCF8103004E0DCF8100010F028
:104590000100C1D0009B013393420093F5D9BAE7E3
:1045A000DCF8383023F48033CCF83830B4E700231B
:1045B0000C4A0193DCF8103043F00103CCF81030C2
:1045C00004E0DCF8100010F00100CBD0019B0133B7
:1045D00093420193F5D9C4E7C36843F48013C360E1
:1045E0008CE700BF400D0300022A82B0844613D03E
:1045F00009230193DCF80C30002023F47053CCF82D
:104600000C30019BDCF80C209B0203F47053134325
:10461000CCF80C3002B07047224B234A0B44934233
:1046200007D9224B224A0B44934205D80E2301930B
:10463000E0E70F230193DDE71E4B1F4A0B44934233
:1046400007D91E4B1E4A0B44934205D20C230193FB
:10465000D0E70D230193CDE71A4B1B4A0B4493423D
:1046600002D80B230193C5E7184B194A0B44934218
:1046700002D20A230193BDE7164B174A0B4493421B
:10468000B6D3164B164A0B44934202D20823019329
:10469000B0E7144B144A0B44934234BF072306235C
:1046A0000193A7E7405327FFFF340C00401E1BFF78
:1046B0003F420F0000DC0BFF7F4F1200808CF9FEA1
:1046C00020D6130060B6E5FE5FE3160000D3CEFEF1
:1046D00040771B00C05BB3FEC091210000CA91FE71
:1046E00020753800E05459FEE09C4100034600204C
:1046F0009A6842F001029A60704700BF03460020AA
:104700009A6822F001029A60704700BF08B5C3683A
:10471000012923F0C043C3600BD041B9C36843F003
:104720008043C3603220FDF705F8002008BD01205A
:1047300008BDC36843F00053C360F3E784B02DE9BC
:10474000F04782B00BAC0E9D84E80E000023159C50
:10475000C0F80431C0F80831C0F80C31C0F810318D
:10476000C0F81431C0F81831C0F81C31C0F820313D
:10477000C0F82431C0F82831C0F82C31C0F83031ED
:10478000C0F83431C0F83831C0F83C31836B002CAC
:1047900040F0AC8023F400138363036843F04003CC
:1047A0000360036843F080030360002300F5006C9E
:1047B000C0F8003ED0F80038C0F80038109B012B3C
:1047C00000F0A980D0F8003843F00303C0F80038A7
:1047D0000023584A00934FF48463036104E00369A3
:1047E00013F0200300F08680009B01339342009376
:1047F000F5D9012200234F4E01931023036102E0FB
:104800000369DB0605D5019B0133B3420193F7D958
:1048100001220026CCF81060CCF81460CCF81C60A3
:10482000E9B100F510634FF090494FF0006AB646C9
:104830004FF67F3809E0C3F800E00136C3F810E016
:10484000C3F8088020338E4231D01F68002FF2DA7F
:1048500016B1C3F80090F0E7C3F800A0EDE7DCF86C
:104860001030012D23F48073CCF8103044D0002395
:1048700083616FF0804343611DB9836943F0100386
:10488000836181692C4B0B431199836119B1836951
:1048900043F008038361012C03D18169274B0B434B
:1048A0008361104602B0BDE8F04704B070470026AF
:1048B00000F530634FF090494FF0006AB6464FF66E
:1048C0007F3809E0C3F800E00136C3F810E0C3F810
:1048D000088020338E42C2D01F68002FF2DA16B152
:1048E000C3F80090F0E7C3F800A0EDE743F400132D
:1048F00083635AE71A467DE7114BCCF83030114BF1
:10490000DCF830100B430021CCF830306FF08043DE
:1049100081614361B5E70D9B23B9D0F80038C0F839
:10492000003855E7D0F8003843F00103C0F80038EC
:104930004EE700BF400D030000383C8004000040FB
:104940000001800003000100890182B000230A4AAF
:1049500041F020010193016103E0036913F020039A
:1049600007D0019B013393420193F6D9032002B093
:104970007047184602B07047400D030082B0002116
:104980001023094A0191036103E0036913F0100346
:1049900007D0019B013393420193F6D9032002B063
:1049A0007047184602B07047400D0300D0F8083831
:1049B00082B003F006030193019838B101980228F0
:1049C00004D0019B062B0CBF02200F2002B07047C1
:1049D00030B44B780A78012B20D002F00F0C4FF442
:1049E0008033D0F81C4800EB421203FA0CF3234347
:1049F000C0F81C38D2F8003B1B040CD48B68D2F8EA
:104A0000004BC3F30A03C8781449234343EA8043A5
:104A10001943C2F8001B002030BC704700F5006449
:104A200002F00F0500EB4210AB40E5692B43E36158
:104A3000D0F800391C04EED48B68D0F80059C3F3C9
:104A40000A03CC7805492B4343EA844343EA825264
:104A5000114330BCC0F800190020704700800010DE
:104A600010B44A780B78012A1CD003F00F014FF4E0
:104A70008032D0F83C4800EB43138A40174924EABF
:104A80000204C0F83C48D0F81C4824EA02025DF851
:104A9000044BC0F81C280020D3F8002B1140C3F8A9
:104AA000001B704703F00F01D0F83C4800EB4313A4
:104AB0008A400B4924EA0204C0F83C48D0F81C485C
:104AC00024EA02025DF8044BC0F81C280020D3F849
:104AD00000291140C3F80019704700BF0078F3EFB8
:104AE000007833EC2DE9F0414B7891F800C0012BB0
:104AF00051D000EB4C1C844CDCF8105B0CF530639F
:104B00002C401C61814C1D692C401C614C6984B394
:104B10008D68012A7E4E2C4404F1FF34B4FBF5F479
:104B200006EAC44EA4B205FB04F41D694EEA05056D
:104B3000C4F312041D611D6944EA05041C6125D0FB
:104B4000CB78012B0CD1D0F8083813F4807FDCF837
:104B5000003B0CBF43F0005343F08053CCF8003BC4
:104B6000DCF8003B43F00443CCF8003B0020BDE8F8
:104B7000F0818C68012A1D69C4F3120444EA05041B
:104B80001C611C6944F400241C61D9D1CA68002A44
:104B9000D6D05A61D4E74D69002D3DD000EB4C14BE
:104BA000594ED1F808E0D4F81089584F08EA0606A3
:104BB000C4F8106905EB0E06013EB6FBFEFED4F804
:104BC00010693740524EC4F8107906EACE46D4F840
:104BD00010793E43C4F81069C5F31206D4F8107971
:104BE0003E43C4F8106904F5106691F803E0BEF185
:104BF000010F57D0012A72D0D4F800290CF00F0C05
:104C000042F0044203FA0CF3C4F80029D0F8342827
:104C10001343C0F83438A9E700EB4C133B4E3A4C31
:104C2000012AD3F8107906EA0706C3F81069D3F809
:104C3000106946F40026C3F81069D3F8106904EA35
:104C4000060403F51066C3F8104991F803E03AD062
:104C5000D3F80049BEF1010F44F00444C3F8004901
:104C600084D1D0F8083813F4807F33680CBF43F048
:104C7000005343F080533360002A7FF477AFADB226
:104C80000335AD083FF472AFCB6800EB0C3C03EB8F
:104C900085010CF5805C53F8042B8B42CCF8002086
:104CA000F9D163E73369012A23F0C04333613369E3
:104CB00043F00053336117D0D4F8003943F0044374
:104CC000C4F80039CDE70B6963B9BEF1010F0ED00E
:104CD0003368002043F004433360BDE8F0810B6982
:104CE000002BF5D07361F0E70B69002BFAD1D0F8F7
:104CF000083813F4807F33680CBF43F0005343F04F
:104D000080533360E4E700BF0000F8FFFFFF07E0D7
:104D10000000F81FF0B54C780B78012C26D000EB82
:104D20004310574CD0F8105B00F530632C401C61E9
:104D3000544C1D692C401C614C69A4B98C681D69D8
:104D4000C4F31204012A45F400251D611D6944EADB
:104D500005041C6149D0D0F8003B43F00443C0F87F
:104D6000003B0020F0BD8C684C61E8E74C69002CEA
:104D700040D000EB4315424FD1F808E0D5F810C9F8
:104D8000404E74450CEA070705F5106CC5F810791C
:104D9000D5F8107906EA0706C5F8106958D9DCF885
:104DA0001040012AC1F814E044F40024CCF810406B
:104DB000CEF31204DCF8106044EA0604CCF810408C
:104DC0003AD0D5F8002942F00442C5F80029BEF1D6
:104DD000000FC6D003F00F010123D0F834288B4018
:104DE0001343C0F834380020F0BDCA68002AB2D09E
:104DF0005A61B0E700EB4310224B012AD0F810496A
:104E000000F5106C03EA0403CCF81030DCF8103025
:104E100043F40023CCF81030194BDCF8104003EABF
:104E20000403CCF8103007D0D0F8003943F0044325
:104E3000C0F800390020F0BD0B690BB1CCF814307C
:104E4000DCF80030002043F00443CCF80030F0BD23
:104E5000DCF81060C4F31204012A46F40026CCF8F2
:104E60001060DCF8106044EA0604CCF81040E3D08F
:104E7000D5F8002942F00442C5F80029AAE700BF8E
:104E80000000F8FFFFFF07E010B49DF8044064B98C
:104E900003339B0809D0013201EB830300EB02309E
:104EA00051F8042B8B420260FAD100205DF8044BCC
:104EB000704700BF033292080AD000F5805C01EB16
:104EC0008200DCF8003041F8043B8842F9D1704799
:104ED000084670474A780B78012A00EB43100CD043
:104EE000D0F8002B0BB1002A14DAD0F8003B43F4C1
:104EF0000013C0F8003B00207047D0F80029002ABA
:104F000000DB73B9D0F8003943F40013C0F800395E
:104F100000207047D0F8003B23F08043C0F8003BEE
:104F2000E3E7D0F8003923F08043C0F80039D0F827
:104F3000003943F40013C0F80039E9E74A780B78E8
:104F4000012A00EB431013D0D0F8003B23F40013E8
:104F5000C0F8003BCB78023B012B01D90020704701
:104F6000D0F8003B43F08053C0F8003B002070476E
:104F7000D0F8003923F40013C0F80039CB78023B95
:104F8000012BEBD8D0F8003943F08053C0F800393A
:104F900000207047034609010020D3F8002801F4DF
:104FA000FE6122F4FE62C3F80028D3F80028114302
:104FB000C3F80018704700BF08B503460320D3F8B4
:104FC000042822F00202C3F80428FCF7B3FB0020F7
:104FD00008BD00BF08B503460320D3F8042842F0FB
:104FE0000202C3F80428FCF7A5FB002008BD00BF9F
:104FF00082B0436901938269019B13400193019838
:1050000002B0704782B0D0F818380193D0F81C284D
:10501000019B134001930198000C02B0704700BF40
:1050200082B0D0F818380193D0F81C28019B1340A7
:105030000193019880B202B0704700BF00EB4111AC
:1050400082B0D1F8083B0193D0F81428019B13409B
:105050000193019802B0704784B0D0F8103801F085
:105060000F0C00EB41110293D0F834380393039BEB
:10507000029A23FA0CF3DB01DBB213430293D1F85B
:105080000839029A13400193019804B0704700BF99
:10509000406900F001007047D0F8001900F5006386
:1050A0000A4A0A40C0F800299A6802F00602042A57
:1050B00005D1D0F8002942F00302C0F800295A684F
:1050C000002042F480725A60704700BF00F8FFFF72
:1050D000144B10B4046C9C421AD800F530600023C5
:1050E00001290361036943F400230361036943F069
:1050F00018030361036943F0C043036104D14261B3
:10510000036843F08023036000205DF8044B704780
:10511000D0F8003B00F53060002BE0DA00205DF8AD
:10512000044B70470A30544FD0F8002401F00303B9
:10513000012900F5806C22F00302C0F80024D0F8A9
:10514000002443EA0203C0F8003409D0022901D048
:105150000020704741F270730020CCF80430704793
:105160004BF680330020CCF804307047D0F814049C
:1051700080B2704700EB4111002382B001F5A062BC
:105180000193D1F8003513F4802FD1F8003543F0A6
:105190008043C1F8003522D1C36A13F47F0FD1F8E0
:1051A000003523D123F00043C1F80035D1F8003594
:1051B00043F00043C1F80035D1F8003523F4004333
:1051C000C1F8003502E01368002B13DA019B0133AC
:1051D000B3F57A7F0193F6D9002002B07047D0F87A
:1051E000103413F47F0FD1F8003506D043F000439C
:1051F000C1F80035002002B0704723F00043C1F829
:105200000035D1F8003543F00043C1F80035D1F83E
:10521000003523F40043C1F8003502E01368002B89
:10522000E8DA019B0133B3F57A7F0193F6D90020C8
:1052300002B0704730B4002484B04FF48465AA4AA9
:1052400000940146836823F00103836003940561A1
:1052500002E00B69980604D5039B01339342039344
:10526000F7D900201023A04A02900B6102E00B69DD
:10527000DB0604D5029B013393420293F7D9D1F8A0
:10528000003501F5A06201F5E0600193019B43F058
:1052900080430193019B23F000430193019B23F47E
:1052A00000430193019BC1F80035D1F820350193EB
:1052B000019B43F080430193019B23F00043019342
:1052C000019B23F400430193019BC1F82035D1F8E1
:1052D00040350193019B43F080430193019B23F0F0
:1052E00000430193019B23F400430193019BC1F808
:1052F0004035D1F860350193019B43F08043019321
:10530000019B23F000430193019B23F4004301938D
:10531000019BC1F86035D1F880350193019B43F0C2
:1053200080430193019B23F000430193019B23F4ED
:1053300000430193019BC1F88035D1F8A03501935A
:10534000019B43F080430193019B23F000430193B1
:10535000019B23F400430193019BC1F8A035D1F8D0
:10536000C0350193019B43F080430193019B23F0DF
:1053700000430193019B23F400430193019BC1F877
:10538000C035D1F8E0350193019B43F08043019390
:10539000019B23F000430193019B23F400430193FD
:1053A000019BC1F8E035D1F800360193019B43F031
:1053B00080430193019B23F000430193019B23F45D
:1053C00000430193019BC1F80036D1F820360193C8
:1053D000019B43F080430193019B23F00043019321
:1053E000019B23F400430193019BC1F82036D1F8BF
:1053F00040360193019B43F080430193019B23F0CE
:1054000000430193019B23F400430193019BC1F8E6
:105410004036D1F860360193019B43F080430193FD
:10542000019B23F000430193019B23F4004301936C
:10543000019BC1F86036D1F880360193019B43F09F
:1054400080430193019B23F000430193019B23F4CC
:1054500000430193019BC1F88036D1F8A036019337
:10546000019B43F080430193019B23F00043019390
:10547000019B23F400430193019BC1F8A036D1F8AE
:10548000C0360193019B43F080430193019B23F0BD
:1054900000430193019B23F400430193019BC1F856
:1054A000C036D1F8E0360193019B43F0804301936D
:1054B000019B23F000430193019B23F400430193DC
:1054C000019BC1F8E03613680193019B43F08043D0
:1054D0000193019B43F000430193019B23F400439C
:1054E0000193019B136004E0400D03001368002B3F
:1054F00005DA009B0133B3F57A7F0093F6D92032A9
:105500008242E0D14FF0FF330020C1F814344B61E8
:105510008B6843F001038B6004B030BC704700BF60
:1055200008B580B1D0F88C3213B10023C0F88C32AA
:1055300009B1C0F888120123027080F87432FBF7B9
:10554000E7FD002008BD05480BF0A0FF04480BF064
:105550009DFF0A200BF0B2FF022008BD9C2301082A
:10556000A423010808B521B103460020C3F88C121A
:1055700008BD05480BF08AFF04480BF087FF0A209E
:105580000BF09CFF022008BD9C230108BC230108EE
:1055900008B5FBF723FE002008BD00BF08B5D0F812
:1055A0008C321BB11B68984700B908BD022008BDAA
:1055B00008B5D0F88C325B689847002008BD00BF62
:1055C00038B500F520750446284600F07DFB012221
:1055D000B4F8863294F88012C4E99B2301F01F03CB
:1055E000934209D0022B13D063B101F08001204611
:1055F000FBF730FE002038BD2946204600F092FA25
:10560000002038BD2946204600F00AF9002038BDA8
:105610002946204600F0BAFA002038BD38B50546C4
:1056200069B91346D0F86C22032A15D0052A0C4616
:105630000ED1C5F86C12FBF70DFE204638BDD0F830
:105640008C329B6933B190F87422032A02D19847B7
:10565000002038BD022038BDD0E9531291420CD948
:10566000891A8A42C0F84C1188BF8AB2194698BF7D
:1056700092B200F099FB002038BDD0F88C321B6943
:105680001BB190F87422032A04D0284600F096FB40
:10569000002038BD9847F8E770B5044661B9D0F8E6
:1056A0006C32022B15D033F0040337D094F87832E3
:1056B000012B2ED0002070BDD0F88C325B6933B145
:1056C00090F87422032A02D19847002070BD02206E
:1056D00070BDD0E908630D469E4223D8C669B6FB6B
:1056E000F3F203FB12620AB9B34228D9D4F88C3220
:1056F000DB681BB194F87422032A30D08021204645
:10570000FBF7A8FD204600F065FB94F87832012BEA
:10571000D0D10023184684F8783270BD8021FBF781
:1057200099FDC3E7F31A114603629AB200F024FB15
:105730002B462A4629462046FBF7D8FDB6E7D0F887
:1057400070329E42D2D20A4600F016FB2B462A4601
:1057500029462046C4F87052FBF7C8FDA6E720464C
:105760009847CBE770B50022402604460125114634
:105770003346FBF741FD3346802100222046C4F822
:105780004451C4F85061FBF737FD0021D4F8903242
:10579000A561666284F87452C4F86C126160C4F842
:1057A0007C1223B1D4F88C3220465B6898470020E5
:1057B00070BD00BF034600201974704703460421E2
:1057C000002093F8742283F8741283F875227047CE
:1057D0000346002093F8752283F87422704700BFB7
:1057E00090F87422032A01D00020704708B5D0F841
:1057F0008C32DB6903B19847002008BD0020704758
:105800000020704700207047D0F88C22012108B595
:1058100080F87412017953689847002008BD00BFD2
:1058200030B50B7883B00D46044603F06003202B9F
:105830000DD0402B0BD09BB180212046FBF70AFDF9
:1058400000212046FBF706FD002003B030BDD4F850
:105850008C32294620469B689847002003B030BD13
:105860004B78092BE8D801A252F823F0C75800085A
:10587000F358000839580008115900083958000831
:105880001959000851590008395800088159000871
:10589000955800088978A24D01292970CCD890F834
:1058A0007432022B00F01281032B00F00081802162
:1058B000FBF7D0FC00212046FBF7CCFC29782046E2
:1058C000FFF776FEC0E790F87432013B022BB3D8A5
:1058D000CB88022BB0D10122D0F87C32C2600BB150
:1058E0000323C360022204F10C01204600F036FAC3
:1058F000AAE790F87432013B022B9DD84B88012B0C
:10590000A2D100232046C4F87C3200F057FA9BE76E
:105910004B88012B98D1F5E78B88002B8CD1CB8855
:10592000002B89D14D887F2D86D890F87432032BB7
:1059300082D0E9B280F87612FBF7BCFC204600F07A
:105940003DFA002D00F0E080022384F874327BE7FA
:105950004A88130A013B062B3FF66EAF01A151F8AE
:1059600023F000BF155A0008FD590008EB59000844
:105970003958000839580008D5590008A7590008B7
:10598000CA88012A7FF458AF90F87432022B00F2D3
:105990008780002B3FF450AF0146002341F8083FB9
:1059A00000F0DCF950E7037C002B7FF445AFD0F822
:1059B0008C320DF106001B6B984707234370BDF82E
:1059C0000620002A67D0EB88002B5BD1204600F030
:1059D000F5F939E7037C002B7FF42EAFD0F88C3239
:1059E0000DF106005B6B9847E9E7D1B2052900F29B
:1059F0008F80DFE801F0271F17372F3F037C002B34
:105A000072D1D0F88C320DF106009B6A98470223C0
:105A10004370D4E7D0F888320DF10601007C1B6892
:105A20009847CCE7D0F888320DF10601007CDB689E
:105A30009847C4E7D0F888320DF10601007C9B68D6
:105A40009847BCE7D0F888320DF10601007C5B680E
:105A50009847B4E7D0F888320DF10601007C5B6905
:105A60009847ACE7D0F888320DF10601007C1B693D
:105A70009847A4E7D0F888320DF10601007C9B69B5
:105A800098479CE79A420146204628BF1A46ADF83F
:105A9000062000F063F9EB88002B7FF4D5AE95E784
:105AA000032B7FF4C9AE011D00F058F9CCE621B3F9
:105AB000416801298AD0C9B2FFF77AFD29782046CA
:105AC0006160FFF76BFD022880D1B5E600293FF445
:105AD0007DAF01210323416080F87432FFF75EFD42
