:020000040800F2
:1000000000000220B9280008B5280008C1470008F0
:10001000B5280008B5280008B52800080000000031
:10002000000000000000000000000000B5280008EB
:10003000B528000800000000B52800084547000862
:10004000B5280008B5280008B5280008B52800081C
:10005000B5280008B5280008B5280008B52800080C
:10006000B5280008B5280008B5280008F94400089C
:1000700005450008B5280008114500081D45000881
:10008000E1EB0008293A0008B5280008B528000867
:10009000B5280008B5280008B5280008B5280008CC
:1000A000B5280008B5280008B5280008B5280008BC
:1000B000F9DF000805E0000811E000085D3A0008DB
:1000C000B5280008693A0008B528000869D8000872
:1000D00075D8000815EA000841EA000875EA00082A
:1000E000B5280008B528000800000000B528000861
:1000F000B5280008B5280008B5280008B52800086C
:10010000B5280008B52800081DE0000881D80008BF
:10011000A9EA0008DDEA0008B5280008B5280008AB
:10012000B5280008B5280008A5D80008D9D80008C7
:1001300015EC0008B5280008B5280008B528000807
:1001400000000000000000000000000000000000AF
:10015000B5280008B5280008B528000811EB0008EC
:10016000753A0008B5280008554700087947000887
:10017000B52800089D470008B5280008B5280008E4
:10018000B5280008B528000845EB000879EB000801
:100190008DD8000899D80008B5280008B5280008AF
:1001A000B5280008B5280008B5280008B5280008BB
:1001B00019420008B5280008B5280008B52800082D
:1001C000B5280008B5280008AD330008B933000889
:1001D000B5280008C5330008B5280008B528000870
:1001E000B5280008B5280008B5280008B52800087B
:1001F000B5280008B5280008B5280008B52800086B
:10020000B5280008B5280008B5280008B52800085A
:10021000B5280008B5280008B5280008B52800084A
:10022000B5280008B5280008B5280008000000001F
:10023000B5280008B528000800000000B52800080F
:10024000B5280008B5280008B5280008B52800081A
:10025000B5280008B5280008B5280008B52800080A
:10026000B5280008B5280008B5280008B5280008FA
:10027000B5280008B5280008ADEB00080000000014
:10028000B5280008B5280008B528000800000000BF
:0802900000000000B528000881
:1002A00010B5054C237833B9044B13B10448AFF3B0
:1002B00000800123237010BD3006002400000000E0
:1002C0002C30010808B5034B1BB103490348AFF3B9
:1002D000008008BD00000000340600242C30010816
:1002E000034613F8012B002AFBD1181A0138704776
:1002F00001F0FF01102A2BDB10F0070F08D010F8D7
:10030000013B013A8B422DD010F0070F42B3F6D1DA
:10031000F0B441EA012141EA014122F007047FF0F3
:1003200000070023F0E80256083C85EA010586EA4A
:10033000010685FA47F5A3FA87F586FA47F6A5FA86
:1003400087F68EB9EED1F0BC01F0FF0102F0070292
:1003500032B110F8013B013A83EA010313B1F8D13D
:100360000020704701387047002D06BF354603381E
:10037000073815F0010F07D1013015F4807F02BF57
:10038000013015F4C03F0130F0BC0138704700BFA8
:1003900053B94AB9002908BF00281CBF4FF0FF31EC
:1003A0004FF0FF3000F074B9ADF1080C6DE904CEE8
:1003B00000F006F8DDF804E0DDE9022304B0704740
:1003C0002DE9F047089D04468E46002B4DD18A4208
:1003D000944669D9B2FA82F252B101FA02F3C2F13B
:1003E000200120FA01F10CFA02FC41EA030E9440CC
:1003F0004FEA1C48210CBEFBF8F61FFA8CF708FBED
:1004000016E341EA034306FB07F199420AD91CEBC4
:10041000030306F1FF3080F01F81994240F21C81F6
:10042000023E63445B1AA4B2B3FBF8F008FB10333E
:1004300044EA034400FB07F7A7420AD91CEB040473
:1004400000F1FF3380F00A81A74240F20781644443
:10045000023840EA0640E41B00261DB1D4400023C8
:10046000C5E900433146BDE8F0878B4209D9002D2C
:1004700000F0EF800026C5E9000130463146BDE8B6
:10048000F087B3FA83F6002E4AD18B4202D3824220
:1004900000F2F980841A61EB030301209E46002DCF
:1004A000E0D0C5E9004EDDE702B9FFDEB2FA82F224
:1004B000002A40F09280A1EB0C014FEA1C471FFA82
:1004C0008CFE0126200CB1FBF7F307FB131140EA69
:1004D00001410EFB03F0884208D91CEB010103F136
:1004E000FF3802D2884200F2CB804346091AA4B2F8
:1004F000B1FBF7F007FB101144EA01440EFB00FECC
:10050000A64508D91CEB040400F1FF3102D2A64530
:1005100000F2BB800846A4EB0E0440EA03409CE7CF
:10052000C6F12007B34022FA07FC4CEA030C20FA7C
:1005300007F401FA06F31C43F9404FEA1C4900FA9C
:1005400006F3B1FBF9F8200C1FFA8CFE09FB181119
:1005500040EA014108FB0EF0884202FA06F20BD98C
:100560001CEB010108F1FF3A80F08880884240F2DC
:100570008580A8F102086144091AA4B2B1FBF9F020
:1005800009FB101144EA014100FB0EFE8E4508D91B
:100590001CEB010100F1FF346CD28E456AD90238A0
:1005A000614440EA0840A0FB0294A1EB0E01A14285
:1005B000C846A64656D353D05DB1B3EB080261EBF3
:1005C0000E0101FA07F722FA06F3F1401F43C5E9CD
:1005D000007100263146BDE8F087C2F12003D84003
:1005E0000CFA02FC21FA03F3914001434FEA1C4745
:1005F0001FFA8CFEB3FBF7F007FB10360B0C43EA37
:10060000064300FB0EF69E4204FA02F408D91CEBE6
:10061000030300F1FF382FD29E422DD902386344E4
:100620009B1B89B2B3FBF7F607FB163341EA034184
:1006300006FB0EF38B4208D91CEB010106F1FF38D3
:1006400016D28B4214D9023E6144C91A46EA0046CA
:1006500038E72E46284605E70646E3E61846F8E65C
:100660004B45A9D2B9EB020864EB0C0E0138A3E7A5
:100670004646EAE7204694E74046D1E7D0467BE786
:10068000023B614432E7304609E76444023842E7FE
:10069000704700BF00487047A02C0108034A044B74
:1006A00000280CBF10461846704700BFB42C010844
:1006B000F82C010800487047642C01082DE9F0432C
:1006C00089B020B3032829D057D82F4B53F8206086
:1006D0003046FFF705FE2028024628BF20220028CA
:1006E0004DD02A4D711E28460B4611F8014F02339A
:1006F00020F8024F9B1B9A42F6D8531C5B0043F430
:1007000040739BB221482B8009B0BDE8F0831F4D98
:1007100040F209424FF441736A80F3E710216846C2
:1007200002F0EEF810288646184D28BF4FF0100E44
:10073000E0B1E8460027164C2E460DF1100C0137AB
:10074000043694E80F008CE80F0018F8012B08A974
:10075000BE4502F00F0301EB12190B4413F8103CD5
:10076000338019F8103C26F8023CE8D84FEA8E0393
:10077000023343F440739BB2C4E70020C4E740F265
:100780000233024DBEE700BF482D01084C0600248D
:10079000342C0108012808D80A7832B1012A10B592
:1007A0000E4C22540CD0012010BD4FF0E023D3F8A2
:1007B000F03DDA0702D500BE0020704700207047E8
:1007C00000F008FA0028EED14FF0E023D3F8F03D16
:1007D000DB0701D500BE10BD002010BD900600242F
:1007E0000378024613F0050309D1017811F0050FD3
:1007F00005D10378012043F00403137070470020F3
:10080000704700BF30B5039CBDF810E0A6447445A6
:1008100015D225782544AE4511D394F801C0BCF11A
:10082000050F0ED0BCF1040F16D094F800C064443C
:10083000A64504D994F800C0A444E645EDD20120B1
:1008400030BD94F802C00CF00F054FEADC1C01EB40
:10085000450505F80C00E8E7E578002DE5D194F8AA
:1008600002C09C4502D202F80C00DEE74FF0E02304
:10087000D3F8F00D10F00100E2D000BE284630BDE4
:10088000002343810381704730B5054683B0ABB187
:10089000187883B204E0D21A0C68014492B22C603A
:1008A0009342F8D90AB903B030BD002301A80193DF
:1008B00011F08EF9019B2B6003B030BD0423184664
:1008C000EEE700BF2DE9F04F85B085880F468046E2
:1008D000BDF838400F991E1B48BF06EB4506B6B25F
:1008E00026B3B54226D3964228BF1646A54203D862
:1008F000641BA4B2A542FBD9002900F082802B1B07
:10090000D8F800B09BB20BEB04099E421AD80878C5
:100910003246864283B207D3D21AD9F800108144F6
:1009200092B239609A42F7D2002A78D1304605B0A7
:10093000BDE8F08F9D422E4694BF5B1B5B199CB2B5
:100940004481D0E791F800A0CAF100021FFA8AF8AA
:100950001A4052450092C0F08E804946A2EB080230
:100960000868514492B238604245F7D2002A62D1F9
:100970000AF1FF32751B13402C4413F0FF02A4B29E
:100980002CD0A8EB0205009B02A80092ADB24B440C
:100990001FFA82F9A542194628BF254611F018F919
:1009A000009AEDB22DB102AB594698182A4611F0C3
:1009B0000FF909EB050202A91FFA85F9424552D346
:1009C000A2EB08020B68514492B23B604245F7D259
:1009D000002A48D1A4EB0904AB44A4B2002CA5D052
:1009E00044450AD3A4EB0804DBF80030D344A4B296
:1009F0003B604445F6D2002C98D00023224659464D
:100A00000FE0A5EB0409D8F800101FFA89F921447A
:100A10004E451AD83246384611F0DAF886E70023F8
:100A2000494603A8039311F0D3F8039B30463B607B
:100A300005B0BDE8F08F00200193039003A811F0EA
:100A4000C7F8039A019B3A6092E74A46384611F08C
:100A5000BFF8721B07EB0900D8F80010224492B2CD
:100A600011F0B6F862E7002303A8039311F0B0F881
:100A7000039B3B60AEE7009A4946002A3FF478AFFB
:100A8000D9E700BF30B583B0044601930389458997
:100A90009BB2ADB20095FFF715FF6289A18892B2B3
:100AA00013189BB29A424FEA410202D8B3EB410FAE
:100AB00001DB9B1A9BB2638103B030BD00207047FD
:100AC0002DE9F041204D2978FF2916D000248046D9
:100AD0001E4F23461E4E8B4203EBC30229D23368BE
:100AE00013EB820327D0DB6840460134984729780E
:100AF000E3B24A1CD2B29A42EDD8164B50220021E2
:100B0000184611F073F84FF0FF32C0F81B20C0F800
:100B10001F20C0F82320C0F82720C0F82B20C0F8E1
:100B20002F20C0F83320C0F83720A0F83B20BDE8C4
:100B3000F0813B46D8D04FF0E023D3F8F03DDB07FF
:100B4000F5D500BEBDE8F08198060024F517000831
:100B500094060024DC060024034B10B1187801F041
:100B600027BB187801F03CBB18000024704700BF79
:100B70000020704700207047002070470022034685
:100B800010461A70704700BF024B187E003818BF1D
:100B900001207047DC060024024B987D003818BF06
:100BA00001207047DC060024084A08B5937D03F055
:100BB000FF001BB1D07D10F0020000D108BD044B36
:100BC000187801F05BFB012008BD00BFDC060024A3
:100BD000180000242DE9F047DFF8D88098F800309D
:100BE000FF2B43D10C46002951D0002150222C4D1F
:100BF00006462C484FF0000A10F0F8FF2A4B05F18A
:100C000008002A4F83F800A0FFF73AFE284B384629
:100C1000DFF8A4901D60FFF7B1FF3978C9F8000034
:100C2000FF2929D05546DFF894A02B46994205F1BB
:100C3000010503EBC3021DD9D9F8003013EB820381
:100C40001AD05B68C3B198473978EBB24A1CD2B26C
:100C50009342EBD32146304688F8006001F016FA43
:100C60000446A0B1304601F0A3FA00E0012420467A
:100C7000BDE8F0875346E6D04FF0E023D3F8F03DCF
:100C8000DA0700D500BE00242046BDE8F0874FF00B
:100C9000E023D3F8F03DDB07F5D500BEE7E700BF62
:100CA00004000024DC060024F00700249806002439
:100CB0002C0700241800002494060024D9170008EB
:100CC000704700BF10B5054C636818B913B92368A5
:100CD000984763680133636010BD00BF1C000024A7
:100CE000054A536823B1013B53600BB9012800D179
:100CF00070471368012018471C0000242DE9F047B5
:100D0000DDE90867002A39D00C469A46914600254D
:100D1000DFF8708013E0A3882146C3F30A03DBB138
:100D200098F8000001F0FCFAE8B1A3780135DA097F
:100D300014BF3B7033704D4523781C441ED063783C
:100D4000052B10D1E17801F0030151450BD1A178B9
:100D500001F00F010829DED94FF0E023D3F8F03D70
:100D6000DA0700D500BE4FF0E023D3F8F03DDB07F3
:100D700002D40020BDE8F08700BEFAE70120BDE8FC
:100D8000F08700BF180000240B4605480021DA094F
:100D900003F00F033D3202EB43031844FFF720BD7D
:100DA000DC0600241A4801F00F0C00EB4C0030B5B3
:100DB00000EBD11483B094F83D009DF81850C007A3
:100DC0000AD54FF0E023D3F8F03DDA0702D4002033
:100DD00003B030BD00BEFAE7009594F83D0040F046
:100DE000010084F83D000B48007801F019FB002851
:100DF000EED194F83D304FF0E02203F0FA0384F88E
:100E00003D30D2F8F03DDB07E1D500BE03B030BD88
:100E1000DC060024180000240A4BDA8800B583B0F1
:100E20006AB193F90030002BACBF80210021002370
:100E30001A460093FFF7B6FF03B05DF804FB80216C
:100E4000F5E700BFDC0600241A4AB2F80CC0D189CD
:100E5000ACEB01039BB230B5402B044692F9000085
:100E600085B028BF402300280EDB8C454FF00001E1
:100E700008D0114A002520460095FFF793FF05B0E2
:100E800030BD80210022F5E78C45FAD092680A4DEA
:100E9000AA420AD05AB1114628461A46039310F0C6
:100EA00097FE80212A46039BE4E78021E2E7104673
:100EB000E5E700BFDC0600249C060024174910B5B6
:100EC000CC8882B08A60A34228BF23468B814CB174
:100ED000844602B9BBB96046FFF7B6FF50B10120A6
:100EE00002B010BD2346224680210094FFF75AFF2E
:100EF0000028F4D14FF0E023D3F8F03DDB0709D50B
:100F000000BE02B010BD4FF0E023D3F8F03DDA0789
:100F100000D500BE002002B010BD00BFDC060024DA
:100F20002DE9F04FDFF898928DB099F80030FF2B43
:100F300028D010249C4DDFF88CA2DFF88CB22E68EC
:100F4000002033689847B288002306F1080009A9F9
:100F5000FFF798FD0346326801201E4690478EB188
:100F60009DF82530013B072B00F2D280DFE803F02B
:100F70009C958C827B350D040A9B0BB10B9898478E
:100F8000013CDCD10DB0BDE8F08F9DF82810874EF4
:100F900001F00F0706EB470303EBD11393F83D2055
:100FA00002F0FA0283F83D20002F00F08980804A89
:100FB00093F82B30127893427FD203EBC303DAF815
:100FC000002012EB830300F0C3809E690B9B9DF809
:100FD00029209DF82400B047D2E7764B1A78002AE2
:100FE000CED01A78013AD2B21A701B7803F0FF0201
:100FF000002BC5D10CAB6D4E4FF0010C9DF8248039
:10100000326186F814C086F83D2086F83E2013E948
:101010000300C6E9022286E80300337803F0600784
:10102000602F0DD0402F00F0CB8103F01F02012A6A
:1010300000F09881022A00F06981002A00F0C68041
:101040004FF0E023D3F8F03DD80702D500BE9DF85D
:1010500024804046002101F017FA80219DF82400E9
:1010600001F012FA8CE7514B1B7D002B88D001F068
:1010700079FC85E74D4B1A7D002A81D0D87DC0F3DD
:10108000400001F067FC7BE7484B9B7EDA077FF569
:1010900077AF0A98FFF76AFD72E79DF82400FFF723
:1010A0000FFD01F051FC6BE79DF82400FFF708FDF0
:1010B0003E4B9DF828205A7662E749D13E4E85E79F
:1010C000F0889DF824800B9A58B396F90030002BD5
:1010D00047DA002947D0B3681344B360F389134457
:1010E0009BB29842F38101D03F2A4DD833692BB18E
:1010F0002E4A02214046984700284CD0002339460A
:1011000040461A460093FFF74DFE00287FF438AFA3
:101110004FF0E023D3F8F03DDB077FF531AF00BEA1
:101120002EE780291FD096F90030002BC0F26E8187
:10113000B368002B3FF424AF20498B4222D01846DD
:101140000392802710F044FDB368F088039AC3E748
:101150004FF0E023D3F8F03DD9077FF513AF00BE81
:1011600010E78029E4D1002AD2D110494046FFF788
:10117000A7FD3369002B3FF403AF40460B4A032120
:101180009847FDE68027A7E74046FFF75DFE002869
:101190007FF4F6AEBCE70146404601F075F94046E3
:1011A000802101F071F9EBE62C070024DC06002415
:1011B00098060024F0070024211B00089C06002448
:1011C0001800002494060024582D0108202F00F058
:1011D0002481002F7FF434AF7278092A3FF630AFB4
:1011E00001A151F822F000BFF7120008DD1200083B
:1011F00041100008BF12000841100008B112000899
:1012000061120008411000084B120008111200087A
:10121000B278337E9A4208D0002B40F0E6813276D5
:10122000002A40F06D8101F08FFBF388002B60D025
:1012300096F90030002BA8BF80273946002340468E
:101240001A460093FFF7AEFD9AE6337E8DF8223002
:10125000404601230DF12202A549FFF72FFE8FE63C
:101260007088030AC0B25A1E0E2A3FF6F2AE01A1E0
:1012700051F822F04F1600083D1600082F160008FE
:101280005310000853100008171600083D160008F8
:1012900053100008531000085310000853100008A2
:1012A000531000085310000853100008D71400080A
:1012B0004046B17800F0B0FF0123737560E6728894
:1012C000012A7FF4C6AEF27D42F00202F275F28886
:1012D0007AB113F0800F08BF8027AEE77288012A29
:1012E0007FF4B7AEF27D6FF34102F275F288002A07
:1012F000EFD18027A1E7F37D40460DF122027C4922
:10130000ADF822300223FFF7D9FD39E6317901F03B
:101310000F02082A3FF694AE06EB4203520003EB9D
:10132000D1130492734A93F82B00CB0912789042A0
:101330004ED200EBC002DAF8000000EB820203920A
:10134000002F4AD0039B002B3FF483AE5B694046DD
:10135000674A01213361984700287FF411AE9DF858
:10136000248076E633790F2B3FF673AE3344614A1F
:10137000DB7E127893424CD203EBC303DAF80020F1
:1013800012EB83033FF465AE5B69594A0121404685
:101390003361984700287FF4F3AD337813F0600190
:1013A000DDD1727831610A2A00F092800B2AD6D101
:1013B000F288002A7CD013F0800F08BF80213DE71F
:1013C0004D4B6146404632463361FFF777FBC3E73A
:1013D00068D1002F36D1CDF80CB0727802F0FD0044
:1013E000012831D0002A7FF42BAE049A40464049B0
:1013F00016440DF12202334493F83D30C3F3400309
:10140000ADF822300223FFF759FDB9E5B368802714
:1014100062E67FF41EAE394BB7E733790F2B3FF608
:1014200018AE3344334ADB7E1278934208D203EB82
:10143000C303DAF8002012EB83033FF40AAE85E71A
:101440007FF407AE2D4B82E7708888B9012A99F89E
:10145000000005932ED001F017F8049B33441F467B
:10146000059B3B4493F83D2042F0030283F83D2066
:10147000039B002B3FF484AD5B6901211C4A40466D
:101480003361984796F83E10002311F00101336153
:101490007FF476ADF3885BB196F90030002BA8BFDE
:1014A0008021CBE6002F7FF4D4AD0022039294E795
:1014B0008021C3E601F000F8049B33441F46059BDE
:1014C0003B4493F83D2002F0FC0283F83D20CFE737
:1014D0008DF82210BCE6FFF74BFB024600283FF4D4
:1014E0003EAF404653880249FFF7E8FC34E700BFAF
:1014F000DC06002498060024BD0A0008D518000860
:10150000501EC0B2FFF7D6F800285DD04378022BFA
:101510005AD1C379F27D9B1163F30002F2754388BF
:10152000CDF81480C3180797069300F10903CDE99D
:1015300003461E46069BB34203D934783444A34283
:1015400007D2DDF81480079FDDE9034601F0F4F9C6
:101550006BE673780B2B5CD0042B33D1069B4FF0DA
:1015600000089B1B9CB2464B5FFA88F7224608F1A5
:10157000010893F800C0314605980CF10103DBB275
:10158000BB421FD9BC4541D9DAF800304FF0240CDA
:101590000CFB0733B3B11B6998470828E3D9844291
:1015A000E1D31023374A0446D118CDE9006038460C
:1015B000FFF728F930B1324B34441B780133DBB2EA
:1015C000BB4226D8DDE903464FF0E023D3F8F03DD7
:1015D000DB0700D500BE002333764FF0E023D3F8BD
:1015E000F03DDF073FF532ADB9E6002140460492F9
:1015F00000F078FE404600F0B5FE737E404603934F
:10160000FFF75EFA039B049A737608E6DAD15B462D
:10161000C1E726468EE7FFF7ADFA024600283FF401
:101620009EAE404613781849FFF748FC94E6B1880F
:10163000FFF744F802460028F3D190E6022B10D0C1
:10164000FFF79AFA024600287FF44BAF87E6FFF7D0
:1016500021F8024658B1404612230B49FFF72EFCF1
:101660007AE6FFF727F8024600287FF43AAF4FF0FA
:10167000E023D3F8F03DDE073FF5E8AC6FE600BFAE
:1016800098060024F7060024DC060024054B01F030
:101690000F0203EB420202EBD11393F83D0000F07E
:1016A00001007047DC0600242DE9F04F00EB400AF2
:1016B000DFF894801D4683B008EB8A0304460F468A
:1016C000002059789146FFF75FFBB0B34FEA440B17
:1016D0001C4EE7B9182303FB046608364DB1B9F177
:1016E000000F2AD0082D28D849462A46304610F047
:1016F0006FFA5C4400202B46324608EB84080090C9
:1017000098F80110FFF74EFB03B0BDE8F08F1823E7
:1017100006EBCA0A03FB04668AF8087008364DB166
:10172000B9F1000F09D0072D07D849462A46701C89
:1017300010F04EFA0135ADB2DBE7002003B0BDE892
:10174000F08F00BFF4070024240800240120704714
:10175000704700BF38B500EB40000D4B03EB800035
:101760004578FFF711FA0446FFF716FA80F00100FA
:10177000002D0CBF002304F00103184000D138BD38
:1017800029460020FFF782FF80F00100C0B238BD7B
:101790002408002400B54FF0000C83B08DF8002021
:1017A0008DF801C093B11A689B88CDF80220ADF87E
:1017B0000630012803D9002003B05DF804FB08239C
:1017C0006A46FFF771FF03B05DF804FBCDF8023005
:1017D000ADF80630EDE700BF044B0022C3E900225C
:1017E000C3E90222C3E90422704700BF2408002491
:1017F00001207047044B0022C3E90022C3E9022202
:10180000C3E90422704700BF240800242DE9F041F9
:101810004B7982B0032B14D1064608790C46C0EBF5
:10182000C0051235ADB2954205D8284F7A78002A06
:101830004AD07A7B62B14FF0E023D3F8F03DDA076B
:1018400004D40025284602B0BDE8F08100BEF8E7C8
:101850000C374FF001082278A31859782129EAD1D2
:10186000BB60A15C0246304619447B1C0193BB1C43
:1018700000930323FFF742FA0028DCD0A379012B61
:1018800001D1E379FB700123B978BB71A3783B7078
:10189000BB68B3F80730BB800029D3D00C4B08EBF2
:1018A0004802304603EBC2020023103200930823A3
:1018B000FFF778FA0028C5D14FF0E023D3F8F03DC8
:1018C000DB07BFD500BEBDE79046C4E7240800246F
:1018D000F4070024137803F01F0CBCF1010F13D19F
:1018E0002DE9F04715468C4F92880C46397882B026
:1018F000D2B20646914209D0397B914200F0E18094
:10190000002002B0BDE8F087002070474FF00008CB
:10191000C44613F0600306D1012C00F0B88001200A
:1019200002B0BDE8F087202BEAD16B78013B0A2B8F
:10193000E6D801A252F823F02D1A0008111A000867
:10194000F51900080119000801190008011900081B
:101950000119000801190008AD19000885190008CF
:1019600065190008012C1BD0032CD8D1698808EB1D
:1019700048086046C9B207EB8807B97101F000F862
:101980000120BEE7012CCAD1698808EB48086046EF
:1019900007EB8807090AF971FFF7D8FE0028AFD0D6
:1019A00029463046FFF738FA0120AAE7012C00F05B
:1019B0009A80032CB3D1698808EB4808ED880A0A9D
:1019C0005648082D2C464FEAC80628BF082411F0B7
:1019D000FF0100EBC80307D0012D05D9805D8842C7
:1019E00002D1013C0133A4B26046009400F0CEFF66
:1019F000012086E7012C92D108EB480829463046A1
:101A0000234607EB88020632FFF758FA204678E7AC
:101A1000012C84D108EB480829463046234607EBC1
:101A200088020732FFF74AFA20466AE7012C7FF462
:101A300076AFB5F8069008EB48086B884846374FF4
:101A40004FEAC80A08284FEA132207EBC80828BF44
:101A5000082013F0FF015CD0B9F1010F59D901380A
:101A600008F1010307F80A1080B20090604600F008
:101A70008BFF23189BB2002B44D14FF0E022D2F809
:101A8000F02DD2077FF53CAF00BE184639E76B78E2
:101A9000062B7FF435AF6B881B0A212B13D0222B2A
:101AA0007FF42EAF08EB48086046FEF7F7FD2946A5
:101AB00007EB880702463046BB88FFF7FFF9204650
:101AC0001FE7E04625E708EB480807EB8807BA68F8
:101AD000002A3FF415AF13782946304602B0BDE81E
:101AE000F047FFF7EBB9EB88082B3FF609AF08EB9F
:101AF00048080A4A2946304602EBC802FFF7DEF9D9
:101B00002046FEE6424629463046FFF7D7F9012037
:101B1000F7E643460024A8E724080024F40700243D
:101B2000F0B52F4E83B00546B4788C4213D0707850
:101B3000884231D0B07B884249D0707B88424BD0FC
:101B40004FF0E023D3F8F03DDA0702D4002003B0D1
:101B5000F0BD00BEFAE7002774783846A1421DD0D8
:101B60009BB222BB1F4C1146009302223C442346E9
:101B700000F00CFF0027B178082322462846009782
:101B8000FFF710F90028E2D14FF0E023D3F8F03D41
:101B9000DB07DBD500BEDAE70027384672B9124909
:101BA0009AB2394400F0EEFE012003B0F0BD0D4CB6
:101BB00002213C442246FFF7CBFDDBE70A4A9BB2F9
:101BC00001213A44FFF7C4FD012003B0F0BD747B4E
:101BD00018270C360120C1E718270120DEE700BFD7
:101BE0002408002404080024FC070024012870B401
:101BF0003BD9374D4FEA400C364C604401F00F069C
:101C000004EB8004207AB04224D90332C9094FEA98
:101C1000920C624611D1CCF30D026C6A02F10803FA
:101C200003445B009BB29C4227D22B4A92889A4283
:101C300010D301206B6270BC7047617A2648F9B9F5
:101C4000264909883141C90720D4696A83886144DB
:101C50008B4233D24FF0E023D3F8F03DDB0702D4C0
:101C6000002070BC704700BEFAE71A4C00EB40053C
:101C70004FEA400C54F82550BFE7012070BC704774
:101C80008479A142E6D901348471D9E7002EDCD0F1
:101C9000002BDAD0696A4FEA420C838801EB4201DB
:101CA0008B42D7D3A3EB0C0292B282803F3642EA3A
:101CB0000C42012005EB86056A60D2E79A1A92B2BF
:101CC0008280002EF2D142EA0C420120AA62C8E7CB
:101CD000000008407C2D01083C0800244408002432
:101CE000012810B417D90F4942000F4B02440F4C82
:101CF00003EB82031A7A5B891832A38043EA034319
:101D000052005DF8044B4A628A6C4022CB65002386
:101D10008021FFF76BBF044B00EB4001420053F8FA
:101D20002110E3E7000008407C2D01083C08002456
:101D300001282DE9F04143D9284C91F802C08B8845
:101D40000CF00F00D4F80888254DC3F30A034700B0
:101D500018F0060F4FEADC16864607EBDC1205EB9F
:101D60000212538191F8068007D108F1FF324FF03B
:101D7000010808FA02F85FFA88F8CA7843F40043C9
:101D8000374402F0030105EB07154A1E43EA81437D
:101D900085F80C8018BF012243EA02731A46AEB9D7
:101DA00000F1580200F1100E5201A350D4F81C2883
:101DB000012303FA0EF31343C4F81C38BDE8F08185
:101DC000084B00EB400053F82040B6E748306CF376
:101DD000995240012250D4F81C28E9E7000008403D
:101DE000480800247C2D0108012830B528D9454B2E
:101DF000C809002A01F00F0180F0010C14BF4FF454
:101E00000015002510BB01EB0C104FEA0C1C03EB76
:101E10004010D0F80049002C00DA81BBD0F800490E
:101E20002C43C0F80049012A09D041B18C4403EB8E
:101E30004C13D3F8002922F40042C3F8002930BD26
:101E4000314B00EB400053F82030D1E701EB0C1E82
:101E50004FEA0C1C03EB4E1EDEF80009002832DBB3
:101E6000DEF800492C4344F00064CEF800498801B4
:101E700040F02000186118698506FCD4D3E7D3F838
:101E8000044844F40074C3F804485C692406FCD593
:101E9000D0F800492C4344F08044C0F800490CEBD2
:101EA000010003EB4010D0F8084900F6081EA40713
:101EB000F9D50220CEF80000D3F8040840F4806081
:101EC000C3F80408AFE7DEF8000940F00060CEF880
:101ED0000009DEF808094006FBD5DEF800490CEBE6
:101EE00001002C4303EB401044F08044CEF800493D
:101EF000D0F8084900F6081EA407F9D50220CEF84C
:101F00000000B4E7000008407C2D01082DE9F04FE7
:101F100000EB411883B0D8F81039C3F3C94ABAF1BD
:101F2000000F3FD04A01002701311F4E3D46DFF828
:101F30007CB000EB013916440BE001378DF800E06E
:101F4000CDF804C0FEF79EFDBBB225449A45ADB264
:101F500024D9D8F810294FF0040E748B4FF0000CE0
:101F600092B2D8F818096B46494694420BEA8000B1
:101F700028BF14468442224610D870690028DCD15C
:101F80000346316948460137FEF77EFC3369254434
:101F90002344ADB23361BBB29A45DAD8284603B0C8
:101FA000BDE8F08F5546F9E748080024FCFF030020
:101FB0000128F8B50D465AD9304C501E18BF0120E3
:101FC00075BB2F4F012337F81260402E314628BFD2
:101FD0004021761A27F8126005EB001041EAC3434E
:101FE00004EB4010C0F81039D0F80069C6F307437D
:101FF000C6F3076C03F00C036CF07B0C042B6CF342
:102000001F6607D1D4F80838DB054CBF46F0805670
:1020100046F00056012AC0F8006900D191B9F8BD18
:1020200002EB4503174901EB03114E8909898B190E
:10203000013BB3FBF6F39BB2012B38BF0123C3F383
:102040000903C9E729462046FFF760FF002DE6D0C7
:102050000C4B03EB45131B8B181A0028DFDD012303
:10206000D4F83418AB400B43C4F83438F8BD064BF1
:1020700000EB400053F820409FE700BF00000840FD
:102080003C080024480800247C2D010838B50022B3
:10209000424B01280546C3E9002252D9404C002199
:1020A000204600F04DFA014600222846A36C0D465A
:1020B00000F054FA00284AD0D4F8003823F0030383
:1020C000002D36D143F0030343F00403354AC4F82E
:1020D0000038D4F80438927843F00203C4F8043886
:1020E000E36823F0C04343F08043E360236823F0B8
:1020F0001003002A33D143F0C0032360A36BE26BCB
:10210000B2F5005F3AD3E26BB2F5A04F40D223F4B0
:102110000013A363244BA2691343A361A36843F094
:102120000103A360D4F8043823F00203C4F8043890
:1021300038BDA26C02F0C002802AC5D143F48043AE
:10214000C2E71A4B00EB400253F82240A7E74FF0DA
:10215000E023D3F8F03DDB07EAD500BE38BD2360AD
:10216000A36BE26BB2F5005F0DD3E26BB2F5A04F4B
:1021700001D323F0607343F40013CAE723F4402330
:1021800043F40013C5E723F4001343F40023C0E72E
:1021900023F0087343F0C073BBE700BF3C08002482
:1021A0000000084044080024043000807C2D010811
:1021B000094B00EB400003EB8000426813B2002B98
:1021C00008DB02F01F0201215B09044801FA02F258
:1021D00040F82320704700BF7C2D010800E100E09B
:1021E0000B4B00EB400003EB8000426813B2002B66
:1021F0000DDB01215B0902F01F020648203301FAC2
:1022000002F240F82320BFF34F8FBFF36F8F704768
:102210007C2D010800E100E0012838B504461FD9F3
:10222000124AD2F80038002023F4FE6343EA011179
:10223000C2F80018FEF746FD0D4B5A8B5AB100212B
:102240001A7F0C4D20465A77012219836980C3E911
:102250000411FFF7ADFE0020BDE83840FEF740BD99
:10226000054B00EB400253F82220DAE7000008405B
:10227000480800243C0800247C2D0108012810B4E3
:1022800022D9144AD2F804180824134841F0010155
:10229000124B0068C2F804185461B0F57A7F916956
:1022A000A3FB004341F008014FEA9313916102D36D
:1022B00000BF013BFCD1D2F804385DF8044B23F099
:1022C0000103C2F804387047054B00EB400053F897
:1022D0002020D7E70000084070000024D34D621092
:1022E0007C2D010801280FD90A4B0B4AD17131B15D
:1022F00008225A619A6942F008029A6170479A6905
:1023000022F008029A617047044B00EB400053F83A
:102310002030EAE7000008403C0800247C2D01083A
:10232000CB7803F00303A3F1020370B5B3FA83F390
:102330008A880C468978C2F30A025B090646FFF7D1
:1023400055FC054640B94FF0E023D3F8F03DDB07DC
:1023500000D500BE284670BD30462146FFF7E8FC98
:10236000284670BD01282DE9F041074649D9284D7E
:102370004200284B3A440020002403EB820393F8E8
:102380000880FEF79FFC244BB8F1010F9C714FF0C1
:102390000113C5F81C3820D92049012205EB42134E
:1023A0000132D3F800095FFA82FC002805DAD3F87D
:1023B000000940F09040C3F80009D3F8006B4C8747
:1023C000002E05DAD3F8000B40F09040C3F8000B64
:1023D000C4454C8501F12001E0D34FF484632B61A7
:1023E0002B699B06FCD410232B612C6914F010047C
:1023F000FBD13846FFF774FC2046BDE8F041FEF7FC
:102400006FBC044B00EB4001420053F82150B1E790
:10241000000008407C2D01083C08002448080024E6
:102420002DE9F0479DF8207001F00F0ACC09804695
:102430003846914604EB4A051E46FEF743FC104918
:102440002B0101EB051255897DB141F80390002362
:1024500016815360137B5373BAF1000F0BD02246E1
:10246000514640460125FFF7A3FD3846FEF738FCEC
:102470002846BDE8F087034B23F81460EFE700BF60
:10248000480800243C080024012838B50C4608D927
:10249000074D01222146FFF7A7FC230700D1AB6CB3
:1024A00038BD044B00EB400253F82250F1E700BF67
:1024B000000008407C2D0108012816D90E4BCA09DE
:1024C00001F00F0182F0010201EB021103EB411157
:1024D000D1F8003923F40013C1F80039D1F80039DC
:1024E00043F08053C1F800397047044B00EB4000C3
:1024F00053F82030E3E700BF000008407C2D0108BE
:102500000369002BFCDA036C44F2092102699BB2D7
:1025100042F001028B42026106D80369DA07FCD45B
:102520000369002BFCDA704703699B00FCD5026944
:10253000024B134043F000530361F1E7FEFFFFDF5E
:10254000836C13F0C00F14BF0120002029B913F4CD
:10255000407F00F0010018BF0020704701282DE9DE
:10256000F041154640F2D380B64C2046226CB64B63
:10257000B64E1340B64AB34218BF934204D002F598
:102580008032934240F0B180A36823F00103A3603E
:10259000002949D1E66846F04002E260A26B42F4AD
:1025A0008032A263A74A904200F01081A94A90426B
:1025B00000F0FE802046FFF7A3FFA74A26F47053E1
:1025C000A649126843F4A2538A42E360C0F0AD808A
:1025D0004FF4C052E36823F470531343E360E3689D
:1025E0004FF4846243F00703E360D4F8003E23F025
:1025F0000F03C4F8003E226123699B06FCD410231C
:102600002361236913F01003FBD14FF0FF326261A5
:102610006260A361002D00F08180A368284643F02A
:102620002603A360BDE8F081E768A26C236DC3F3C5
:10263000072313F0C00F02F0C00300F09E80802B30
:1026400000F0DB8027F0500612F0C00F46F00806BD
:10265000E66040F0C3804FF01008A36B43F4803372
:10266000A363784B984200F0E4807A4B984200F0E4
:10267000CE80204626F47056FFF742FFB8F1100FC7
:1026800000F002814FF410531E43E660724B734A10
:102690001B6893429CD2724A934200F29180714A25
:1026A000934280F09080704A934200F2F180A2F54C
:1026B000DB12A2F5BA52934200F2F080A2F5B712F3
:1026C000A2F55872934200F2EC80684A934280F07F
:1026D000EB80674A934280F0EA80664A93422CBFBF
:1026E0004FF460524FF4705274E74FF0E023D3F888
:1026F000F03DDA0700D500BE4FF0E023D3F8F00D2F
:1027000010F001008ED000BE0020BDE8F0815A4AD2
:1027100000EB400352F82300044627E7A369012099
:1027200043F01003A361BDE8F0814D4B9A4247D8B6
:102730004C4B9A4247D24C4B9A4200F2A980A3F5E7
:10274000DB13A3F5BA539A4200F2A880A3F5B7139E
:10275000A3F558739A4200F2A480444B9A4280F049
:10276000A380434B9A4280F0A280424B9A422CBFF6
:102770004FF460524FF470522CE7802B44D027F076
:1027800058064FF0080812F0C00FE6603FF465AF3E
:10279000A36B204626F4705623F48033A363FFF71F
:1027A000AFFEB8F1100F24D046F41056E66016E7DD
:1027B000324AD2F8003123F08063C2F80031F9E6E2
:1027C0004FF4E05206E74FF4005203E72B4AD2F8E9
:1027D000003123F08053C2F80031EBE6284E20464A
:1027E000A36B3E4023F4803346F00806A363FFF753
:1027F00087FE46F4A056E660F1E64FF01008214E41
:102800003E4046F01006BEE74FF00808F7E71B4AC7
:1028100026F47056D2F8003123F08063C2F80031FC
:10282000FFF76EFEB8F1100F35D046F41056C660B3
:102830002CE7124AD2F8003123F08053C2F800315D
:1028400017E700BF000008400000FFFF0000544FE2
:102850000000315500000440700000240048E801E9
:10286000DF9DA30100366E013FA44C018073060179
:102870000024F400C0E1E400942D01080044025853
:10288000AFC3FFFF37FFC5FF46F4A056E660FDE685
:102890004FF410529EE64FF4A053F5E64FF4205249
:1028A00098E64FF4305295E64FF4405292E64FF4DA
:1028B00050528FE6FEE700BF0B480C4A904203D00F
:1028C000121A0B490FF084F90A480B4A904203D0C0
:1028D000121A00210FF08AF902F0CAF90FF04CF930
:1028E00000F056F8FEE700BF000000242C0600248C
:1028F0005C30010830060024F05F0024704700BF00
:102900000D29844613D8084699B10CF1FF334421B0
:1029100010B4084C01E014F8011F9A1C59700133DF
:10292000A2EB0C029042F6D85DF8044B70470E20E3
:10293000EBE77047AC2D0108024B4FF47A721A6036
:10294000704700BF24000024014BFA221A60704730
:1029500024000024024B40F6C4121A60704700BFE6
:102960002400002408B5FEF70FF90028034B14BF1C
:102970004FF47A72FA221A6008BD00BF24000024C6
:10298000704700BF704700BF00207047704700BF0E
:1029900080B5294884B000F06DF80021264800F089
:1029A0002BF90121254800F07BFC254B01A90020D3
:1029B0001B88244D244E254F254CADF80430FDF7DF
:1029C000E9FE00214FF0FF30FEF7AAFA2B688BB129
:1029D00001F066FF3368024629681748D21A0B4493
:1029E0008A4207D33978336000F046F83B7883F0A9
:1029F00001033B7001F054FF2368C01A0A33092811
:102A0000DFD92360FEF7C8F8804610B1FEF7CCF896
:102A1000D7E7FEF79FFE0028D3D04FF0040C02AB9F
:102A2000424641464046CDF80880ADF80C808DF80E
:102A300008C0FEF7AFFEC4E774090024980900241B
:102A4000FC2B010824000024680900246C090024E0
:102A50007009002404480023044A054903604361C7
:102A60000362C3630FF06CB87409002400000024F3
:102A7000FD280008704700BF253000F081BE00BF70
:102A800010B540F203338EB000244FF60B7240F2C3
:102A90000341ADF8083009A80123ADF81020ADF8C6
:102AA00024202246ADF80C100094029907940C944F
:102AB000CDE90544CDE90A4400F08AFC04A80123CD
:102AC00022460399009400F083FC09A800F066FDFB
:102AD00010B901200EB010BD04A800F05FFDA042A7
:102AE0000CBF022020460EB010BD00BF2DE9F04102
:102AF00003239AB0012700240646CDE914373B4B47
:102B0000CDE9104340F20453CDE91647ADF8483003
:102B1000FFF7B6FFB842054625D0022845D040F65B
:102B20000132334B0DF12C081894ADF82C200B9882
:102B30001997CDF84A3000F0E3F810A906F13C00EF
:102B400001F0F2FC302003224FF07E5341460D93FA
:102B50000E93CDE90B02F26B06F1140000F04CFB72
:102B60001AB0BDE8F0811023214A06A906908DF81D
:102B700028300DF12C081F4BCDF84A200793029402
:102B8000CDE91804CDE9080402A800F079FF082374
:102B9000029A03A94046ADF80C508DF80E400495FA
:102BA00005930B9400F0ECF8C7E700200121104BCF
:102BB0000DF12C083A460094CDF84A304FF60B73CD
:102BC0000C94ADF82C302346CDE9180140F60131C4
:102BD0004046ADF818100699CDE90D4400F0F8FB19
:102BE0002146404600F0E6FCA7E700BF04020404CB
:102BF000040604030704010B2DE9F04704462DEDFC
:102C0000028B82B000294DD0012140F20112002335
:102C10000091ADF804208DF80630364A0127364B76
:102C200004F10409354904F12908626040F2027296
:102C3000A36040F60663E16004F1250AA4F82520AC
:102C4000A4F82930278284F8277084F82B7001F0CB
:102C5000C5FF054601F028FE6946064650BB4DB348
:102C600004F130008DF8067001F040FF072D3CD1D3
:102C700004F114052046FFF739FF284600F0F8FA62
:102C80002846B0EE408A00F0EFFAD0ED007AF8EE78
:102C9000677A88EE277A84ED0E7A02B0BDEC028B5B
:102CA000BDE8F08740F2011300918DF80610ADF8F1
:102CB0000430B2E704F1300001F018FF072D11D005
:102CC0004946204601F024F90EB9002DD0D15046D6
:102CD00000F07AFC404600F077FC04F1120000F0AE
:102CE00079F9C5E7002EF2D1C2E74946204601F046
:102CF0000FF9BDE70508050905070506050A0606DB
:102D000010B584B003460124ADF8040003A8ADF863
:102D10000C30ADF80E4000F057FC214603A800F03F
:102D20002FFD204601F0BEFD002103A800F028FD84
:102D3000204601F0B7FD214603A800F021FD04B0B4
:102D400010BD00BF10B5C2F3002384B00C46017C57
:102D50008DF80D2043EA4402FA2402238DF80C205A
:102D600003AA009400F022FF18B10124204604B009
:102D700010BD04460A2001F095FD204604B010BDA8
:102D8000034670B543F8042B044684B007C983E8B2
:102D90000700A37983B91A210B461E22FA25237452
:102DA0002046ADF80C20022303AA009500F0FEFE99
:102DB00028B1012004B070BD1B210B46EDE70A20AD
:102DC00001F070FD4FF4B85200950223ADF80C20CD
:102DD000204603AA217C00F0E9FE0028E9D10A2060
:102DE00001F060FD41F2027200950223ADF80C2063
:102DF000204603AA217C00F0D9FE0028D9D10A2060
:102E000001F050FD042200950223ADF80C2020466D
:102E100003AA217C00F0CAFE0028CAD10A2001F0D2
:102E200041FD062200950223ADF80C20204603AA9E
:102E3000217C00F0BBFE0028BBD10A2001F032FD4E
:102E400041F2082200950223ADF80C20204603AA87
:102E5000217C00F0ABFE0028ABD10A20064601F031
:102E600021FD0095022303AA217C2046ADF80C60C9
:102E700000F09CFE00289CD1304601F013FD009527
:102E800022790C232046002A8DF80C3003AA4FF03B
:102E9000020314BF622142218DF80D10217C00F045
:102EA00085FE002885D1304601F0FCFC2279D4E96A
:102EB00002310B43DBB20AB943F0400362790AB135
:102EC00043F020030E22FA258DF80D3020460095A0
:102ED00002238DF80C2003AA217C00F067FE002855
:102EE0007FF467AF0A2001F0DDFC10220095022379
:102EF000ADF80C20204603AA217C00F057FE0028E4
:102F00007FF457AF0A2001F0CDFC12210095022377
:102F1000ADF80C1003AA217C204600F047FE0028E3
:102F20007FF447AF0A2001F0BDFC012209212046B1
:102F3000FFF708FF003818BF01203BE7F0B510236A
:102F400087B0234C012200250126002702A9204634
:102F50000195CDE902234FF48052CDE9046708F0D2
:102F600031F9642002F062FC02A94FF4805220463D
:102F7000CDE9046702261027CDE9026708F022F99F
:102F80000322102302A92046CDE9022300230422B4
:102F9000CDE904234FF4805208F014F940F23223B3
:102FA000042202A9019310232046CDE90223019AAD
:102FB000012305924FF48052049308F003F940F680
:102FC0000601204608F01EF9284607B0F0BD00BFF4
:102FD000BC0900241C4B00221C494FF0400C30B5AA
:102FE000054689B00220596007219A601A620124BF
:102FF000DA620A224FF4006EDC6006922022CDE9EC
:10300000000104200821CDE9020103201021CDE9AF
:10301000040108206946C3E904024FF4C072181D78
:10302000C3E906C24FF48052C3E909E208F0A0F8F0
:1030300038B92846FFF782FF003818BF012009B0D1
:1030400030BD204609B030BDB809002440410052CF
:10305000614A0021D0B513688EB00A91002B40F070
:10306000B9805E4B01214FF683700C241160022160
:10307000D3F8D4200026032742F48052C3F8D4208A
:10308000D3F8D42002F480520092009AD3F8E020C2
:1030900042F01002C3F8E020D3F8E02002F0100262
:1030A0000192019AD3F8E02042F04002C3F8E020F8
:1030B000D3F8E02002F040020292029AD3F8E02016
:1030C00042F00802C3F8E020D3F8E02002F0080242
:1030D0000392039AD3F8E02042F48072C3F8E02010
:1030E000D3F8E02002F480720492049AD3F8E0202E
:1030F00042F08002C3F8E020D3F8E02002F0800222
:103100000592059AD3F8E02042F02002C3F8E020AF
:10311000D3F8E02002F020020692069AD3F8E020CD
:1031200042F00402C3F8E020D3F8E0300C9403F03E
:10313000040307930323079A0B93CDE9080108A919
:10314000274803F019FC48F23712022308A9254842
:103150000C94CDE90823CDE90A6703F00DFC4CF28D
:103160000372022308A920480C94CDE90823CDE975
:103170000A6703F001FC40F2FF62022308A91B4822
:103180000C94CDE90823CDE90A6703F0F5FB4FF66F
:103190000C72022308A916480C94CDE90823CDE946
:1031A0000A6703F0E9FB4FF63F02022308A9114822
:1031B0000C94CDE90823CDE90A6703F0DDFB20225A
:1031C000022308A90A480C94CDE90A67CDE908232F
:1031D00003F0D2FB0EB0D0BDB40900240044025865
:1031E0000010025800180258000C02580020025823
:1031F000001C02580014025830B5184C154685B012
:10320000046004F1080EEC460FC98EE80F00D4EDFF
:10321000047AF5EEC07A8CE80F00F1EE10FA1ADDB0
:10322000B7EE006A94ED057A27EE277AC6EE276A94
:1032300084ED0D7AC4ED0C6A6DB1204640F8185F3C
:1032400001F06AFA064903690020064A2162A26277
:10325000E36005B030BD012005B030BDF0090024A9
:10326000002000300000003000680830704700BFC8
:103270000068183001F052BA10B4074B4FF07E517D
:1032800030240022032019619C60D8605DF8044B53
:103290005961C3E906227047F0090024704700BF56
:1032A000012910B506D0022915D051B1BDE8104052
:1032B00005F044BA0A463448344909F019FAE8B12D
:1032C000FEE7334B0A46334C334934481C6009F05F
:1032D0000FFA68B1FEE701222C492B4809F008FAE1
:1032E00000B1FEE72E49284809F024FAC0B1FEE7F4
:1032F0002B492A4809F01EFA60B1FEE72849224806
:1033000009F018FA00B1FEE726491F4809F0BAF99A
:1033100008B3FEE72449214809F0B4F9A8B1FEE753
:103320002049194809F0AEF900B1FEE7164809F046
:1033300017FA024640B9164B164C174917481C603D
:1033400009F0D6F968B1FEE7FEE7144809F008FA7B
:103350000028ABD0FEE70C4809F002FA0028A5D0FF
:10336000FEE70F490D4809F0E5F900B1FEE70E4907
:103370000A4809F087F900B1FEE7084809F0F0F9BA
:10338000002893D0FEE700BFC40C0024C400002432
:10339000600F00249D320008A8000024280A0024A1
:1033A0002C0100248800002478000024014804F047
:1033B000A3BC00BF08380024014804F09DBC00BF36
:1033C00008380024014804F097BC00BF08380024E6
:1033D00010B592B0ADF804100180C9B2149C0B294D
:1033E000C460C0E901233FD090F801C0BCF10F0FC9
:1033F0003AD8022A3FD0032A02D0012A00D0002264
:103400000E92012B02D0022B18BF0023022C0F9327
:103410002CD0032C2AD0012C28D000230A29109369
:1034200027D85C4A02EB812202610A2914D8DFE81E
:1034300001F0A39587796B5D4F4133250600564B0C
:10344000D3F8E01041F48061C3F8E010D3F8E03025
:1034500003F480630C930C9B01230DA9104603FA1F
:103460000CF30D9303F088FA12B010BD0A291094E2
:10347000D7D90022D8E711220E92C2E7464BD3F8E3
:10348000E01041F40071C3F8E010D3F8E03003F429
:1034900000730B930B9BDFE73F4BD3F8E01041F435
:1034A0008071C3F8E010D3F8E03003F480730A931E
:1034B0000A9BD1E7384BD3F8E01041F08001C3F804
:1034C000E010D3F8E03003F080030993099BC3E7D1
:1034D000314BD3F8E01041F04001C3F8E010D3F8CD
:1034E000E03003F040030893089BB5E72A4BD3F87C
:1034F000E01041F02001C3F8E010D3F8E03003F011
:1035000020030793079BA7E7234BD3F8E01041F074
:103510001001C3F8E010D3F8E03003F01003069375
:10352000069B99E71C4BD3F8E01041F00801C3F863
:10353000E010D3F8E03003F008030593059B8BE718
:10354000154BD3F8E01041F00401C3F8E010D3F8B4
:10355000E03003F004030493049B7DE70E4BD3F8A3
:10356000E01041F00201C3F8E010D3F8E03003F0BE
:1035700002030393039B6FE7074BD3F8E01041F07E
:103580000101C3F8E010D3F8E03003F00103029327
:10359000029B61E7000002580044025808B501216F
:1035A00043780069994089B203F0EEFB003818BFF8
:1035B000012008BD01230A464178006903FA01F1A0
:1035C00089B203F0E7BB00BF8378022B30B5044615
:1035D0008FB037D0032B33D0012B31D000230A9387
:1035E000E378012B2AD0022B28D000230B93002351
:1035F00020460C9301F0F8FF0546204601F0FCFF41
:1036000023780990082B13D8DFE803F01F324558C0
:103610006B7E91A40500594BD3F8E02042F48072F0
:10362000C3F8E020D3F8E03003F480730893089BDC
:1036300009A9284603F0A0F90FB030BD0B93D6E7D7
:103640000A93CDE711230A93CAE74C4B09A92846F0
:10365000D3F8E02042F00102C3F8E020D3F8E030D4
:1036600003F001030093009B03F086F90FB030BD17
:10367000424B09A92846D3F8E02042F00202C3F8E1
:10368000E020D3F8E03003F002030193019B03F044
:1036900073F90FB030BD394B09A92846D3F8E020A3
:1036A00042F00402C3F8E020D3F8E03003F0040352
:1036B0000293029B03F060F90FB030BD2F4B09A9B4
:1036C0002846D3F8E02042F00802C3F8E020D3F8FF
:1036D000E03003F008030393039B03F04DF90FB0B0
:1036E00030BD264B09A92846D3F8E02042F010024D
:1036F000C3F8E020D3F8E03003F010030493049BF8
:1037000003F03AF90FB030BD1C4B09A92846D3F895
:10371000E02042F02002C3F8E020D3F8E03003F0CC
:1037200020030593059B03F027F90FB030BD134B21
:1037300009A92846D3F8E02042F04002C3F8E0206F
:10374000D3F8E03003F040030693069B03F014F92E
:103750000FB030BD094B09A92846D3F8E02042F04C
:103760008002C3F8E020D3F8E03003F08003079331
:10377000079B03F001F90FB030BD00BF00440258B1
:1037800070B506460D4601F02FFF0446304601F0A5
:1037900033FF2A1E0146204618BF0122BDE87040B3
:1037A00003F0F8BA0023122270B586B0CDE90223E7
:1037B00004930368032B01D804230593061D841D7D
:1037C000304601F011FF0546304601F015FF034673
:1037D00001A92846019303F0CFF8204601F004FF29
:1037E000034620461C4601F007FF01A90346204678
:1037F000019303F0C1F806B070BD00BF634A0368CF
:10380000934210B58CB028D0614A934258D0614A97
:10381000934200F09480604A934201D00CB010BDF6
:103820005E4C5F48D4F8E03043F00203C4F8E03067
:10383000D4F8E03003F002030A930A9BFFF7B2FFCB
:10384000D4F8F43043F08003C4F8F430D4F8F43002
:1038500003F080030B930B9BE0E7504C5148D4F8E6
:10386000E03043F00203C4F8E030D4F8E03003F075
:1038700002030193019BFFF795FFD4F8E830002283
:103880001F2043F400131146C4F8E830D4F8E830A0
:1038900003F400130293029BD4F8D83043F00103E1
:1038A000C4F8D830D4F8D83003F001030393039B55
:1038B00001F0E6FF1F200CB0BDE8104002F01EB87A
:1038C000364C3948D4F8E03043F08003C4F8E03097
:1038D000D4F8E03003F080030493049BD4F8E03084
:1038E00043F00203C4F8E030D4F8E03003F0020300
:1038F0000593059BFFF756FFD4F8E83000222120FE
:1039000043F480031146C4F8E830D4F8E83003F4F7
:1039100080030693069BD4F8D83043F00103C4F823
:10392000D830D4F8D83003F001030793079B01F097
:10393000A7FF21200CB0BDE8104001F0DFBF1B48FD
:10394000FFF730FF154B00224820D3F8E84011461E
:1039500044F40004C3F8E840D3F8E84004F4000459
:103960000894089CD3F8D84044F00104C3F8D84028
:10397000D3F8D83003F001030993099B01F080FFCD
:1039800048200CB0BDE8104001F0B8BF0054004022
:1039900000580040005C0040001C005800440258E1
:1039A000F0110024680F0024401000241811002496
:1039B0002DE9F0431A4B87B000254FF010099E46C1
:1039C000EC46184BFF22E04667461A700EF11806C7
:1039D0000EF13004CDE90055CDE90255ADF8009067
:1039E000BCE80F00CDE90455AEE80F009CE80300E9
:1039F0000095ADF800908EE80300B8E80F000FC600
:103A00009CE803000095ADF8009086E803000FCF16
:103A10000FC49CE8030084E8030007B0BDE8F0830E
:103A200028000024650F002410B5EFF3108472B64F
:103A3000084B1A78120602D504B962B610BD1B787D
:103A4000D82205485BB202FB0300143002F042FCAE
:103A5000F2E700BF650F0024680F0024014804F05E
:103A600031B800BFF40F0024014804F02BB800BFA8
:103A7000CC100024014804F025B800BFA411002494
:103A80002DE9F0430F68D8243F4D85B007FB04F4BF
:103A9000032F05EB0403036040DCCB680E46012BCB
:103AA0003CD84DD04FF0D808B646DFF8FC9008FB64
:103AB0000758BEE80F00C446ACE80F00DEF800303F
:103AC0000DF1100ECCF80030D8F808C099E80F00BE
:103AD0000EE90F000EEB8703BCF1010F53F8103C09
:103AE000C8F88C3031D0BCF1020F42D0BCF1000FCD
:103AF00035D0317C8C34D823002201202C4403FBA8
:103B000007534900C3E92602C3F894102046C3E9CD
:103B10002822C3E92A2203F0C7FD18B1012005B00D
:103B2000BDE8F0830146204603F0D8FF0028F5D118
:103B30000146204603F0FCFF003818BF0120EEE7E5
:103B40000B7C103B672BADD9E8E701F045F80F4B34
:103B500098420CBF0E4B0F4BC8F89030C9E701F0EC
:103B60003BF80A4B98420CBF0B4B0C4BC8F89030FB
:103B7000BFE701F031F8054B98420CBF084B094BE9
:103B8000C8F89030B5E700BF680F0024000E270783
:103B90002D0FB0303211D0205F4390608A62E03048
:103BA000200BA0101A098010002C01082DE9F0410B
:103BB000D0F8008082B00D4617461E4608F18C04EE
:103BC000204603F087FF2028FAD1D8F80C3073B9CB
:103BD0006D002046089C33463A46A9B2009403F093
:103BE000B9FD003818BF012002B0BDE8F081089B84
:103BF00032463946204603F081FEF2E7044B10229C
:103C00001A7483F8E82083F8C02183F8982270475B
:103C1000680F002430B5002395B04FF48071062260
:103C200004460B9306921393CDE90C13CDE90E33A2
:103C3000CDE9113300F0D2FF07282BD004F1100595
:103C400041F2883206A9284604F0C4FE28B10123B7
:103C5000184684F85C3015B030BD0222022306A954
:103C60002846CDE9002310220123CDE902230022BA
:103C70004FF48003CDE9042305224FF080730692B0
:103C80006A460F9341F2883305F010F80028DED120
:103C900015B030BD0323012084F85C3015B030BD71
:103CA00070B50023A4B04FF080724FF480750446C5
:103CB000ADF806300D93CDE910320122CDE90E5357
:103CC000CDE91223CDE91433002943D0F02300F1CC
:103CD000100508AEADF80630C02341F288323146F7
:103CE0002846089304F076FE28B10123184684F88C
:103CF0005C3024B070BD41F288320DF106012846D7
:103D000004F0D2FE03460028EFD105224FF4807163
:103D10001E93284616924FF080721B9321931F9298
:103D200002AA9FED1F7BCDE91C13CDE922338DED57
:103D3000027B9FED1D7B41F2883316A98DED047B3C
:103D40009FED1B7B8DED067B04F0B0FF0028CCD1EE
:103D500024B070BD00F1100508AE612341F2883235
:103D600031462846089304F035FE0028BDD141F2C3
:103D700088320DF10601284604F014FF0028B4D162
:103D8000BDF80630204623F0780343F04003ADF839
:103D90000630FFF73FFF00289ED0A6E7AFF3008074
:103DA0000000000001000000100000000100000001
:103DB00000000000000040002DE9F04F00234FF408
:103DC000807501264FF0807804462DED028BABB054
:103DD0008DF8073013932193299314950E96CDF8FF
:103DE0005C80CDE91533CDE91863CDE91A33CDE90F
:103DF0002253CDE92433CDE9273306231C9300F069
:103E0000EDFE072808D004F1100741F288321CA902
:103E1000384604F0DFFD40B10123184684F85C30D9
:103E20002BB0BDEC028BBDE8F08F4FF0020A4FF0D3
:103E3000020B4FF0050941F2883308AA1CA9384645
:103E4000CDF89480CDF870909FED2D8BCDE908AB27
:103E50004FF0000A4FF4800B8DED0A8BCDE90CABCF
:103E600004F024FF0028D7D141F2883238460EA949
:103E700004F0B0FD0028CFD1402341F288320DF18B
:103E8000070138468DF8073004F00EFE0028C3D134
:103E900041F288330EA902AA3846CDF83890CDF801
:103EA0005C809FED197B8DED048BCDE906AB8DED2C
:103EB000027B04F0FBFE03460028ADD1CDF87090E4
:103EC0004FF00109CDF894804FF00008219308AA23
:103ED00029931CA938462295CDE92333CDE9273310
:103EE00041F288338DED0A8BCDE90CABCDE9088921
:103EF00004F0DCFE002893D0304684F85C608FE745
:103F00001000000001000000400000004000000020
:103F10002DE9F043624CA3B00D46046000F05EFE54
:103F2000072800F0A980286823466968AA6807C3A3
:103F30001E46AB8926F8043B3046257B677B04F0A0
:103F40002BFDE0B9574B012D4FF00108E0612361D3
:103F500014BF4FF480134FF40003C4E9058893FAAB
:103F6000A3F3B3FA83F34FF48079013BC4F82490B0
:103F7000C4E90B003046236204F0A2FC38B10122F0
:103F8000134684F85C20184623B0BDE8F08366230E
:103F90000B90139041F2883206A90693CDE90C905C
:103FA000CDE90E00CDE91100304604F013FD0028E4
:103FB000E5D1992341F2883206A93046069304F0F0
:103FC00009FD0028DBD105231C9019906A46149343
:103FD0004FF08073219014A91D9341F288339FED17
:103FE0002A7BCDE91A90CDE91F008DED007B9FED76
:103FF000287B30468DED027B9FED277B8DED047B8A
:1040000004F054FE0028BAD129462046FFF748FEA6
:104010000028B4D12046FFF7CFFE03460028AED1DA
:10402000002FB0D1189330460027002606AA14A905
:10403000CDF86890CDE91F33EB2314934FF4406320
:104040001B934FF4005317934FF440431C93A0234A
:104050001693062319934FF0805321934FF040732A
:10406000CDE906671D9304F099FE034600288AD027
:10407000434684F85C8086E701230322184684F8CF
:104080005C2023B0BDE8F0830000000001000000C8
:1040900010000000010000000000000000004000CF
:1040A000C8120024005000522DE9F04F8FB0414B50
:1040B0000024026800AF9A427C63C7E90944C7E95B
:1040C0000B4403D03C37BD46BDE8F08F3A4B40F679
:1040D00009213A48EB46D3F8D42007F11C0607F132
:1040E000220A4FF0020942F480424FF00308C3F85D
:1040F000D420D3F8D42002F48042BA60BA68D3F84E
:10410000E02042F04002C3F8E020D3F8E02002F0C3
:104110004002FA60FA68D3F8E02042F02002C3F8C7
:10412000E020D3F8E02002F020023A613A69D3F8A7
:10413000E02042F01002C3F8E020D3F8E02002F0C3
:1041400010027A617A69D3F8E02042F00202C3F8E3
:10415000E020D3F8E030F86103F002033984BB615A
:10416000174B7B60BB697B6853F8040F7B6001F0E1
:104170003BFA7B680546186801F03EFA16F8013BE9
:10418000786207F124012846C7F830807B63C7E9CD
:104190000A9402F0F1FB5645E5D100225C2011465D
:1041A00001F06EFB5C2001F0A9FB3C37DD46BD460B
:1041B000BDE8F08F00500052004402580A0A090975
:1041C00024130024114B02689A4200D07047104A11
:1041D00070B5D2F8D4300F4C23F4804304F11806A4
:1041E000C2F8D43054F8040F01F0FEF905462068F7
:1041F00001F002FA0146284602F0FEFCB442F1D179
:104200005C20BDE8704001F087BB00BF0050005249
:104210000044025824130024014804F04BBE00BFA0
:10422000D8120024084B1A1D981D03F1080110B480
:104230009C1C9A6603F10A02C3E91834C3E91B0106
:104240005DF8044B5A677047C812002438B50368FC
:1042500071B9026A00F1280500F5AC74012A0CBF9F
:10426000002140218BBB1D4B5722C0F858310DE077
:10427000426A00F1C00500F5E874012A0CBF002174
:104280004021EBB1164B5A22C0F8D0310023204612
:10429000C4E901214FF480524FF48061636262618E
:1042A0004FF48042C4E903314FF48073C4E906231C
:1042B0004FF40033236201F095FC58B1FFBEFEE7D6
:1042C000084B5822C0F8D031E0E7074B5922C0F81C
:1042D0005831DBE7C5E92044A56338BD1000024032
:1042E0007000024028000240580002402DE9F043CF
:1042F000821D05468BB0031D05F10A010830CDE98A
:10430000052305F10C02AB69CDE907010992002BE9
:104310003DD0EB69B3FA83F84FEA58180123022223
:1043200005AE0AAF4FF006090393CDE9012356F815
:10433000044B2B792278934216D02B68F3B1012BD2
:1043400002D1F2B10A230493204601F055F9034645
:104350002046009301F048F9694602F00DFBBE4289
:10436000E5D10BB0BDE8F083697963789942E4D177
:10437000B8F1000FF3D02B68002BE0D1CDF81090EE
:10438000E2E76378022B14BF0A230823DBE74FF030
:104390000108C3E7534A0368934230B505468BB022
:1043A00055D02032934252D04F4A934204D020320B
:1043B000934201D00BB030BD4C4C4D48D4F8E030A6
:1043C00043F00103C4F8E030D4F8E03003F0010317
:1043D0000593059BD4F8E03043F00803C4F8E030BF
:1043E000D4F8E03003F008030693069BD4F8E030DD
:1043F00043F04003C4F8E030D4F8E03003F0400369
:104400000793079BD4F8F03043F40003C4F8F0306E
:10441000D4F8F03003F400030893089BFFF766FF1D
:10442000D4F8D830296843F001032F4A3048C4F843
:10443000D830891AD4F8D83018BF012103F001030D
:104440000993099B0BB0BDE83040FFF7FFBE274C36
:104450002848D4F8E03043F00103C4F8E030D4F841
:10446000E03003F001030093009BD4F8E03043F008
:104470001003C4F8E030D4F8E03003F010030193E7
:10448000019BD4F8E03043F04003C4F8E030D4F8A6
:10449000E03003F040030293029BD4F8F03043F481
:1044A0008003C4F8F030D4F8F03003F480030393B1
:1044B000039BFFF71BFFD4F8D830296843F00103B2
:1044C000084A0C48C4F8D830891AD4F8D83018BF34
:1044D000012103F001030493049B0BB0BDE83040BD
:1044E000FFF7B4BE04580140045C01400044025888
:1044F0009C15002440130024014801F0EBBE00BFCE
:1045000098140024014801F0E5BE00BF10150024F6
:10451000014801F0DFBE00BFF4160024014801F09D
:10452000D9BE00BF6C1700242DE9F04F0C684FF482
:104530001776754F87B004FB06F6012C07EB060AC9
:10454000C0F800A000F3A0800D468E464FF0000892
:10455000D44669A3D3E9002369A1D1E90001CDE9DB
:10456000022306ABCAF8508203EB8403CDE90401B1
:1045700053F810BC53F8083CCAE992880193BEE88E
:104580000F00ACE80F00BEE80F00ACE80F00019B85
:104590009EE80300CAF828B0CAF8C0308CE80300CF
:1045A0002B69042B0CD8DFE803F0737D879103009F
:1045B0004FF41773554A03FB04739A64C3F8E02061
:1045C000AA692B6A002A43D0002B4FF4177308BF47
:1045D000022203FB047318BF0322DA6201221A636A
:1045E000EA696B6A002A40D1191E4FF4177318BF8D
:1045F000012103FB0473C3E931126B69022B05D857
:10460000434A12F80380434A52F823904FF4177339
:1046100006F128004246494603FB0474002338444F
:1046200063646363E365C4F8DC30C4F8CC30C4F879
:10463000F430C4E90F33C4E91533C4E93533C4E9B0
:104640003B33022306F0D8FC002849D0FFBEFEE72A
:10465000191E4FF4177318BF012103FB0473C3E93C
:104660000B12EA696B6A002ABED0002B4FF4177355
:1046700008BF022203FB047318BF0322C3F8C4203F
:104680000122C3F8C820B8E7012007B0BDE8F08FC9
:104690004FF417734FF4FA5203FB04739A64C3F890
:1046A000E0208DE74FF417734FF47A5203FB047345
:1046B0009A64C3F8E02083E74FF417734FF4FA428B
:1046C00003FB04739A64C3F8E02079E74FF417738F
:1046D0004BF6803203FB04739A64C3F8E0206FE763
:1046E00006F1C000022342464946384406F084FCE5
:1046F0000028CAD0FFBEFEE704580140045C014018
:1047000024580140245C014040130024007701003C
:10471000BC2D0108C02D01080068704703681B69A3
:10472000042B05D8044A02EB830393ED000A70477B
:104730009FED020A704700BFCC2D010800803B4767
:10474000704700BF08B501F05FF8BDE8084001F010
:104750005FB900BF064808B503680BB102F01EFB45
:10476000044803681BB1BDE8084003F0C5BA08BDA2
:1047700018420024103C0024064808B503680BB119
:1047800002F00CFB044803681BB1BDE8084003F0CD
:10479000B3BA08BD18420024103C0024064808B5EE
:1047A00003680BB102F0FAFA044803681BB1BDE8D4
:1047B000084003F0A1BA08BD18420024103C0024B0
:1047C000364BDA6A520062D59A6A9A6A9A6A9B6A8A
:1047D000180600D500BE314B9B6A990600D500BE75
:1047E0002E4B9B6ADA0600D500BE2C4B9B6A1B073A
:1047F00000D500BE294B9B6A980700D500BE274B09
:104800009B6AD90700D500BE244B9B6A1A0400D5C9
:1048100000BE224B9B6A9B0400D500BE1F4B9B6AC7
:10482000D80400D500BE1D4B9B6A190500D500BEFB
:104830001A4B9B6A5A0500D500BE184B9B6A9B0514
:1048400000D500BE154B9B6AD80500D500BE134BA2
:104850009B6A990100D500BE104B9B6ADA0100D516
:1048600000BE0E4B9B6A1B0300D500BE0B4B9B6A20
:10487000580300D500BE094B9B6A990300D500BEC2
:10488000064B9B6ADA0306D400BE00BEFEE7DB6A75
:104890009B07FAD5F8E700BEF6E700BF00ED00E0A1
:1048A00000F0BEBF00F0C2BF0A4B9B6803F1784323
:1048B000B3F5003F0BD3084B986848B198680128BE
:1048C00006D09868022803D09B6803207047012017
:1048D000704700BF00ED00E0000080382DE9F04196
:1048E000CEB004464C2200210AA80DF07FF9202208
:1048F000002102A80DF07AF9BC2200211EA80DF0BB
:1049000075F9022003F0F4FE2368012B4FF0000339
:1049100054D0534A02250193C820D16A514B21F04B
:104920000101D162D26A02F0010201929A6942F455
:1049300040429A619B6903F440430193019B494AB9
:1049400093699B04FCD548490224002201268B6A06
:1049500004274FF0080823F0030323438B62052349
:1049600016900AA818934FF4803310961794199450
:104970001597CDF86880CDE91B222122CDE913449B
:10498000CDE90A2304F09EFB00B1FEE73F2203239A
:10499000294602A8CDE9022300220823CDE90423F9
:1049A00040224023CDE9062340234FF48062CDE925
:1049B000082304F0B5FE0346B8B1FEE7294A0425F2
:1049C0000093F0209169264B41F440419161926936
:1049D00002F440420092DA6A42F00102DA62DB6AD3
:1049E00003F001030093009BA9E720224FF48051BC
:1049F00025934FF440152B9280222D931EA83093BF
:104A0000269135914FF48071249234920C22339484
:104A1000439140F2271120921022CDF884802A97EA
:104A20001F96CDE92E34CDE93B334FF48033CDE9E9
:104A300022463193002446930623CDE93E45279331
:104A40004FF48063094C2C931E94CDE9281205F095
:104A5000C3F800B1FEE703F071FE4EB0BDE8F0818F
:104A60000004005800480258004402580F130F0376
:104A700070B584B0012400F079FF4FF480764FF0D8
:104A80004052194B68460025ADF800400396CDE929
:104A9000012300F089FF19224FF0404368468DF84A
:104AA000082001938DF80F40ADF80D608DF801409E
:104AB0008DF80A5000F078FF02230B2268468DF82B
:104AC0000F508DF801304FF062538DF8082001939C
:104AD000ADF80D408DF80A4000F066FF042000F0AC
:104AE00053FF04B070BD00BF0E00010330B50D468A
:104AF000044685B0D1E9000184E8030000F054FECB
:104B0000AB79A3B30AF006FAFEF752FF08F06CFE89
:104B100009F0F8FE2B798BBB6B799BB1BFF34F8FFC
:104B2000BFF36F8F2A4B0022C3F85022BFF34F8F81
:104B3000BFF36F8F5A6942F400325A61BFF34F8F4F
:104B4000BFF36F8F4FF0FF3200230024002569462A
:104B5000204802928DF80C30CDE9004509F064FA46
:104B60001C4809F0C9FA08F06FFA05B030BD2046BC
:104B7000FFF7B4FE2046FFF77BFFC3E7144C00238A
:104B8000C4F88430BFF34F8FD4F8801043F6E07E32
:104B9000C1F34E3CC1F3C9014FEA4C1C0CEA0E00B4
:104BA0000B4640EA8372013BC4F860225A1CF8D1DC
:104BB000ACF1200C1CF1200FF0D1BFF34F8F6369D3
:104BC00043F480336361BFF34F8FBFF36F8FA3E76D
:104BD00000ED00E0F817002404F0D2BE1C4B9B68E7
:104BE00003F17842B2F5003F25D3B3F5803F20D3DF
:104BF00003F16042B2F5003F1FD303F15C42B2F50E
:104C0000002F1CD303F17042B2F5902F19D303F19A
:104C10004842B2F5803F16D303F18042B2F1806F73
:104C200013D303F1E043B3F5000F2CBF0820072096
:104C30007047012070470020704702207047032012
:104C4000704704207047052070470620704700BF5A
:104C500000ED00E003480023034A044903600CF020
:104C60006FBF00BFF8170024000000244147000870
:104C700010B4204C0022204B83B0D4F888101F4879
:104C800041F47001C4F8881019681D4C41F001010D
:104C900019601A61196808401A4918609A61DA6146
:104CA0001A629A62DA621A635A639A63DA631A645E
:104CB0005A64186820F4802018601A66D3F8DC2043
:104CC00042F06042C3F8DC20D3F8DC300193019B52
:104CD00023681940B1F1005F03D20B4B0122C3F8E6
:104CE0000821044B4FF000629A6003B05DF8044B5A
:104CF000704700BF00ED00E0004402587FEDF6EA87
:104D00000010005C0000FFFF00800051704700BFF2
:104D10000020704770B50446074E0D4630462146C8
:104D200007F0C2FC304607F0C7FC044B204629467A
:104D30001B689847002070BD280A0024FC37002417
:104D400070B50446074E0D463046214607F0ACFCD0
:104D5000304607F0B1FC044B204629461B689847B3
:104D6000002070BDC40C0024003800240022094932
:104D7000094808B507F08EFC0849074807F094FC7D
:104D8000074B1A680AB1002008BD064A00201A60C5
:104D900008BD00BFFC270024280A0024FC170024BB
:104DA000FC3700240D4D000800220949094808B5C8
:104DB00007F070FC0849074807F076FC074B1A68B3
:104DC0000AB1002008BD064A00201A6008BD00BFD5
:104DD000FC2F0024C40C0024FC1F002400380024F5
:104DE0000D4D000820280AD0212806D1094B18684B
:104DF0009A889B7908608A808B7100207047054BE8
:104E00000868B1F804C08A7918600020A3F804C0CB
:104E10009A7170479800002420280AD0212806D1D2
:104E2000094B18689A889B7908608A808B710020EA
:104E30007047054B0868B1F804C08A7918600020F3
:104E4000A3F804C09A717047A000002400207047A6
:104E50004B4A036830B593428BB04FF00004CDE964
:104E60000444CDE90644089404D0464A934249D00C
:104E70000BB030BD444D4FF4C0524448D5F8E0303B
:104E800043F00103C5F8E030D5F8E03003F001034A
:104E900000930223009904A9CDE904230A2308936F
:104EA00001F06AFD4FF40072002304A9374806940C
:104EB000CDE9042301F060FDD5F8D8302246214623
:104EC00043F000636220C5F8D830D5F8D83003F03D
:104ED00000630193019B00F0D3FC622000F00EFD03
:104EE00022462146632000F0CBFC632000F006FD43
:104EF00022462146652000F0C3FC652000F0FEFC40
:104F00000BB030BD204D4FF4404204A9D5F8E0303D
:104F100043F00203C5F8E030D5F8E03003F00203B7
:104F20000293022302981A48CDE904230C23089324
:104F300001F022FDD5F8D830224621464A2043F020
:104F40000073C5F8D830D5F8D83003F00073039358
:104F5000039B00F095FC4A2000F0D0FC224621463D
:104F60004B2000F08DFC4B2000F0C8FC224621466F
:104F70004D2000F085FC4D2000F0C0FC0BB030BD92
:104F8000000008400000044000440258000002589D
:104F90000004025800F57171D0F8040407F0F8BB62
:104FA000C1EBC10300EB8303D0F80404D3F808225B
:104FB00007F01CBCC1EBC10300EB8303D0F8040471
:104FC0009A6C07F051BC00BFD0F8040407F0F0BCA5
:104FD000C16810B5044619B1022900D0FEE70121CD
:104FE000D4F8040407F0CEFCD4F80404BDE8104063
:104FF00007F0A0BC10B50446D0F8040407F0C6FCC6
:105000002268D2F8003E43F00103C2F8003E236A52
:1050100023B1034A136943F00603136110BD00BFB7
:1050200000ED00E0D0F8040407F0BABCD0F80404A6
:1050300007F0CEBCD0F8040407F0C8BCD0F80404D4
:1050400007F0C8BCD0F8040407F0C6BC70B50678F9
:1050500004461EB1012E30D0002070BD304D092312
:10506000304AC5F80404C0F8985228462E612E63D1
:10507000C5E9002302230222EB600023C5E90623D1
:1050800000220023C5E9082301220123C5E90A23E0
:1050900002F07AFD00B1FEE78021284603F008FB0C
:1050A00031464022284603F0D9FA802201212846C1
:1050B00003F0D4FA2678012ECED11B4D09221B4BCA
:1050C00000216A6002222B600223C5F804442846AE
:1050D000EB600023C4F898522961C5E90623002239
:1050E0000023C5E90823C5E90C2301220023C5E9F3
:1050F0000A2302F049FD044600B1FEE74FF40071B7
:10510000284603F0D5FA21468022284603F0A6FA65
:105110004FF4BA723146284603F0A0FA9CE700BF6C
:105120000838002400000840103C0024000004401F
:10513000D0F8980208B502F0BDFD032802D8024B52
:10514000185C08BD022008BDF02D01089446D0F877
:1051500098021A4608B5634603F032F9032802D8CC
:10516000024B185C08BD022008BD00BFF02D0108ED
:10517000D0F8980208B503F061F9032802D8024B71
:10518000185C08BD022008BDF02D0108D0F8980277
:1051900008B503F0E3F9032802D8024B185C08BDF8
:1051A000022008BDF02D0108D0F8980208B503F0E0
:1051B00019FA032802D8024B185C08BD022008BD6A
:1051C000F02D01080A06D0F8983206D4C1EBC101CF
:1051D00003EB810191F8FE01704701F07F01C1EB03
:1051E000C10103EB810191F83E007047D0F89802AD
:1051F00008B503F0CFF8032802D8024B185C08BDAD
:10520000022008BDF02D0108D0F8980208B503F07F
:105210007DF9032802D8024B185C08BD022008BDA6
:10522000F02D0108D0F8980208B503F03DF90328E5
:1052300002D8024B185C08BD022008BDF02D010801
:10524000D0F8980203F058B9122301480B80704738
:10525000F4000024122301480B807047E000002472
:10526000042301480B8070470801002410B5044C4A
:105270000A460448214607F02FFE204610BD00BF15
:1052800018400024F42D010810B5044C0A460448C7
:10529000214607F021FE204610BD00BF1840002423
:1052A000042E010810B5044C0A460448214607F0B4
:1052B00013FE204610BD00BF18400024182E010820
:1052C00010B5044C0A460448214607F005FE204666
:1052D00010BD00BF18400024242E010810B5044C56
:1052E0000A460448214607F0F7FD204610BD00BFDE
:1052F00018400024342E0108042301480B80704715
:105300000801002410B5044C0A460448214607F061
:10531000E3FD204610BD00BF18400024F42D010815
:10532000464A4FF01A0CD2F80008D2F80838A1F813
:1053300000C0C31801D142487047180FB3F1204F85
:10534000D2F804184FF0000C3D4A2CBF37303030F3
:1053500082F803C04FF0000C9070C3F3036082F832
:1053600005C04FF0000C092882F807C04FF0000C70
:105370008CBF3730303082F809C04FF0000C10710C
:10538000C3F3035082F80BC04FF0000C092882F8D9
:105390000DC08CBF373030309071C3F30340092803
:1053A0008CBF373030301072C3F3033009288CBF04
:1053B000373030309072C3F3032009288CBF373068
:1053C00030301073C3F3031003F00F0309288CBFB0
:1053D00037303030092B90734FF0000094BF3033DA
:1053E0003733B1F1204FD07313744FEA11734FF07C
:1053F00000002CBF37333033507400209374C1F356
:105400000363D0740020092B50754FF000008CBF4F
:1054100037333033D0751375C1F303530848092B64
:105420008CBF373330339375C1F30343092B94BFDB
:1054300030333733137600235376704700E0F11F83
:105440000C010024464A4FF01A0CD2F80008D2F89A
:105450000838A1F800C0C31801D142487047180F9E
:10546000B3F1204FD2F804184FF0000C3D4A2CBF86
:105470003730303082F803C04FF0000C9070C3F327
:10548000036082F805C04FF0000C092882F807C0BD
:105490004FF0000C8CBF3730303082F809C04FF02D
:1054A000000C1071C3F3035082F80BC04FF0000CD6
:1054B000092882F80DC08CBF373030309071C3F3AB
:1054C000034009288CBF373030301072C3F30330EB
:1054D00009288CBF373030309072C3F3032009287D
:1054E0008CBF373030301073C3F3031003F00F0359
:1054F00009288CBF37303030092B90734FF00000F3
:1055000094BF30333733B1F1204FD07313744FEA67
:1055100011734FF000002CBF37333033507400202C
:105520009374C1F30363D0740020092B50754FF0BE
:1055300000008CBF37333033D0751375C1F303537C
:105540000848092B8CBF373330339375C1F30343BD
:10555000092B94BF303337331376002353767047CB
:1055600000E0F11F0C01002410B5044C0A46044869
:10557000214607F0B1FC204610BD00BF18400024B2
:10558000242E010810B5044C0A460448214607F0B1
:10559000A3FC204610BD00BF18400024182E0108AF
:1055A000D0F8C00207F00ABDD0F8C00207F01EBD57
:1055B000D0F8C00207F026BD704700BFD0F8C00287
:1055C00007F00CBDD0F8C00207F00CBDD0F8D00336
:1055D00008B501F0A3FF032802D8024B185C08BDF0
:1055E000022008BD482E0108024B027853F8220021
:1055F000704700BF6C2E0108024B427833F812004E
:10560000704700BF4C2E01088CB00A2814D8DFE880
:1056100000F01523313F4D5B6977859306004D4BB4
:10562000D3F8E02042F48062C3F8E020D3F8E03001
:1056300003F480630B930B9B0CB07047454BD3F87E
:10564000E02042F00102C3F8E020D3F8E03003F09C
:1056500001030193019BEFE73E4BD3F8E02042F0BA
:105660000202C3F8E020D3F8E03003F00203029313
:10567000029BE1E7374BD3F8E02042F00402C3F885
:10568000E020D3F8E03003F004030393039BD3E757
:10569000304BD3F8E02042F00802C3F8E020D3F802
:1056A000E03003F008030493049BC5E7294BD3F8CB
:1056B000E02042F01002C3F8E020D3F8E03003F01D
:1056C00010030593059BB7E7224BD3F8E02042F087
:1056D0002002C3F8E020D3F8E03003F02003069363
:1056E000069BA9E71B4BD3F8E02042F04002C3F829
:1056F000E020D3F8E03003F040030793079B9BE7DB
:10570000144BD3F8E02042F08002C3F8E020D3F835
:10571000E03003F080030893089B8DE70D4BD3F82E
:10572000E02042F48072C3F8E020D3F8E03003F4C4
:1057300080730993099B7FE7064BD3F8E02042F47E
:105740000072C3F8E020D3F8E03003F400730A934A
:105750000A9B71E700440258704700BF0F4B1B784B
:105760000BB90120704710B504464FF47A700C4A0B
:10577000B0FBF3F31068B0FBF3F000F0E1F80F2C8E
:1057800000D808B1012010BD002221464FF0FF30A3
:1057900000F076F8034B00201C6010BD26010024A9
:1057A000700000242801002438B50320124D00F0B9
:1057B00055F8124C03F014FF114A12499369C3F3D0
:1057C0000323CB5C03F01F0320FA03F30E202B60AE
:1057D000926902F00F028A5C02F01F02D34023603C
:1057E000FFF7BCFF10B10124204638BD0446FFF787
:1057F000B3FF204638BD00BF7000002474000024B1
:1058000000440258E02D0108034A044B11681B783C
:105810000B441360704700BFDC44002426010024C1
:10582000014B1868704700BFDC44002438B50446BB
:10583000FFF7F6FF0546631C02D0044B1B781C449F
:10584000FFF7EEFF431BA342FAD338BD2601002425
:10585000014B1868000C70470010005C06494FF6B9
:10586000FF0C0002054BCA6800F4E06002EA0C027B
:1058700010430343CB60704700ED00E00000FA05E1
:105880001B4BDB68C3F3022300B5C3F1070E03F122
:10589000040CBEF1040F28BF4FF0040EBCF1060F3C
:1058A0001AD9033B4FF0FF3C0CFA03FC22EA0C022E
:1058B0004FF0FF3C00280CFA0EFC21EA0C0101FA23
:1058C00003F141EA02010ADB09010A4BC9B20344B0
:1058D00083F800135DF804FB00221346E8E700F0AC
:1058E0000F000901044BC9B2034419765DF804FBAB
:1058F00000ED00E000E100E0FCEC00E0002807DB48
:1059000000F01F0101234009024A8B4042F8203079
:10591000704700BF00E100E000280DDB43090122D1
:1059200000F01F000549203302FA00F041F823007F
:10593000BFF34F8FBFF36F8F704700BF00E100E0F0
:10594000431EB3F1807F0CD24FF0E02200200649C5
:105950004FF0F00C5361072381F823C0906113616D
:1059600070470120704700BF00ED00E0BFF35F8F7C
:10597000044B00215A6A22F480325A62C3F8941010
:10598000704700BF00ED00E0064B40F00100C3F897
:1059900094005A6A42F480325A62BFF34F8FBFF3C9
:1059A0006F8F704700ED00E0174A4378C2F89830D7
:1059B000017821B3436800B5C2F89C30C37A90F8EF
:1059C0000CC01B0690F80FE043EA0C7390F80AC075
:1059D0000B43817B43EACC4390F80DC043EA8C43F0
:1059E00090F809C043EA4143017A43EA0E4343EA8F
:1059F0000C2343EA4103C2F8A0305DF804FBC2F86F
:105A00009C10C2F8A010704700ED00E0704700BF86
:105A100008B5FFF7FBFF08BD0268344B344930B4CA
:105A2000344D354CAA4218BF9A420CBF01230023C3
:105A30008A4208BF43F001033031A24208BF43F05D
:105A4000010330348A4208BF43F001033031A242DF
:105A500008BF43F0010330348A4208BF43F001031A
:105A600001F55C71A24208BF43F0010304F55C74C8
:105A70008A4208BF43F001033031A24208BF43F01D
:105A8000010330348A4208BF43F001033031A2429F
:105A900008BF43F0010330348A4208BF43F00103DA
:105AA0003031A24208BF43F001038A4208BF43F0ED
:105AB000010313B9114B9A4213D1D3B21049114CBF
:105AC000103BA1FB03515F2B0F4BC1F3021103EA03
:105AD0000203615C88BF0433C1658365184630BC2E
